{
	"data": {
		"bytecode": {
			"linkReferences": {},
			"object": "60c06040525f6001555f6008555f600a5f6101000a81548160ff0219169083151502179055506032600b55610d05600c5566038d7ea4c68000600d55348015610046575f80fd5b5060405161544f38038061544f83398181016040528101906100689190610379565b82826103e8600c5461008c61008161016460201b60201c565b61016b60201b60201c565b5f81116100ce576040517f08c379a00000000000000000000000000000000000000000000000000000000081526004016100c59061049d565b60405180910390fd5b5f8211610110576040517f08c379a00000000000000000000000000000000000000000000000000000000081526004016101079061052b565b60405180910390fd5b836002908161011f9190610756565b50826003908161012f9190610756565b508160a08181525050806080818152505050505050600160098190555080600e908161015b9190610756565b50505050610825565b5f33905090565b5f805f9054906101000a900473ffffffffffffffffffffffffffffffffffffffff169050815f806101000a81548173ffffffffffffffffffffffffffffffffffffffff021916908373ffffffffffffffffffffffffffffffffffffffff1602179055508173ffffffffffffffffffffffffffffffffffffffff168173ffffffffffffffffffffffffffffffffffffffff167f8be0079c531659141344cd1fd0a4f28419497f9722a3daafe3b4186f6b6457e060405160405180910390a35050565b5f604051905090565b5f80fd5b5f80fd5b5f80fd5b5f80fd5b5f601f19601f8301169050919050565b7f4e487b71000000000000000000000000000000000000000000000000000000005f52604160045260245ffd5b61028b82610245565b810181811067ffffffffffffffff821117156102aa576102a9610255565b5b80604052505050565b5f6102bc61022c565b90506102c88282610282565b919050565b5f67ffffffffffffffff8211156102e7576102e6610255565b5b6102f082610245565b9050602081019050919050565b8281835e5f83830152505050565b5f61031d610318846102cd565b6102b3565b90508281526020810184848401111561033957610338610241565b5b6103448482856102fd565b509392505050565b5f82601f8301126103605761035f61023d565b5b815161037084826020860161030b565b91505092915050565b5f805f606084860312156103905761038f610235565b5b5f84015167ffffffffffffffff8111156103ad576103ac610239565b5b6103b98682870161034c565b935050602084015167ffffffffffffffff8111156103da576103d9610239565b5b6103e68682870161034c565b925050604084015167ffffffffffffffff81111561040757610406610239565b5b6104138682870161034c565b9150509250925092565b5f82825260208201905092915050565b7f455243373231413a20636f6c6c656374696f6e206d75737420686176652061205f8201527f6e6f6e7a65726f20737570706c79000000000000000000000000000000000000602082015250565b5f610487602e8361041d565b91506104928261042d565b604082019050919050565b5f6020820190508181035f8301526104b48161047b565b9050919050565b7f455243373231413a206d61782062617463682073697a65206d757374206265205f8201527f6e6f6e7a65726f00000000000000000000000000000000000000000000000000602082015250565b5f61051560278361041d565b9150610520826104bb565b604082019050919050565b5f6020820190508181035f83015261054281610509565b9050919050565b5f81519050919050565b7f4e487b71000000000000000000000000000000000000000000000000000000005f52602260045260245ffd5b5f600282049050600182168061059757607f821691505b6020821081036105aa576105a9610553565b5b50919050565b5f819050815f5260205f209050919050565b5f6020601f8301049050919050565b5f82821b905092915050565b5f6008830261060c7fffffffffffffffffffffffffffffffffffffffffffffffffffffffffffffffff826105d1565b61061686836105d1565b95508019841693508086168417925050509392505050565b5f819050919050565b5f819050919050565b5f61065a6106556106508461062e565b610637565b61062e565b9050919050565b5f819050919050565b61067383610640565b61068761067f82610661565b8484546105dd565b825550505050565b5f90565b61069b61068f565b6106a681848461066a565b505050565b5b818110156106c9576106be5f82610693565b6001810190506106ac565b5050565b601f82111561070e576106df816105b0565b6106e8846105c2565b810160208510156106f7578190505b61070b610703856105c2565b8301826106ab565b50505b505050565b5f82821c905092915050565b5f61072e5f1984600802610713565b1980831691505092915050565b5f610746838361071f565b9150826002028217905092915050565b61075f82610549565b67ffffffffffffffff81111561077857610777610255565b5b6107828254610580565b61078d8282856106cd565b5f60209050601f8311600181146107be575f84156107ac578287015190505b6107b6858261073b565b86555061081d565b601f1984166107cc866105b0565b5f5b828110156107f3578489015182556001820191506020850194506020810190506107ce565b86831015610810578489015161080c601f89168261071f565b8355505b6001600288020188555050505b505050505050565b60805160a051614bfe6108515f395f81816124610152818161248a0152612b1b01525f5050614bfe5ff3fe608060405260043610610203575f3560e01c80637f081b1611610117578063b88d4fde1161009f578063dab5f3401161006e578063dab5f3401461072b578063e985e9c514610753578063ef95a5301461078f578063f2fde38b14610799578063f968adbe146107c157610203565b8063b88d4fde14610673578063c87b56dd1461069b578063ca69e323146106d7578063d7224ba01461070157610203565b806394bf804d116100e657806394bf804d146105c557806395d89b41146105e1578063a035b1fe1461060b578063a10866ef14610635578063a22cb4651461064b57610203565b80637f081b16146104f95780638da5cb5b146105365780638ea1eacc1461056057806391b7f5ed1461059d57610203565b80632f745c591161019a5780634f6ccce7116101695780634f6ccce71461040757806355f804b3146104435780636352211e1461046b57806370a08231146104a7578063715018a6146104e357610203565b80632f745c591461036357806333bc1c5c1461039f5780633ccfd60b146103c957806342842e0e146103df57610203565b8063095ea7b3116101d6578063095ea7b3146102d357806318160ddd146102fb5780631a0fa8c31461032557806323b872dd1461033b57610203565b806301ffc9a7146102075780630359fea91461024357806306fdde031461026d578063081812fc14610297575b5f80fd5b348015610212575f80fd5b5061022d60048036038101906102289190612fda565b6107eb565b60405161023a919061301f565b60405180910390f35b34801561024e575f80fd5b50610257610934565b6040516102649190613050565b60405180910390f35b348015610278575f80fd5b5061028161093a565b60405161028e91906130d9565b60405180910390f35b3480156102a2575f80fd5b506102bd60048036038101906102b89190613123565b6109ca565b6040516102ca919061318d565b60405180910390f35b3480156102de575f80fd5b506102f960048036038101906102f491906131d0565b610a4b565b005b348015610306575f80fd5b5061030f610b62565b60405161031c9190613050565b60405180910390f35b348015610330575f80fd5b50610339610b6b565b005b348015610346575f80fd5b50610361600480360381019061035c919061320e565b610d40565b005b34801561036e575f80fd5b50610389600480360381019061038491906131d0565b610d50565b6040516103969190613050565b60405180910390f35b3480156103aa575f80fd5b506103b3610f39565b6040516103c0919061301f565b60405180910390f35b3480156103d4575f80fd5b506103dd610f4b565b005b3480156103ea575f80fd5b506104056004803603810190610400919061320e565b61100d565b005b348015610412575f80fd5b5061042d60048036038101906104289190613123565b61102c565b60405161043a9190613050565b60405180910390f35b34801561044e575f80fd5b50610469600480360381019061046491906132bf565b61107e565b005b348015610476575f80fd5b50610491600480360381019061048c9190613123565b611110565b60405161049e919061318d565b60405180910390f35b3480156104b2575f80fd5b506104cd60048036038101906104c8919061330a565b611124565b6040516104da9190613050565b60405180910390f35b3480156104ee575f80fd5b506104f7611207565b005b348015610504575f80fd5b5061051f600480360381019061051a919061330a565b61128e565b60405161052d929190613335565b60405180910390f35b348015610541575f80fd5b5061054a611301565b604051610557919061318d565b60405180910390f35b34801561056b575f80fd5b506105866004803603810190610581919061330a565b611328565b604051610594929190613335565b60405180910390f35b3480156105a8575f80fd5b506105c360048036038101906105be9190613123565b611348565b005b6105df60048036038101906105da919061335c565b6113ce565b005b3480156105ec575f80fd5b506105f56116e5565b60405161060291906130d9565b60405180910390f35b348015610616575f80fd5b5061061f611775565b60405161062c9190613050565b60405180910390f35b348015610640575f80fd5b5061064961177b565b005b348015610656575f80fd5b50610671600480360381019061066c91906133c4565b611821565b005b34801561067e575f80fd5b506106996004803603810190610694919061352a565b61199c565b005b3480156106a6575f80fd5b506106c160048036038101906106bc9190613123565b6119f8565b6040516106ce91906130d9565b60405180910390f35b3480156106e2575f80fd5b506106eb611a9c565b6040516106f89190613050565b60405180910390f35b34801561070c575f80fd5b50610715611aa2565b6040516107229190613050565b60405180910390f35b348015610736575f80fd5b50610751600480360381019061074c91906135dd565b611aa8565b005b34801561075e575f80fd5b5061077960048036038101906107749190613608565b611b2e565b604051610786919061301f565b60405180910390f35b610797611bbc565b005b3480156107a4575f80fd5b506107bf60048036038101906107ba919061330a565b611c52565b005b3480156107cc575f80fd5b506107d5611d48565b6040516107e29190613050565b60405180910390f35b5f7f80ac58cd000000000000000000000000000000000000000000000000000000007bffffffffffffffffffffffffffffffffffffffffffffffffffffffff1916827bffffffffffffffffffffffffffffffffffffffffffffffffffffffff191614806108b557507f5b5e139f000000000000000000000000000000000000000000000000000000007bffffffffffffffffffffffffffffffffffffffffffffffffffffffff1916827bffffffffffffffffffffffffffffffffffffffffffffffffffffffff1916145b8061091d57507f780e9d63000000000000000000000000000000000000000000000000000000007bffffffffffffffffffffffffffffffffffffffffffffffffffffffff1916827bffffffffffffffffffffffffffffffffffffffffffffffffffffffff1916145b8061092d575061092c82611d4e565b5b9050919050565b60105481565b60606002805461094990613673565b80601f016020809104026020016040519081016040528092919081815260200182805461097590613673565b80156109c05780601f10610997576101008083540402835291602001916109c0565b820191905f5260205f20905b8154815290600101906020018083116109a357829003601f168201915b5050505050905090565b5f6109d482611db7565b610a13576040517f08c379a0000000000000000000000000000000000000000000000000000000008152600401610a0a90613713565b60405180910390fd5b60065f8381526020019081526020015f205f9054906101000a900473ffffffffffffffffffffffffffffffffffffffff169050919050565b5f610a5582611110565b90508073ffffffffffffffffffffffffffffffffffffffff168373ffffffffffffffffffffffffffffffffffffffff1603610ac5576040517f08c379a0000000000000000000000000000000000000000000000000000000008152600401610abc906137a1565b60405180910390fd5b8073ffffffffffffffffffffffffffffffffffffffff16610ae4611dc4565b73ffffffffffffffffffffffffffffffffffffffff161480610b135750610b1281610b0d611dc4565b611b2e565b5b610b52576040517f08c379a0000000000000000000000000000000000000000000000000000000008152600401610b499061382f565b60405180910390fd5b610b5d838383611dcb565b505050565b5f600154905090565b600260095403610bb0576040517f08c379a0000000000000000000000000000000000000000000000000000000008152600401610ba790613897565b60405180910390fd5b60026009819055505f600f5f3373ffffffffffffffffffffffffffffffffffffffff1673ffffffffffffffffffffffffffffffffffffffff1681526020019081526020015f2090508060010154421015610c3f576040517f08c379a0000000000000000000000000000000000000000000000000000000008152600401610c36906138ff565b60405180910390fd5b5f815f015411610c84576040517f08c379a0000000000000000000000000000000000000000000000000000000008152600401610c7b90613967565b60405180910390fd5b5f815f01549050601054811115610cd0576040517f08c379a0000000000000000000000000000000000000000000000000000000008152600401610cc7906139cf565b60405180910390fd5b5f825f01819055508060105f828254610ce99190613a1a565b925050819055503373ffffffffffffffffffffffffffffffffffffffff166108fc8290811502906040515f60405180830381858888f19350505050158015610d33573d5f803e3d5ffd5b5050506001600981905550565b610d4b838383611e7a565b505050565b5f610d5a83611124565b8210610d9b576040517f08c379a0000000000000000000000000000000000000000000000000000000008152600401610d9290613abd565b60405180910390fd5b5f610da4610b62565b90505f805f5b83811015610ef7575f60045f8381526020019081526020015f206040518060400160405290815f82015f9054906101000a900473ffffffffffffffffffffffffffffffffffffffff1673ffffffffffffffffffffffffffffffffffffffff1673ffffffffffffffffffffffffffffffffffffffff1681526020015f820160149054906101000a900467ffffffffffffffff1667ffffffffffffffff1667ffffffffffffffff168152505090505f73ffffffffffffffffffffffffffffffffffffffff16815f015173ffffffffffffffffffffffffffffffffffffffff1614610e9357805f015192505b8773ffffffffffffffffffffffffffffffffffffffff168373ffffffffffffffffffffffffffffffffffffffff1603610ee957868403610eda578195505050505050610f33565b8380610ee590613adb565b9450505b508080600101915050610daa565b506040517f08c379a0000000000000000000000000000000000000000000000000000000008152600401610f2a90613b92565b60405180910390fd5b92915050565b600a5f9054906101000a900460ff1681565b610f53611dc4565b73ffffffffffffffffffffffffffffffffffffffff16610f71611301565b73ffffffffffffffffffffffffffffffffffffffff1614610fc7576040517f08c379a0000000000000000000000000000000000000000000000000000000008152600401610fbe90613bfa565b60405180910390fd5b3373ffffffffffffffffffffffffffffffffffffffff166108fc4790811502906040515f60405180830381858888f1935050505015801561100a573d5f803e3d5ffd5b50565b61102783838360405180602001604052805f81525061199c565b505050565b5f611035610b62565b8210611076576040517f08c379a000000000000000000000000000000000000000000000000000000000815260040161106d90613c88565b60405180910390fd5b819050919050565b611086611dc4565b73ffffffffffffffffffffffffffffffffffffffff166110a4611301565b73ffffffffffffffffffffffffffffffffffffffff16146110fa576040517f08c379a00000000000000000000000000000000000000000000000000000000081526004016110f190613bfa565b60405180910390fd5b8181600e918261110b929190613e4d565b505050565b5f61111a8261240e565b5f01519050919050565b5f8073ffffffffffffffffffffffffffffffffffffffff168273ffffffffffffffffffffffffffffffffffffffff1603611193576040517f08c379a000000000000000000000000000000000000000000000000000000000815260040161118a90613f8a565b60405180910390fd5b60055f8373ffffffffffffffffffffffffffffffffffffffff1673ffffffffffffffffffffffffffffffffffffffff1681526020019081526020015f205f015f9054906101000a90046fffffffffffffffffffffffffffffffff166fffffffffffffffffffffffffffffffff169050919050565b61120f611dc4565b73ffffffffffffffffffffffffffffffffffffffff1661122d611301565b73ffffffffffffffffffffffffffffffffffffffff1614611283576040517f08c379a000000000000000000000000000000000000000000000000000000000815260040161127a90613bfa565b60405180910390fd5b61128c5f612607565b565b5f805f600f5f8573ffffffffffffffffffffffffffffffffffffffff1673ffffffffffffffffffffffffffffffffffffffff1681526020019081526020015f206040518060400160405290815f82015481526020016001820154815250509050805f015181602001519250925050915091565b5f805f9054906101000a900473ffffffffffffffffffffffffffffffffffffffff16905090565b600f602052805f5260405f205f91509050805f0154908060010154905082565b611350611dc4565b73ffffffffffffffffffffffffffffffffffffffff1661136e611301565b73ffffffffffffffffffffffffffffffffffffffff16146113c4576040517f08c379a00000000000000000000000000000000000000000000000000000000081526004016113bb90613bfa565b60405180910390fd5b80600d8190555050565b3373ffffffffffffffffffffffffffffffffffffffff163273ffffffffffffffffffffffffffffffffffffffff161461143c576040517f08c379a000000000000000000000000000000000000000000000000000000000815260040161143390613ff2565b60405180910390fd5b600a5f9054906101000a900460ff1661148a576040517f08c379a00000000000000000000000000000000000000000000000000000000081526004016114819061405a565b60405180910390fd5b5f82116114cc576040517f08c379a00000000000000000000000000000000000000000000000000000000081526004016114c3906140c2565b60405180910390fd5b600b54821115611511576040517f08c379a00000000000000000000000000000000000000000000000000000000081526004016115089061412a565b60405180910390fd5b600c548261151d610b62565b6115279190614148565b1115611568576040517f08c379a000000000000000000000000000000000000000000000000000000000815260040161155f906141eb565b60405180910390fd5b81600d546115769190614209565b341015806115b65750611587611301565b73ffffffffffffffffffffffffffffffffffffffff163373ffffffffffffffffffffffffffffffffffffffff16145b6115f5576040517f08c379a00000000000000000000000000000000000000000000000000000000081526004016115ec90614294565b60405180910390fd5b5f3490505f6064600f836116099190614209565b61161391906142df565b905080600f5f8573ffffffffffffffffffffffffffffffffffffffff1673ffffffffffffffffffffffffffffffffffffffff1681526020019081526020015f205f015f8282546116639190614148565b9250508190555062278d00426116799190614148565b600f5f8573ffffffffffffffffffffffffffffffffffffffff1673ffffffffffffffffffffffffffffffffffffffff1681526020019081526020015f20600101819055508060105f8282546116ce9190614148565b925050819055506116df83856126c8565b50505050565b6060600380546116f490613673565b80601f016020809104026020016040519081016040528092919081815260200182805461172090613673565b801561176b5780601f106117425761010080835404028352916020019161176b565b820191905f5260205f20905b81548152906001019060200180831161174e57829003601f168201915b5050505050905090565b600d5481565b611783611dc4565b73ffffffffffffffffffffffffffffffffffffffff166117a1611301565b73ffffffffffffffffffffffffffffffffffffffff16146117f7576040517f08c379a00000000000000000000000000000000000000000000000000000000081526004016117ee90613bfa565b60405180910390fd5b600a5f9054906101000a900460ff1615600a5f6101000a81548160ff021916908315150217905550565b611829611dc4565b73ffffffffffffffffffffffffffffffffffffffff168273ffffffffffffffffffffffffffffffffffffffff1603611896576040517f08c379a000000000000000000000000000000000000000000000000000000000815260040161188d90614359565b60405180910390fd5b8060075f6118a2611dc4565b73ffffffffffffffffffffffffffffffffffffffff1673ffffffffffffffffffffffffffffffffffffffff1681526020019081526020015f205f8473ffffffffffffffffffffffffffffffffffffffff1673ffffffffffffffffffffffffffffffffffffffff1681526020019081526020015f205f6101000a81548160ff0219169083151502179055508173ffffffffffffffffffffffffffffffffffffffff1661194b611dc4565b73ffffffffffffffffffffffffffffffffffffffff167f17307eab39ab6107e8899845ad3d59bd9653f200f220920489ca2b5937696c3183604051611990919061301f565b60405180910390a35050565b6119a7848484611e7a565b6119b3848484846126e5565b6119f2576040517f08c379a00000000000000000000000000000000000000000000000000000000081526004016119e9906143e7565b60405180910390fd5b50505050565b6060611a0382611db7565b611a42576040517f08c379a0000000000000000000000000000000000000000000000000000000008152600401611a3990614475565b60405180910390fd5b5f611a4b612867565b90505f815111611a695760405180602001604052805f815250611a94565b80611a73846128f7565b604051602001611a849291906144cd565b6040516020818303038152906040525b915050919050565b600c5481565b60085481565b611ab0611dc4565b73ffffffffffffffffffffffffffffffffffffffff16611ace611301565b73ffffffffffffffffffffffffffffffffffffffff1614611b24576040517f08c379a0000000000000000000000000000000000000000000000000000000008152600401611b1b90613bfa565b60405180910390fd5b8060118190555050565b5f60075f8473ffffffffffffffffffffffffffffffffffffffff1673ffffffffffffffffffffffffffffffffffffffff1681526020019081526020015f205f8373ffffffffffffffffffffffffffffffffffffffff1673ffffffffffffffffffffffffffffffffffffffff1681526020019081526020015f205f9054906101000a900460ff16905092915050565b611bc4611dc4565b73ffffffffffffffffffffffffffffffffffffffff16611be2611301565b73ffffffffffffffffffffffffffffffffffffffff1614611c38576040517f08c379a0000000000000000000000000000000000000000000000000000000008152600401611c2f90613bfa565b60405180910390fd5b3460105f828254611c499190614148565b92505081905550565b611c5a611dc4565b73ffffffffffffffffffffffffffffffffffffffff16611c78611301565b73ffffffffffffffffffffffffffffffffffffffff1614611cce576040517f08c379a0000000000000000000000000000000000000000000000000000000008152600401611cc590613bfa565b60405180910390fd5b5f73ffffffffffffffffffffffffffffffffffffffff168173ffffffffffffffffffffffffffffffffffffffff1603611d3c576040517f08c379a0000000000000000000000000000000000000000000000000000000008152600401611d3390614560565b60405180910390fd5b611d4581612607565b50565b600b5481565b5f7f01ffc9a7000000000000000000000000000000000000000000000000000000007bffffffffffffffffffffffffffffffffffffffffffffffffffffffff1916827bffffffffffffffffffffffffffffffffffffffffffffffffffffffff1916149050919050565b5f60015482109050919050565b5f33905090565b8260065f8481526020019081526020015f205f6101000a81548173ffffffffffffffffffffffffffffffffffffffff021916908373ffffffffffffffffffffffffffffffffffffffff160217905550818373ffffffffffffffffffffffffffffffffffffffff168273ffffffffffffffffffffffffffffffffffffffff167f8c5be1e5ebec7d5bd14f71427d1e84f3dd0314c0f7b2291e5b200ac8c7c3b92560405160405180910390a4505050565b5f611e848261240e565b90505f815f015173ffffffffffffffffffffffffffffffffffffffff16611ea9611dc4565b73ffffffffffffffffffffffffffffffffffffffff161480611f055750611ece611dc4565b73ffffffffffffffffffffffffffffffffffffffff16611eed846109ca565b73ffffffffffffffffffffffffffffffffffffffff16145b80611f205750611f1f825f0151611f1a611dc4565b611b2e565b5b905080611f62576040517f08c379a0000000000000000000000000000000000000000000000000000000008152600401611f59906145ee565b60405180910390fd5b8473ffffffffffffffffffffffffffffffffffffffff16825f015173ffffffffffffffffffffffffffffffffffffffff1614611fd3576040517f08c379a0000000000000000000000000000000000000000000000000000000008152600401611fca9061467c565b60405180910390fd5b5f73ffffffffffffffffffffffffffffffffffffffff168473ffffffffffffffffffffffffffffffffffffffff1603612041576040517f08c379a00000000000000000000000000000000000000000000000000000000081526004016120389061470a565b60405180910390fd5b61204e8585856001612a50565b61205c5f84845f0151611dcb565b600160055f8773ffffffffffffffffffffffffffffffffffffffff1673ffffffffffffffffffffffffffffffffffffffff1681526020019081526020015f205f015f8282829054906101000a90046fffffffffffffffffffffffffffffffff166120c69190614743565b92506101000a8154816fffffffffffffffffffffffffffffffff02191690836fffffffffffffffffffffffffffffffff160217905550600160055f8673ffffffffffffffffffffffffffffffffffffffff1673ffffffffffffffffffffffffffffffffffffffff1681526020019081526020015f205f015f8282829054906101000a90046fffffffffffffffffffffffffffffffff166121669190614786565b92506101000a8154816fffffffffffffffffffffffffffffffff02191690836fffffffffffffffffffffffffffffffff16021790555060405180604001604052808573ffffffffffffffffffffffffffffffffffffffff1681526020014267ffffffffffffffff1681525060045f8581526020019081526020015f205f820151815f015f6101000a81548173ffffffffffffffffffffffffffffffffffffffff021916908373ffffffffffffffffffffffffffffffffffffffff1602179055506020820151815f0160146101000a81548167ffffffffffffffff021916908367ffffffffffffffff1602179055509050505f6001846122659190614148565b90505f73ffffffffffffffffffffffffffffffffffffffff1660045f8381526020019081526020015f205f015f9054906101000a900473ffffffffffffffffffffffffffffffffffffffff1673ffffffffffffffffffffffffffffffffffffffff160361239e576122d581611db7565b1561239d576040518060400160405280845f015173ffffffffffffffffffffffffffffffffffffffff168152602001846020015167ffffffffffffffff1681525060045f8381526020019081526020015f205f820151815f015f6101000a81548173ffffffffffffffffffffffffffffffffffffffff021916908373ffffffffffffffffffffffffffffffffffffffff1602179055506020820151815f0160146101000a81548167ffffffffffffffff021916908367ffffffffffffffff1602179055509050505b5b838573ffffffffffffffffffffffffffffffffffffffff168773ffffffffffffffffffffffffffffffffffffffff167fddf252ad1be2c89b69c2b068fc378daa952ba7f163c4a11628f55a4df523b3ef60405160405180910390a46124068686866001612a56565b505050505050565b612416612f3c565b61241f82611db7565b61245e576040517f08c379a000000000000000000000000000000000000000000000000000000000815260040161245590614839565b60405180910390fd5b5f7f000000000000000000000000000000000000000000000000000000000000000083106124c15760017f0000000000000000000000000000000000000000000000000000000000000000846124b49190613a1a565b6124be9190614148565b90505b5f8390505b8181106125c6575f60045f8381526020019081526020015f206040518060400160405290815f82015f9054906101000a900473ffffffffffffffffffffffffffffffffffffffff1673ffffffffffffffffffffffffffffffffffffffff1673ffffffffffffffffffffffffffffffffffffffff1681526020015f820160149054906101000a900467ffffffffffffffff1667ffffffffffffffff1667ffffffffffffffff168152505090505f73ffffffffffffffffffffffffffffffffffffffff16815f015173ffffffffffffffffffffffffffffffffffffffff16146125b257809350505050612602565b5080806125be90614857565b9150506124c6565b506040517f08c379a00000000000000000000000000000000000000000000000000000000081526004016125f9906148ee565b60405180910390fd5b919050565b5f805f9054906101000a900473ffffffffffffffffffffffffffffffffffffffff169050815f806101000a81548173ffffffffffffffffffffffffffffffffffffffff021916908373ffffffffffffffffffffffffffffffffffffffff1602179055508173ffffffffffffffffffffffffffffffffffffffff168173ffffffffffffffffffffffffffffffffffffffff167f8be0079c531659141344cd1fd0a4f28419497f9722a3daafe3b4186f6b6457e060405160405180910390a35050565b6126e1828260405180602001604052805f815250612a5c565b5050565b5f6127058473ffffffffffffffffffffffffffffffffffffffff16612f1a565b1561285a578373ffffffffffffffffffffffffffffffffffffffff1663150b7a0261272e611dc4565b8786866040518563ffffffff1660e01b8152600401612750949392919061495e565b6020604051808303815f875af192505050801561278b57506040513d601f19601f8201168201806040525081019061278891906149bc565b60015b61280a573d805f81146127b9576040519150601f19603f3d011682016040523d82523d5f602084013e6127be565b606091505b505f815103612802576040517f08c379a00000000000000000000000000000000000000000000000000000000081526004016127f9906143e7565b60405180910390fd5b805181602001fd5b63150b7a0260e01b7bffffffffffffffffffffffffffffffffffffffffffffffffffffffff1916817bffffffffffffffffffffffffffffffffffffffffffffffffffffffff19161491505061285f565b600190505b949350505050565b6060600e805461287690613673565b80601f01602080910402602001604051908101604052809291908181526020018280546128a290613673565b80156128ed5780601f106128c4576101008083540402835291602001916128ed565b820191905f5260205f20905b8154815290600101906020018083116128d057829003601f168201915b5050505050905090565b60605f820361293d576040518060400160405280600181526020017f30000000000000000000000000000000000000000000000000000000000000008152509050612a4b565b5f8290505f5b5f821461296c57808061295590613adb565b915050600a8261296591906142df565b9150612943565b5f8167ffffffffffffffff81111561298757612986613406565b5b6040519080825280601f01601f1916602001820160405280156129b95781602001600182028036833780820191505090505b5090505b5f8514612a44576001826129d19190613a1a565b9150600a856129e091906149e7565b60306129ec9190614148565b60f81b818381518110612a0257612a01614a17565b5b60200101907effffffffffffffffffffffffffffffffffffffffffffffffffffffffffffff191690815f1a905350600a85612a3d91906142df565b94506129bd565b8093505050505b919050565b50505050565b50505050565b5f60015490505f73ffffffffffffffffffffffffffffffffffffffff168473ffffffffffffffffffffffffffffffffffffffff1603612ad0576040517f08c379a0000000000000000000000000000000000000000000000000000000008152600401612ac790614ab4565b60405180910390fd5b612ad981611db7565b15612b19576040517f08c379a0000000000000000000000000000000000000000000000000000000008152600401612b1090614b1c565b60405180910390fd5b7f0000000000000000000000000000000000000000000000000000000000000000831115612b7c576040517f08c379a0000000000000000000000000000000000000000000000000000000008152600401612b7390614baa565b60405180910390fd5b612b885f858386612a50565b5f60055f8673ffffffffffffffffffffffffffffffffffffffff1673ffffffffffffffffffffffffffffffffffffffff1681526020019081526020015f206040518060400160405290815f82015f9054906101000a90046fffffffffffffffffffffffffffffffff166fffffffffffffffffffffffffffffffff166fffffffffffffffffffffffffffffffff1681526020015f820160109054906101000a90046fffffffffffffffffffffffffffffffff166fffffffffffffffffffffffffffffffff166fffffffffffffffffffffffffffffffff16815250509050604051806040016040528085835f0151612c7e9190614786565b6fffffffffffffffffffffffffffffffff168152602001858360200151612ca59190614786565b6fffffffffffffffffffffffffffffffff1681525060055f8773ffffffffffffffffffffffffffffffffffffffff1673ffffffffffffffffffffffffffffffffffffffff1681526020019081526020015f205f820151815f015f6101000a8154816fffffffffffffffffffffffffffffffff02191690836fffffffffffffffffffffffffffffffff1602179055506020820151815f0160106101000a8154816fffffffffffffffffffffffffffffffff02191690836fffffffffffffffffffffffffffffffff16021790555090505060405180604001604052808673ffffffffffffffffffffffffffffffffffffffff1681526020014267ffffffffffffffff1681525060045f8481526020019081526020015f205f820151815f015f6101000a81548173ffffffffffffffffffffffffffffffffffffffff021916908373ffffffffffffffffffffffffffffffffffffffff1602179055506020820151815f0160146101000a81548167ffffffffffffffff021916908367ffffffffffffffff1602179055509050505f8290505f5b85811015612efe57818773ffffffffffffffffffffffffffffffffffffffff165f73ffffffffffffffffffffffffffffffffffffffff167fddf252ad1be2c89b69c2b068fc378daa952ba7f163c4a11628f55a4df523b3ef60405160405180910390a4612ea45f8884886126e5565b612ee3576040517f08c379a0000000000000000000000000000000000000000000000000000000008152600401612eda906143e7565b60405180910390fd5b8180612eee90613adb565b9250508080600101915050612e35565b5080600181905550612f125f878588612a56565b505050505050565b5f808273ffffffffffffffffffffffffffffffffffffffff163b119050919050565b60405180604001604052805f73ffffffffffffffffffffffffffffffffffffffff1681526020015f67ffffffffffffffff1681525090565b5f604051905090565b5f80fd5b5f80fd5b5f7fffffffff0000000000000000000000000000000000000000000000000000000082169050919050565b612fb981612f85565b8114612fc3575f80fd5b50565b5f81359050612fd481612fb0565b92915050565b5f60208284031215612fef57612fee612f7d565b5b5f612ffc84828501612fc6565b91505092915050565b5f8115159050919050565b61301981613005565b82525050565b5f6020820190506130325f830184613010565b92915050565b5f819050919050565b61304a81613038565b82525050565b5f6020820190506130635f830184613041565b92915050565b5f81519050919050565b5f82825260208201905092915050565b8281835e5f83830152505050565b5f601f19601f8301169050919050565b5f6130ab82613069565b6130b58185613073565b93506130c5818560208601613083565b6130ce81613091565b840191505092915050565b5f6020820190508181035f8301526130f181846130a1565b905092915050565b61310281613038565b811461310c575f80fd5b50565b5f8135905061311d816130f9565b92915050565b5f6020828403121561313857613137612f7d565b5b5f6131458482850161310f565b91505092915050565b5f73ffffffffffffffffffffffffffffffffffffffff82169050919050565b5f6131778261314e565b9050919050565b6131878161316d565b82525050565b5f6020820190506131a05f83018461317e565b92915050565b6131af8161316d565b81146131b9575f80fd5b50565b5f813590506131ca816131a6565b92915050565b5f80604083850312156131e6576131e5612f7d565b5b5f6131f3858286016131bc565b92505060206132048582860161310f565b9150509250929050565b5f805f6060848603121561322557613224612f7d565b5b5f613232868287016131bc565b9350506020613243868287016131bc565b92505060406132548682870161310f565b9150509250925092565b5f80fd5b5f80fd5b5f80fd5b5f8083601f84011261327f5761327e61325e565b5b8235905067ffffffffffffffff81111561329c5761329b613262565b5b6020830191508360018202830111156132b8576132b7613266565b5b9250929050565b5f80602083850312156132d5576132d4612f7d565b5b5f83013567ffffffffffffffff8111156132f2576132f1612f81565b5b6132fe8582860161326a565b92509250509250929050565b5f6020828403121561331f5761331e612f7d565b5b5f61332c848285016131bc565b91505092915050565b5f6040820190506133485f830185613041565b6133556020830184613041565b9392505050565b5f806040838503121561337257613371612f7d565b5b5f61337f8582860161310f565b9250506020613390858286016131bc565b9150509250929050565b6133a381613005565b81146133ad575f80fd5b50565b5f813590506133be8161339a565b92915050565b5f80604083850312156133da576133d9612f7d565b5b5f6133e7858286016131bc565b92505060206133f8858286016133b0565b9150509250929050565b5f80fd5b7f4e487b71000000000000000000000000000000000000000000000000000000005f52604160045260245ffd5b61343c82613091565b810181811067ffffffffffffffff8211171561345b5761345a613406565b5b80604052505050565b5f61346d612f74565b90506134798282613433565b919050565b5f67ffffffffffffffff82111561349857613497613406565b5b6134a182613091565b9050602081019050919050565b828183375f83830152505050565b5f6134ce6134c98461347e565b613464565b9050828152602081018484840111156134ea576134e9613402565b5b6134f58482856134ae565b509392505050565b5f82601f8301126135115761351061325e565b5b81356135218482602086016134bc565b91505092915050565b5f805f806080858703121561354257613541612f7d565b5b5f61354f878288016131bc565b9450506020613560878288016131bc565b93505060406135718782880161310f565b925050606085013567ffffffffffffffff81111561359257613591612f81565b5b61359e878288016134fd565b91505092959194509250565b5f819050919050565b6135bc816135aa565b81146135c6575f80fd5b50565b5f813590506135d7816135b3565b92915050565b5f602082840312156135f2576135f1612f7d565b5b5f6135ff848285016135c9565b91505092915050565b5f806040838503121561361e5761361d612f7d565b5b5f61362b858286016131bc565b925050602061363c858286016131bc565b9150509250929050565b7f4e487b71000000000000000000000000000000000000000000000000000000005f52602260045260245ffd5b5f600282049050600182168061368a57607f821691505b60208210810361369d5761369c613646565b5b50919050565b7f455243373231413a20617070726f76656420717565727920666f72206e6f6e655f8201527f78697374656e7420746f6b656e00000000000000000000000000000000000000602082015250565b5f6136fd602d83613073565b9150613708826136a3565b604082019050919050565b5f6020820190508181035f83015261372a816136f1565b9050919050565b7f455243373231413a20617070726f76616c20746f2063757272656e74206f776e5f8201527f6572000000000000000000000000000000000000000000000000000000000000602082015250565b5f61378b602283613073565b915061379682613731565b604082019050919050565b5f6020820190508181035f8301526137b88161377f565b9050919050565b7f455243373231413a20617070726f76652063616c6c6572206973206e6f74206f5f8201527f776e6572206e6f7220617070726f76656420666f7220616c6c00000000000000602082015250565b5f613819603983613073565b9150613824826137bf565b604082019050919050565b5f6020820190508181035f8301526138468161380d565b9050919050565b7f5265656e7472616e637947756172643a207265656e7472616e742063616c6c005f82015250565b5f613881601f83613073565b915061388c8261384d565b602082019050919050565b5f6020820190508181035f8301526138ae81613875565b9050919050565b7f496e636f6d65206973207374696c6c206c6f636b6564000000000000000000005f82015250565b5f6138e9601683613073565b91506138f4826138b5565b602082019050919050565b5f6020820190508181035f830152613916816138dd565b9050919050565b7f4e6f20696e636f6d6520746f20776974686472617700000000000000000000005f82015250565b5f613951601583613073565b915061395c8261391d565b602082019050919050565b5f6020820190508181035f83015261397e81613945565b9050919050565b7f496e73756666696369656e74207265776172647320706f6f6c000000000000005f82015250565b5f6139b9601983613073565b91506139c482613985565b602082019050919050565b5f6020820190508181035f8301526139e6816139ad565b9050919050565b7f4e487b71000000000000000000000000000000000000000000000000000000005f52601160045260245ffd5b5f613a2482613038565b9150613a2f83613038565b9250828203905081811115613a4757613a466139ed565b5b92915050565b7f455243373231413a206f776e657220696e646578206f7574206f6620626f756e5f8201527f6473000000000000000000000000000000000000000000000000000000000000602082015250565b5f613aa7602283613073565b9150613ab282613a4d565b604082019050919050565b5f6020820190508181035f830152613ad481613a9b565b9050919050565b5f613ae582613038565b91507fffffffffffffffffffffffffffffffffffffffffffffffffffffffffffffffff8203613b1757613b166139ed565b5b600182019050919050565b7f455243373231413a20756e61626c6520746f2067657420746f6b656e206f66205f8201527f6f776e657220627920696e646578000000000000000000000000000000000000602082015250565b5f613b7c602e83613073565b9150613b8782613b22565b604082019050919050565b5f6020820190508181035f830152613ba981613b70565b9050919050565b7f4f776e61626c653a2063616c6c6572206973206e6f7420746865206f776e65725f82015250565b5f613be4602083613073565b9150613bef82613bb0565b602082019050919050565b5f6020820190508181035f830152613c1181613bd8565b9050919050565b7f455243373231413a20676c6f62616c20696e646578206f7574206f6620626f755f8201527f6e64730000000000000000000000000000000000000000000000000000000000602082015250565b5f613c72602383613073565b9150613c7d82613c18565b604082019050919050565b5f6020820190508181035f830152613c9f81613c66565b9050919050565b5f82905092915050565b5f819050815f5260205f209050919050565b5f6020601f8301049050919050565b5f82821b905092915050565b5f60088302613d0c7fffffffffffffffffffffffffffffffffffffffffffffffffffffffffffffffff82613cd1565b613d168683613cd1565b95508019841693508086168417925050509392505050565b5f819050919050565b5f613d51613d4c613d4784613038565b613d2e565b613038565b9050919050565b5f819050919050565b613d6a83613d37565b613d7e613d7682613d58565b848454613cdd565b825550505050565b5f90565b613d92613d86565b613d9d818484613d61565b505050565b5b81811015613dc057613db55f82613d8a565b600181019050613da3565b5050565b601f821115613e0557613dd681613cb0565b613ddf84613cc2565b81016020851015613dee578190505b613e02613dfa85613cc2565b830182613da2565b50505b505050565b5f82821c905092915050565b5f613e255f1984600802613e0a565b1980831691505092915050565b5f613e3d8383613e16565b9150826002028217905092915050565b613e578383613ca6565b67ffffffffffffffff811115613e7057613e6f613406565b5b613e7a8254613673565b613e85828285613dc4565b5f601f831160018114613eb2575f8415613ea0578287013590505b613eaa8582613e32565b865550613f11565b601f198416613ec086613cb0565b5f5b82811015613ee757848901358255600182019150602085019450602081019050613ec2565b86831015613f045784890135613f00601f891682613e16565b8355505b6001600288020188555050505b50505050505050565b7f455243373231413a2062616c616e636520717565727920666f7220746865207a5f8201527f65726f2061646472657373000000000000000000000000000000000000000000602082015250565b5f613f74602b83613073565b9150613f7f82613f1a565b604082019050919050565b5f6020820190508181035f830152613fa181613f68565b9050919050565b7f5468652063616c6c657220697320616e6f7468657220636f6e747261637400005f82015250565b5f613fdc601e83613073565b9150613fe782613fa8565b602082019050919050565b5f6020820190508181035f83015261400981613fd0565b9050919050565b7f53414c455f4841535f4e4f545f535441525445445f59455400000000000000005f82015250565b5f614044601883613073565b915061404f82614010565b602082019050919050565b5f6020820190508181035f83015261407181614038565b9050919050565b7f494e56414c49445f5155414e54495459000000000000000000000000000000005f82015250565b5f6140ac601083613073565b91506140b782614078565b602082019050919050565b5f6020820190508181035f8301526140d9816140a0565b9050919050565b7f43414e4e4f545f4d494e545f544841545f4d414e5900000000000000000000005f82015250565b5f614114601583613073565b915061411f826140e0565b602082019050919050565b5f6020820190508181035f83015261414181614108565b9050919050565b5f61415282613038565b915061415d83613038565b9250828201905080821115614175576141746139ed565b5b92915050565b7f4e4f545f454e4f5547485f535550504c595f544f5f4d494e545f4445534952455f8201527f445f414d4f554e54000000000000000000000000000000000000000000000000602082015250565b5f6141d5602883613073565b91506141e08261417b565b604082019050919050565b5f6020820190508181035f830152614202816141c9565b9050919050565b5f61421382613038565b915061421e83613038565b925082820261422c81613038565b91508282048414831517614243576142426139ed565b5b5092915050565b7f56616c75652062656c6f772070726963650000000000000000000000000000005f82015250565b5f61427e601183613073565b91506142898261424a565b602082019050919050565b5f6020820190508181035f8301526142ab81614272565b9050919050565b7f4e487b71000000000000000000000000000000000000000000000000000000005f52601260045260245ffd5b5f6142e982613038565b91506142f483613038565b925082614304576143036142b2565b5b828204905092915050565b7f455243373231413a20617070726f766520746f2063616c6c65720000000000005f82015250565b5f614343601a83613073565b915061434e8261430f565b602082019050919050565b5f6020820190508181035f83015261437081614337565b9050919050565b7f455243373231413a207472616e7366657220746f206e6f6e20455243373231525f8201527f6563656976657220696d706c656d656e74657200000000000000000000000000602082015250565b5f6143d1603383613073565b91506143dc82614377565b604082019050919050565b5f6020820190508181035f8301526143fe816143c5565b9050919050565b7f4552433732314d657461646174613a2055524920717565727920666f72206e6f5f8201527f6e6578697374656e7420746f6b656e0000000000000000000000000000000000602082015250565b5f61445f602f83613073565b915061446a82614405565b604082019050919050565b5f6020820190508181035f83015261448c81614453565b9050919050565b5f81905092915050565b5f6144a782613069565b6144b18185614493565b93506144c1818560208601613083565b80840191505092915050565b5f6144d8828561449d565b91506144e4828461449d565b91508190509392505050565b7f4f776e61626c653a206e6577206f776e657220697320746865207a65726f20615f8201527f6464726573730000000000000000000000000000000000000000000000000000602082015250565b5f61454a602683613073565b9150614555826144f0565b604082019050919050565b5f6020820190508181035f8301526145778161453e565b9050919050565b7f455243373231413a207472616e736665722063616c6c6572206973206e6f74205f8201527f6f776e6572206e6f7220617070726f7665640000000000000000000000000000602082015250565b5f6145d8603283613073565b91506145e38261457e565b604082019050919050565b5f6020820190508181035f830152614605816145cc565b9050919050565b7f455243373231413a207472616e736665722066726f6d20696e636f72726563745f8201527f206f776e65720000000000000000000000000000000000000000000000000000602082015250565b5f614666602683613073565b91506146718261460c565b604082019050919050565b5f6020820190508181035f8301526146938161465a565b9050919050565b7f455243373231413a207472616e7366657220746f20746865207a65726f2061645f8201527f6472657373000000000000000000000000000000000000000000000000000000602082015250565b5f6146f4602583613073565b91506146ff8261469a565b604082019050919050565b5f6020820190508181035f830152614721816146e8565b9050919050565b5f6fffffffffffffffffffffffffffffffff82169050919050565b5f61474d82614728565b915061475883614728565b925082820390506fffffffffffffffffffffffffffffffff8111156147805761477f6139ed565b5b92915050565b5f61479082614728565b915061479b83614728565b925082820190506fffffffffffffffffffffffffffffffff8111156147c3576147c26139ed565b5b92915050565b7f455243373231413a206f776e657220717565727920666f72206e6f6e657869735f8201527f74656e7420746f6b656e00000000000000000000000000000000000000000000602082015250565b5f614823602a83613073565b915061482e826147c9565b604082019050919050565b5f6020820190508181035f83015261485081614817565b9050919050565b5f61486182613038565b91505f8203614873576148726139ed565b5b600182039050919050565b7f455243373231413a20756e61626c6520746f2064657465726d696e65207468655f8201527f206f776e6572206f6620746f6b656e0000000000000000000000000000000000602082015250565b5f6148d8602f83613073565b91506148e38261487e565b604082019050919050565b5f6020820190508181035f830152614905816148cc565b9050919050565b5f81519050919050565b5f82825260208201905092915050565b5f6149308261490c565b61493a8185614916565b935061494a818560208601613083565b61495381613091565b840191505092915050565b5f6080820190506149715f83018761317e565b61497e602083018661317e565b61498b6040830185613041565b818103606083015261499d8184614926565b905095945050505050565b5f815190506149b681612fb0565b92915050565b5f602082840312156149d1576149d0612f7d565b5b5f6149de848285016149a8565b91505092915050565b5f6149f182613038565b91506149fc83613038565b925082614a0c57614a0b6142b2565b5b828206905092915050565b7f4e487b71000000000000000000000000000000000000000000000000000000005f52603260045260245ffd5b7f455243373231413a206d696e7420746f20746865207a65726f206164647265735f8201527f7300000000000000000000000000000000000000000000000000000000000000602082015250565b5f614a9e602183613073565b9150614aa982614a44565b604082019050919050565b5f6020820190508181035f830152614acb81614a92565b9050919050565b7f455243373231413a20746f6b656e20616c7265616479206d696e7465640000005f82015250565b5f614b06601d83613073565b9150614b1182614ad2565b602082019050919050565b5f6020820190508181035f830152614b3381614afa565b9050919050565b7f455243373231413a207175616e7469747920746f206d696e7420746f6f2068695f8201527f6768000000000000000000000000000000000000000000000000000000000000602082015250565b5f614b94602283613073565b9150614b9f82614b3a565b604082019050919050565b5f6020820190508181035f830152614bc181614b88565b905091905056fea264697066735822122043d70b159853436f954d00438a06dafc5ee8d2dfbe3088d4177bf0aae3528df764736f6c634300081a0033",
			"opcodes": "PUSH1 0xC0 PUSH1 0x40 MSTORE PUSH0 PUSH1 0x1 SSTORE PUSH0 PUSH1 0x8 SSTORE PUSH0 PUSH1 0xA PUSH0 PUSH2 0x100 EXP DUP2 SLOAD DUP2 PUSH1 0xFF MUL NOT AND SWAP1 DUP4 ISZERO ISZERO MUL OR SWAP1 SSTORE POP PUSH1 0x32 PUSH1 0xB SSTORE PUSH2 0xD05 PUSH1 0xC SSTORE PUSH7 0x38D7EA4C68000 PUSH1 0xD SSTORE CALLVALUE DUP1 ISZERO PUSH2 0x46 JUMPI PUSH0 DUP1 REVERT JUMPDEST POP PUSH1 0x40 MLOAD PUSH2 0x544F CODESIZE SUB DUP1 PUSH2 0x544F DUP4 CODECOPY DUP2 DUP2 ADD PUSH1 0x40 MSTORE DUP2 ADD SWAP1 PUSH2 0x68 SWAP2 SWAP1 PUSH2 0x379 JUMP JUMPDEST DUP3 DUP3 PUSH2 0x3E8 PUSH1 0xC SLOAD PUSH2 0x8C PUSH2 0x81 PUSH2 0x164 PUSH1 0x20 SHL PUSH1 0x20 SHR JUMP JUMPDEST PUSH2 0x16B PUSH1 0x20 SHL PUSH1 0x20 SHR JUMP JUMPDEST PUSH0 DUP2 GT PUSH2 0xCE JUMPI PUSH1 0x40 MLOAD PUSH32 0x8C379A000000000000000000000000000000000000000000000000000000000 DUP2 MSTORE PUSH1 0x4 ADD PUSH2 0xC5 SWAP1 PUSH2 0x49D JUMP JUMPDEST PUSH1 0x40 MLOAD DUP1 SWAP2 SUB SWAP1 REVERT JUMPDEST PUSH0 DUP3 GT PUSH2 0x110 JUMPI PUSH1 0x40 MLOAD PUSH32 0x8C379A000000000000000000000000000000000000000000000000000000000 DUP2 MSTORE PUSH1 0x4 ADD PUSH2 0x107 SWAP1 PUSH2 0x52B JUMP JUMPDEST PUSH1 0x40 MLOAD DUP1 SWAP2 SUB SWAP1 REVERT JUMPDEST DUP4 PUSH1 0x2 SWAP1 DUP2 PUSH2 0x11F SWAP2 SWAP1 PUSH2 0x756 JUMP JUMPDEST POP DUP3 PUSH1 0x3 SWAP1 DUP2 PUSH2 0x12F SWAP2 SWAP1 PUSH2 0x756 JUMP JUMPDEST POP DUP2 PUSH1 0xA0 DUP2 DUP2 MSTORE POP POP DUP1 PUSH1 0x80 DUP2 DUP2 MSTORE POP POP POP POP POP POP PUSH1 0x1 PUSH1 0x9 DUP2 SWAP1 SSTORE POP DUP1 PUSH1 0xE SWAP1 DUP2 PUSH2 0x15B SWAP2 SWAP1 PUSH2 0x756 JUMP JUMPDEST POP POP POP POP PUSH2 0x825 JUMP JUMPDEST PUSH0 CALLER SWAP1 POP SWAP1 JUMP JUMPDEST PUSH0 DUP1 PUSH0 SWAP1 SLOAD SWAP1 PUSH2 0x100 EXP SWAP1 DIV PUSH20 0xFFFFFFFFFFFFFFFFFFFFFFFFFFFFFFFFFFFFFFFF AND SWAP1 POP DUP2 PUSH0 DUP1 PUSH2 0x100 EXP DUP2 SLOAD DUP2 PUSH20 0xFFFFFFFFFFFFFFFFFFFFFFFFFFFFFFFFFFFFFFFF MUL NOT AND SWAP1 DUP4 PUSH20 0xFFFFFFFFFFFFFFFFFFFFFFFFFFFFFFFFFFFFFFFF AND MUL OR SWAP1 SSTORE POP DUP2 PUSH20 0xFFFFFFFFFFFFFFFFFFFFFFFFFFFFFFFFFFFFFFFF AND DUP2 PUSH20 0xFFFFFFFFFFFFFFFFFFFFFFFFFFFFFFFFFFFFFFFF AND PUSH32 0x8BE0079C531659141344CD1FD0A4F28419497F9722A3DAAFE3B4186F6B6457E0 PUSH1 0x40 MLOAD PUSH1 0x40 MLOAD DUP1 SWAP2 SUB SWAP1 LOG3 POP POP JUMP JUMPDEST PUSH0 PUSH1 0x40 MLOAD SWAP1 POP SWAP1 JUMP JUMPDEST PUSH0 DUP1 REVERT JUMPDEST PUSH0 DUP1 REVERT JUMPDEST PUSH0 DUP1 REVERT JUMPDEST PUSH0 DUP1 REVERT JUMPDEST PUSH0 PUSH1 0x1F NOT PUSH1 0x1F DUP4 ADD AND SWAP1 POP SWAP2 SWAP1 POP JUMP JUMPDEST PUSH32 0x4E487B7100000000000000000000000000000000000000000000000000000000 PUSH0 MSTORE PUSH1 0x41 PUSH1 0x4 MSTORE PUSH1 0x24 PUSH0 REVERT JUMPDEST PUSH2 0x28B DUP3 PUSH2 0x245 JUMP JUMPDEST DUP2 ADD DUP2 DUP2 LT PUSH8 0xFFFFFFFFFFFFFFFF DUP3 GT OR ISZERO PUSH2 0x2AA JUMPI PUSH2 0x2A9 PUSH2 0x255 JUMP JUMPDEST JUMPDEST DUP1 PUSH1 0x40 MSTORE POP POP POP JUMP JUMPDEST PUSH0 PUSH2 0x2BC PUSH2 0x22C JUMP JUMPDEST SWAP1 POP PUSH2 0x2C8 DUP3 DUP3 PUSH2 0x282 JUMP JUMPDEST SWAP2 SWAP1 POP JUMP JUMPDEST PUSH0 PUSH8 0xFFFFFFFFFFFFFFFF DUP3 GT ISZERO PUSH2 0x2E7 JUMPI PUSH2 0x2E6 PUSH2 0x255 JUMP JUMPDEST JUMPDEST PUSH2 0x2F0 DUP3 PUSH2 0x245 JUMP JUMPDEST SWAP1 POP PUSH1 0x20 DUP2 ADD SWAP1 POP SWAP2 SWAP1 POP JUMP JUMPDEST DUP3 DUP2 DUP4 MCOPY PUSH0 DUP4 DUP4 ADD MSTORE POP POP POP JUMP JUMPDEST PUSH0 PUSH2 0x31D PUSH2 0x318 DUP5 PUSH2 0x2CD JUMP JUMPDEST PUSH2 0x2B3 JUMP JUMPDEST SWAP1 POP DUP3 DUP2 MSTORE PUSH1 0x20 DUP2 ADD DUP5 DUP5 DUP5 ADD GT ISZERO PUSH2 0x339 JUMPI PUSH2 0x338 PUSH2 0x241 JUMP JUMPDEST JUMPDEST PUSH2 0x344 DUP5 DUP3 DUP6 PUSH2 0x2FD JUMP JUMPDEST POP SWAP4 SWAP3 POP POP POP JUMP JUMPDEST PUSH0 DUP3 PUSH1 0x1F DUP4 ADD SLT PUSH2 0x360 JUMPI PUSH2 0x35F PUSH2 0x23D JUMP JUMPDEST JUMPDEST DUP2 MLOAD PUSH2 0x370 DUP5 DUP3 PUSH1 0x20 DUP7 ADD PUSH2 0x30B JUMP JUMPDEST SWAP2 POP POP SWAP3 SWAP2 POP POP JUMP JUMPDEST PUSH0 DUP1 PUSH0 PUSH1 0x60 DUP5 DUP7 SUB SLT ISZERO PUSH2 0x390 JUMPI PUSH2 0x38F PUSH2 0x235 JUMP JUMPDEST JUMPDEST PUSH0 DUP5 ADD MLOAD PUSH8 0xFFFFFFFFFFFFFFFF DUP2 GT ISZERO PUSH2 0x3AD JUMPI PUSH2 0x3AC PUSH2 0x239 JUMP JUMPDEST JUMPDEST PUSH2 0x3B9 DUP7 DUP3 DUP8 ADD PUSH2 0x34C JUMP JUMPDEST SWAP4 POP POP PUSH1 0x20 DUP5 ADD MLOAD PUSH8 0xFFFFFFFFFFFFFFFF DUP2 GT ISZERO PUSH2 0x3DA JUMPI PUSH2 0x3D9 PUSH2 0x239 JUMP JUMPDEST JUMPDEST PUSH2 0x3E6 DUP7 DUP3 DUP8 ADD PUSH2 0x34C JUMP JUMPDEST SWAP3 POP POP PUSH1 0x40 DUP5 ADD MLOAD PUSH8 0xFFFFFFFFFFFFFFFF DUP2 GT ISZERO PUSH2 0x407 JUMPI PUSH2 0x406 PUSH2 0x239 JUMP JUMPDEST JUMPDEST PUSH2 0x413 DUP7 DUP3 DUP8 ADD PUSH2 0x34C JUMP JUMPDEST SWAP2 POP POP SWAP3 POP SWAP3 POP SWAP3 JUMP JUMPDEST PUSH0 DUP3 DUP3 MSTORE PUSH1 0x20 DUP3 ADD SWAP1 POP SWAP3 SWAP2 POP POP JUMP JUMPDEST PUSH32 0x455243373231413A20636F6C6C656374696F6E206D7573742068617665206120 PUSH0 DUP3 ADD MSTORE PUSH32 0x6E6F6E7A65726F20737570706C79000000000000000000000000000000000000 PUSH1 0x20 DUP3 ADD MSTORE POP JUMP JUMPDEST PUSH0 PUSH2 0x487 PUSH1 0x2E DUP4 PUSH2 0x41D JUMP JUMPDEST SWAP2 POP PUSH2 0x492 DUP3 PUSH2 0x42D JUMP JUMPDEST PUSH1 0x40 DUP3 ADD SWAP1 POP SWAP2 SWAP1 POP JUMP JUMPDEST PUSH0 PUSH1 0x20 DUP3 ADD SWAP1 POP DUP2 DUP2 SUB PUSH0 DUP4 ADD MSTORE PUSH2 0x4B4 DUP2 PUSH2 0x47B JUMP JUMPDEST SWAP1 POP SWAP2 SWAP1 POP JUMP JUMPDEST PUSH32 0x455243373231413A206D61782062617463682073697A65206D75737420626520 PUSH0 DUP3 ADD MSTORE PUSH32 0x6E6F6E7A65726F00000000000000000000000000000000000000000000000000 PUSH1 0x20 DUP3 ADD MSTORE POP JUMP JUMPDEST PUSH0 PUSH2 0x515 PUSH1 0x27 DUP4 PUSH2 0x41D JUMP JUMPDEST SWAP2 POP PUSH2 0x520 DUP3 PUSH2 0x4BB JUMP JUMPDEST PUSH1 0x40 DUP3 ADD SWAP1 POP SWAP2 SWAP1 POP JUMP JUMPDEST PUSH0 PUSH1 0x20 DUP3 ADD SWAP1 POP DUP2 DUP2 SUB PUSH0 DUP4 ADD MSTORE PUSH2 0x542 DUP2 PUSH2 0x509 JUMP JUMPDEST SWAP1 POP SWAP2 SWAP1 POP JUMP JUMPDEST PUSH0 DUP2 MLOAD SWAP1 POP SWAP2 SWAP1 POP JUMP JUMPDEST PUSH32 0x4E487B7100000000000000000000000000000000000000000000000000000000 PUSH0 MSTORE PUSH1 0x22 PUSH1 0x4 MSTORE PUSH1 0x24 PUSH0 REVERT JUMPDEST PUSH0 PUSH1 0x2 DUP3 DIV SWAP1 POP PUSH1 0x1 DUP3 AND DUP1 PUSH2 0x597 JUMPI PUSH1 0x7F DUP3 AND SWAP2 POP JUMPDEST PUSH1 0x20 DUP3 LT DUP2 SUB PUSH2 0x5AA JUMPI PUSH2 0x5A9 PUSH2 0x553 JUMP JUMPDEST JUMPDEST POP SWAP2 SWAP1 POP JUMP JUMPDEST PUSH0 DUP2 SWAP1 POP DUP2 PUSH0 MSTORE PUSH1 0x20 PUSH0 KECCAK256 SWAP1 POP SWAP2 SWAP1 POP JUMP JUMPDEST PUSH0 PUSH1 0x20 PUSH1 0x1F DUP4 ADD DIV SWAP1 POP SWAP2 SWAP1 POP JUMP JUMPDEST PUSH0 DUP3 DUP3 SHL SWAP1 POP SWAP3 SWAP2 POP POP JUMP JUMPDEST PUSH0 PUSH1 0x8 DUP4 MUL PUSH2 0x60C PUSH32 0xFFFFFFFFFFFFFFFFFFFFFFFFFFFFFFFFFFFFFFFFFFFFFFFFFFFFFFFFFFFFFFFF DUP3 PUSH2 0x5D1 JUMP JUMPDEST PUSH2 0x616 DUP7 DUP4 PUSH2 0x5D1 JUMP JUMPDEST SWAP6 POP DUP1 NOT DUP5 AND SWAP4 POP DUP1 DUP7 AND DUP5 OR SWAP3 POP POP POP SWAP4 SWAP3 POP POP POP JUMP JUMPDEST PUSH0 DUP2 SWAP1 POP SWAP2 SWAP1 POP JUMP JUMPDEST PUSH0 DUP2 SWAP1 POP SWAP2 SWAP1 POP JUMP JUMPDEST PUSH0 PUSH2 0x65A PUSH2 0x655 PUSH2 0x650 DUP5 PUSH2 0x62E JUMP JUMPDEST PUSH2 0x637 JUMP JUMPDEST PUSH2 0x62E JUMP JUMPDEST SWAP1 POP SWAP2 SWAP1 POP JUMP JUMPDEST PUSH0 DUP2 SWAP1 POP SWAP2 SWAP1 POP JUMP JUMPDEST PUSH2 0x673 DUP4 PUSH2 0x640 JUMP JUMPDEST PUSH2 0x687 PUSH2 0x67F DUP3 PUSH2 0x661 JUMP JUMPDEST DUP5 DUP5 SLOAD PUSH2 0x5DD JUMP JUMPDEST DUP3 SSTORE POP POP POP POP JUMP JUMPDEST PUSH0 SWAP1 JUMP JUMPDEST PUSH2 0x69B PUSH2 0x68F JUMP JUMPDEST PUSH2 0x6A6 DUP2 DUP5 DUP5 PUSH2 0x66A JUMP JUMPDEST POP POP POP JUMP JUMPDEST JUMPDEST DUP2 DUP2 LT ISZERO PUSH2 0x6C9 JUMPI PUSH2 0x6BE PUSH0 DUP3 PUSH2 0x693 JUMP JUMPDEST PUSH1 0x1 DUP2 ADD SWAP1 POP PUSH2 0x6AC JUMP JUMPDEST POP POP JUMP JUMPDEST PUSH1 0x1F DUP3 GT ISZERO PUSH2 0x70E JUMPI PUSH2 0x6DF DUP2 PUSH2 0x5B0 JUMP JUMPDEST PUSH2 0x6E8 DUP5 PUSH2 0x5C2 JUMP JUMPDEST DUP2 ADD PUSH1 0x20 DUP6 LT ISZERO PUSH2 0x6F7 JUMPI DUP2 SWAP1 POP JUMPDEST PUSH2 0x70B PUSH2 0x703 DUP6 PUSH2 0x5C2 JUMP JUMPDEST DUP4 ADD DUP3 PUSH2 0x6AB JUMP JUMPDEST POP POP JUMPDEST POP POP POP JUMP JUMPDEST PUSH0 DUP3 DUP3 SHR SWAP1 POP SWAP3 SWAP2 POP POP JUMP JUMPDEST PUSH0 PUSH2 0x72E PUSH0 NOT DUP5 PUSH1 0x8 MUL PUSH2 0x713 JUMP JUMPDEST NOT DUP1 DUP4 AND SWAP2 POP POP SWAP3 SWAP2 POP POP JUMP JUMPDEST PUSH0 PUSH2 0x746 DUP4 DUP4 PUSH2 0x71F JUMP JUMPDEST SWAP2 POP DUP3 PUSH1 0x2 MUL DUP3 OR SWAP1 POP SWAP3 SWAP2 POP POP JUMP JUMPDEST PUSH2 0x75F DUP3 PUSH2 0x549 JUMP JUMPDEST PUSH8 0xFFFFFFFFFFFFFFFF DUP2 GT ISZERO PUSH2 0x778 JUMPI PUSH2 0x777 PUSH2 0x255 JUMP JUMPDEST JUMPDEST PUSH2 0x782 DUP3 SLOAD PUSH2 0x580 JUMP JUMPDEST PUSH2 0x78D DUP3 DUP3 DUP6 PUSH2 0x6CD JUMP JUMPDEST PUSH0 PUSH1 0x20 SWAP1 POP PUSH1 0x1F DUP4 GT PUSH1 0x1 DUP2 EQ PUSH2 0x7BE JUMPI PUSH0 DUP5 ISZERO PUSH2 0x7AC JUMPI DUP3 DUP8 ADD MLOAD SWAP1 POP JUMPDEST PUSH2 0x7B6 DUP6 DUP3 PUSH2 0x73B JUMP JUMPDEST DUP7 SSTORE POP PUSH2 0x81D JUMP JUMPDEST PUSH1 0x1F NOT DUP5 AND PUSH2 0x7CC DUP7 PUSH2 0x5B0 JUMP JUMPDEST PUSH0 JUMPDEST DUP3 DUP2 LT ISZERO PUSH2 0x7F3 JUMPI DUP5 DUP10 ADD MLOAD DUP3 SSTORE PUSH1 0x1 DUP3 ADD SWAP2 POP PUSH1 0x20 DUP6 ADD SWAP5 POP PUSH1 0x20 DUP2 ADD SWAP1 POP PUSH2 0x7CE JUMP JUMPDEST DUP7 DUP4 LT ISZERO PUSH2 0x810 JUMPI DUP5 DUP10 ADD MLOAD PUSH2 0x80C PUSH1 0x1F DUP10 AND DUP3 PUSH2 0x71F JUMP JUMPDEST DUP4 SSTORE POP JUMPDEST PUSH1 0x1 PUSH1 0x2 DUP9 MUL ADD DUP9 SSTORE POP POP POP JUMPDEST POP POP POP POP POP POP JUMP JUMPDEST PUSH1 0x80 MLOAD PUSH1 0xA0 MLOAD PUSH2 0x4BFE PUSH2 0x851 PUSH0 CODECOPY PUSH0 DUP2 DUP2 PUSH2 0x2461 ADD MSTORE DUP2 DUP2 PUSH2 0x248A ADD MSTORE PUSH2 0x2B1B ADD MSTORE PUSH0 POP POP PUSH2 0x4BFE PUSH0 RETURN INVALID PUSH1 0x80 PUSH1 0x40 MSTORE PUSH1 0x4 CALLDATASIZE LT PUSH2 0x203 JUMPI PUSH0 CALLDATALOAD PUSH1 0xE0 SHR DUP1 PUSH4 0x7F081B16 GT PUSH2 0x117 JUMPI DUP1 PUSH4 0xB88D4FDE GT PUSH2 0x9F JUMPI DUP1 PUSH4 0xDAB5F340 GT PUSH2 0x6E JUMPI DUP1 PUSH4 0xDAB5F340 EQ PUSH2 0x72B JUMPI DUP1 PUSH4 0xE985E9C5 EQ PUSH2 0x753 JUMPI DUP1 PUSH4 0xEF95A530 EQ PUSH2 0x78F JUMPI DUP1 PUSH4 0xF2FDE38B EQ PUSH2 0x799 JUMPI DUP1 PUSH4 0xF968ADBE EQ PUSH2 0x7C1 JUMPI PUSH2 0x203 JUMP JUMPDEST DUP1 PUSH4 0xB88D4FDE EQ PUSH2 0x673 JUMPI DUP1 PUSH4 0xC87B56DD EQ PUSH2 0x69B JUMPI DUP1 PUSH4 0xCA69E323 EQ PUSH2 0x6D7 JUMPI DUP1 PUSH4 0xD7224BA0 EQ PUSH2 0x701 JUMPI PUSH2 0x203 JUMP JUMPDEST DUP1 PUSH4 0x94BF804D GT PUSH2 0xE6 JUMPI DUP1 PUSH4 0x94BF804D EQ PUSH2 0x5C5 JUMPI DUP1 PUSH4 0x95D89B41 EQ PUSH2 0x5E1 JUMPI DUP1 PUSH4 0xA035B1FE EQ PUSH2 0x60B JUMPI DUP1 PUSH4 0xA10866EF EQ PUSH2 0x635 JUMPI DUP1 PUSH4 0xA22CB465 EQ PUSH2 0x64B JUMPI PUSH2 0x203 JUMP JUMPDEST DUP1 PUSH4 0x7F081B16 EQ PUSH2 0x4F9 JUMPI DUP1 PUSH4 0x8DA5CB5B EQ PUSH2 0x536 JUMPI DUP1 PUSH4 0x8EA1EACC EQ PUSH2 0x560 JUMPI DUP1 PUSH4 0x91B7F5ED EQ PUSH2 0x59D JUMPI PUSH2 0x203 JUMP JUMPDEST DUP1 PUSH4 0x2F745C59 GT PUSH2 0x19A JUMPI DUP1 PUSH4 0x4F6CCCE7 GT PUSH2 0x169 JUMPI DUP1 PUSH4 0x4F6CCCE7 EQ PUSH2 0x407 JUMPI DUP1 PUSH4 0x55F804B3 EQ PUSH2 0x443 JUMPI DUP1 PUSH4 0x6352211E EQ PUSH2 0x46B JUMPI DUP1 PUSH4 0x70A08231 EQ PUSH2 0x4A7 JUMPI DUP1 PUSH4 0x715018A6 EQ PUSH2 0x4E3 JUMPI PUSH2 0x203 JUMP JUMPDEST DUP1 PUSH4 0x2F745C59 EQ PUSH2 0x363 JUMPI DUP1 PUSH4 0x33BC1C5C EQ PUSH2 0x39F JUMPI DUP1 PUSH4 0x3CCFD60B EQ PUSH2 0x3C9 JUMPI DUP1 PUSH4 0x42842E0E EQ PUSH2 0x3DF JUMPI PUSH2 0x203 JUMP JUMPDEST DUP1 PUSH4 0x95EA7B3 GT PUSH2 0x1D6 JUMPI DUP1 PUSH4 0x95EA7B3 EQ PUSH2 0x2D3 JUMPI DUP1 PUSH4 0x18160DDD EQ PUSH2 0x2FB JUMPI DUP1 PUSH4 0x1A0FA8C3 EQ PUSH2 0x325 JUMPI DUP1 PUSH4 0x23B872DD EQ PUSH2 0x33B JUMPI PUSH2 0x203 JUMP JUMPDEST DUP1 PUSH4 0x1FFC9A7 EQ PUSH2 0x207 JUMPI DUP1 PUSH4 0x359FEA9 EQ PUSH2 0x243 JUMPI DUP1 PUSH4 0x6FDDE03 EQ PUSH2 0x26D JUMPI DUP1 PUSH4 0x81812FC EQ PUSH2 0x297 JUMPI JUMPDEST PUSH0 DUP1 REVERT JUMPDEST CALLVALUE DUP1 ISZERO PUSH2 0x212 JUMPI PUSH0 DUP1 REVERT JUMPDEST POP PUSH2 0x22D PUSH1 0x4 DUP1 CALLDATASIZE SUB DUP2 ADD SWAP1 PUSH2 0x228 SWAP2 SWAP1 PUSH2 0x2FDA JUMP JUMPDEST PUSH2 0x7EB JUMP JUMPDEST PUSH1 0x40 MLOAD PUSH2 0x23A SWAP2 SWAP1 PUSH2 0x301F JUMP JUMPDEST PUSH1 0x40 MLOAD DUP1 SWAP2 SUB SWAP1 RETURN JUMPDEST CALLVALUE DUP1 ISZERO PUSH2 0x24E JUMPI PUSH0 DUP1 REVERT JUMPDEST POP PUSH2 0x257 PUSH2 0x934 JUMP JUMPDEST PUSH1 0x40 MLOAD PUSH2 0x264 SWAP2 SWAP1 PUSH2 0x3050 JUMP JUMPDEST PUSH1 0x40 MLOAD DUP1 SWAP2 SUB SWAP1 RETURN JUMPDEST CALLVALUE DUP1 ISZERO PUSH2 0x278 JUMPI PUSH0 DUP1 REVERT JUMPDEST POP PUSH2 0x281 PUSH2 0x93A JUMP JUMPDEST PUSH1 0x40 MLOAD PUSH2 0x28E SWAP2 SWAP1 PUSH2 0x30D9 JUMP JUMPDEST PUSH1 0x40 MLOAD DUP1 SWAP2 SUB SWAP1 RETURN JUMPDEST CALLVALUE DUP1 ISZERO PUSH2 0x2A2 JUMPI PUSH0 DUP1 REVERT JUMPDEST POP PUSH2 0x2BD PUSH1 0x4 DUP1 CALLDATASIZE SUB DUP2 ADD SWAP1 PUSH2 0x2B8 SWAP2 SWAP1 PUSH2 0x3123 JUMP JUMPDEST PUSH2 0x9CA JUMP JUMPDEST PUSH1 0x40 MLOAD PUSH2 0x2CA SWAP2 SWAP1 PUSH2 0x318D JUMP JUMPDEST PUSH1 0x40 MLOAD DUP1 SWAP2 SUB SWAP1 RETURN JUMPDEST CALLVALUE DUP1 ISZERO PUSH2 0x2DE JUMPI PUSH0 DUP1 REVERT JUMPDEST POP PUSH2 0x2F9 PUSH1 0x4 DUP1 CALLDATASIZE SUB DUP2 ADD SWAP1 PUSH2 0x2F4 SWAP2 SWAP1 PUSH2 0x31D0 JUMP JUMPDEST PUSH2 0xA4B JUMP JUMPDEST STOP JUMPDEST CALLVALUE DUP1 ISZERO PUSH2 0x306 JUMPI PUSH0 DUP1 REVERT JUMPDEST POP PUSH2 0x30F PUSH2 0xB62 JUMP JUMPDEST PUSH1 0x40 MLOAD PUSH2 0x31C SWAP2 SWAP1 PUSH2 0x3050 JUMP JUMPDEST PUSH1 0x40 MLOAD DUP1 SWAP2 SUB SWAP1 RETURN JUMPDEST CALLVALUE DUP1 ISZERO PUSH2 0x330 JUMPI PUSH0 DUP1 REVERT JUMPDEST POP PUSH2 0x339 PUSH2 0xB6B JUMP JUMPDEST STOP JUMPDEST CALLVALUE DUP1 ISZERO PUSH2 0x346 JUMPI PUSH0 DUP1 REVERT JUMPDEST POP PUSH2 0x361 PUSH1 0x4 DUP1 CALLDATASIZE SUB DUP2 ADD SWAP1 PUSH2 0x35C SWAP2 SWAP1 PUSH2 0x320E JUMP JUMPDEST PUSH2 0xD40 JUMP JUMPDEST STOP JUMPDEST CALLVALUE DUP1 ISZERO PUSH2 0x36E JUMPI PUSH0 DUP1 REVERT JUMPDEST POP PUSH2 0x389 PUSH1 0x4 DUP1 CALLDATASIZE SUB DUP2 ADD SWAP1 PUSH2 0x384 SWAP2 SWAP1 PUSH2 0x31D0 JUMP JUMPDEST PUSH2 0xD50 JUMP JUMPDEST PUSH1 0x40 MLOAD PUSH2 0x396 SWAP2 SWAP1 PUSH2 0x3050 JUMP JUMPDEST PUSH1 0x40 MLOAD DUP1 SWAP2 SUB SWAP1 RETURN JUMPDEST CALLVALUE DUP1 ISZERO PUSH2 0x3AA JUMPI PUSH0 DUP1 REVERT JUMPDEST POP PUSH2 0x3B3 PUSH2 0xF39 JUMP JUMPDEST PUSH1 0x40 MLOAD PUSH2 0x3C0 SWAP2 SWAP1 PUSH2 0x301F JUMP JUMPDEST PUSH1 0x40 MLOAD DUP1 SWAP2 SUB SWAP1 RETURN JUMPDEST CALLVALUE DUP1 ISZERO PUSH2 0x3D4 JUMPI PUSH0 DUP1 REVERT JUMPDEST POP PUSH2 0x3DD PUSH2 0xF4B JUMP JUMPDEST STOP JUMPDEST CALLVALUE DUP1 ISZERO PUSH2 0x3EA JUMPI PUSH0 DUP1 REVERT JUMPDEST POP PUSH2 0x405 PUSH1 0x4 DUP1 CALLDATASIZE SUB DUP2 ADD SWAP1 PUSH2 0x400 SWAP2 SWAP1 PUSH2 0x320E JUMP JUMPDEST PUSH2 0x100D JUMP JUMPDEST STOP JUMPDEST CALLVALUE DUP1 ISZERO PUSH2 0x412 JUMPI PUSH0 DUP1 REVERT JUMPDEST POP PUSH2 0x42D PUSH1 0x4 DUP1 CALLDATASIZE SUB DUP2 ADD SWAP1 PUSH2 0x428 SWAP2 SWAP1 PUSH2 0x3123 JUMP JUMPDEST PUSH2 0x102C JUMP JUMPDEST PUSH1 0x40 MLOAD PUSH2 0x43A SWAP2 SWAP1 PUSH2 0x3050 JUMP JUMPDEST PUSH1 0x40 MLOAD DUP1 SWAP2 SUB SWAP1 RETURN JUMPDEST CALLVALUE DUP1 ISZERO PUSH2 0x44E JUMPI PUSH0 DUP1 REVERT JUMPDEST POP PUSH2 0x469 PUSH1 0x4 DUP1 CALLDATASIZE SUB DUP2 ADD SWAP1 PUSH2 0x464 SWAP2 SWAP1 PUSH2 0x32BF JUMP JUMPDEST PUSH2 0x107E JUMP JUMPDEST STOP JUMPDEST CALLVALUE DUP1 ISZERO PUSH2 0x476 JUMPI PUSH0 DUP1 REVERT JUMPDEST POP PUSH2 0x491 PUSH1 0x4 DUP1 CALLDATASIZE SUB DUP2 ADD SWAP1 PUSH2 0x48C SWAP2 SWAP1 PUSH2 0x3123 JUMP JUMPDEST PUSH2 0x1110 JUMP JUMPDEST PUSH1 0x40 MLOAD PUSH2 0x49E SWAP2 SWAP1 PUSH2 0x318D JUMP JUMPDEST PUSH1 0x40 MLOAD DUP1 SWAP2 SUB SWAP1 RETURN JUMPDEST CALLVALUE DUP1 ISZERO PUSH2 0x4B2 JUMPI PUSH0 DUP1 REVERT JUMPDEST POP PUSH2 0x4CD PUSH1 0x4 DUP1 CALLDATASIZE SUB DUP2 ADD SWAP1 PUSH2 0x4C8 SWAP2 SWAP1 PUSH2 0x330A JUMP JUMPDEST PUSH2 0x1124 JUMP JUMPDEST PUSH1 0x40 MLOAD PUSH2 0x4DA SWAP2 SWAP1 PUSH2 0x3050 JUMP JUMPDEST PUSH1 0x40 MLOAD DUP1 SWAP2 SUB SWAP1 RETURN JUMPDEST CALLVALUE DUP1 ISZERO PUSH2 0x4EE JUMPI PUSH0 DUP1 REVERT JUMPDEST POP PUSH2 0x4F7 PUSH2 0x1207 JUMP JUMPDEST STOP JUMPDEST CALLVALUE DUP1 ISZERO PUSH2 0x504 JUMPI PUSH0 DUP1 REVERT JUMPDEST POP PUSH2 0x51F PUSH1 0x4 DUP1 CALLDATASIZE SUB DUP2 ADD SWAP1 PUSH2 0x51A SWAP2 SWAP1 PUSH2 0x330A JUMP JUMPDEST PUSH2 0x128E JUMP JUMPDEST PUSH1 0x40 MLOAD PUSH2 0x52D SWAP3 SWAP2 SWAP1 PUSH2 0x3335 JUMP JUMPDEST PUSH1 0x40 MLOAD DUP1 SWAP2 SUB SWAP1 RETURN JUMPDEST CALLVALUE DUP1 ISZERO PUSH2 0x541 JUMPI PUSH0 DUP1 REVERT JUMPDEST POP PUSH2 0x54A PUSH2 0x1301 JUMP JUMPDEST PUSH1 0x40 MLOAD PUSH2 0x557 SWAP2 SWAP1 PUSH2 0x318D JUMP JUMPDEST PUSH1 0x40 MLOAD DUP1 SWAP2 SUB SWAP1 RETURN JUMPDEST CALLVALUE DUP1 ISZERO PUSH2 0x56B JUMPI PUSH0 DUP1 REVERT JUMPDEST POP PUSH2 0x586 PUSH1 0x4 DUP1 CALLDATASIZE SUB DUP2 ADD SWAP1 PUSH2 0x581 SWAP2 SWAP1 PUSH2 0x330A JUMP JUMPDEST PUSH2 0x1328 JUMP JUMPDEST PUSH1 0x40 MLOAD PUSH2 0x594 SWAP3 SWAP2 SWAP1 PUSH2 0x3335 JUMP JUMPDEST PUSH1 0x40 MLOAD DUP1 SWAP2 SUB SWAP1 RETURN JUMPDEST CALLVALUE DUP1 ISZERO PUSH2 0x5A8 JUMPI PUSH0 DUP1 REVERT JUMPDEST POP PUSH2 0x5C3 PUSH1 0x4 DUP1 CALLDATASIZE SUB DUP2 ADD SWAP1 PUSH2 0x5BE SWAP2 SWAP1 PUSH2 0x3123 JUMP JUMPDEST PUSH2 0x1348 JUMP JUMPDEST STOP JUMPDEST PUSH2 0x5DF PUSH1 0x4 DUP1 CALLDATASIZE SUB DUP2 ADD SWAP1 PUSH2 0x5DA SWAP2 SWAP1 PUSH2 0x335C JUMP JUMPDEST PUSH2 0x13CE JUMP JUMPDEST STOP JUMPDEST CALLVALUE DUP1 ISZERO PUSH2 0x5EC JUMPI PUSH0 DUP1 REVERT JUMPDEST POP PUSH2 0x5F5 PUSH2 0x16E5 JUMP JUMPDEST PUSH1 0x40 MLOAD PUSH2 0x602 SWAP2 SWAP1 PUSH2 0x30D9 JUMP JUMPDEST PUSH1 0x40 MLOAD DUP1 SWAP2 SUB SWAP1 RETURN JUMPDEST CALLVALUE DUP1 ISZERO PUSH2 0x616 JUMPI PUSH0 DUP1 REVERT JUMPDEST POP PUSH2 0x61F PUSH2 0x1775 JUMP JUMPDEST PUSH1 0x40 MLOAD PUSH2 0x62C SWAP2 SWAP1 PUSH2 0x3050 JUMP JUMPDEST PUSH1 0x40 MLOAD DUP1 SWAP2 SUB SWAP1 RETURN JUMPDEST CALLVALUE DUP1 ISZERO PUSH2 0x640 JUMPI PUSH0 DUP1 REVERT JUMPDEST POP PUSH2 0x649 PUSH2 0x177B JUMP JUMPDEST STOP JUMPDEST CALLVALUE DUP1 ISZERO PUSH2 0x656 JUMPI PUSH0 DUP1 REVERT JUMPDEST POP PUSH2 0x671 PUSH1 0x4 DUP1 CALLDATASIZE SUB DUP2 ADD SWAP1 PUSH2 0x66C SWAP2 SWAP1 PUSH2 0x33C4 JUMP JUMPDEST PUSH2 0x1821 JUMP JUMPDEST STOP JUMPDEST CALLVALUE DUP1 ISZERO PUSH2 0x67E JUMPI PUSH0 DUP1 REVERT JUMPDEST POP PUSH2 0x699 PUSH1 0x4 DUP1 CALLDATASIZE SUB DUP2 ADD SWAP1 PUSH2 0x694 SWAP2 SWAP1 PUSH2 0x352A JUMP JUMPDEST PUSH2 0x199C JUMP JUMPDEST STOP JUMPDEST CALLVALUE DUP1 ISZERO PUSH2 0x6A6 JUMPI PUSH0 DUP1 REVERT JUMPDEST POP PUSH2 0x6C1 PUSH1 0x4 DUP1 CALLDATASIZE SUB DUP2 ADD SWAP1 PUSH2 0x6BC SWAP2 SWAP1 PUSH2 0x3123 JUMP JUMPDEST PUSH2 0x19F8 JUMP JUMPDEST PUSH1 0x40 MLOAD PUSH2 0x6CE SWAP2 SWAP1 PUSH2 0x30D9 JUMP JUMPDEST PUSH1 0x40 MLOAD DUP1 SWAP2 SUB SWAP1 RETURN JUMPDEST CALLVALUE DUP1 ISZERO PUSH2 0x6E2 JUMPI PUSH0 DUP1 REVERT JUMPDEST POP PUSH2 0x6EB PUSH2 0x1A9C JUMP JUMPDEST PUSH1 0x40 MLOAD PUSH2 0x6F8 SWAP2 SWAP1 PUSH2 0x3050 JUMP JUMPDEST PUSH1 0x40 MLOAD DUP1 SWAP2 SUB SWAP1 RETURN JUMPDEST CALLVALUE DUP1 ISZERO PUSH2 0x70C JUMPI PUSH0 DUP1 REVERT JUMPDEST POP PUSH2 0x715 PUSH2 0x1AA2 JUMP JUMPDEST PUSH1 0x40 MLOAD PUSH2 0x722 SWAP2 SWAP1 PUSH2 0x3050 JUMP JUMPDEST PUSH1 0x40 MLOAD DUP1 SWAP2 SUB SWAP1 RETURN JUMPDEST CALLVALUE DUP1 ISZERO PUSH2 0x736 JUMPI PUSH0 DUP1 REVERT JUMPDEST POP PUSH2 0x751 PUSH1 0x4 DUP1 CALLDATASIZE SUB DUP2 ADD SWAP1 PUSH2 0x74C SWAP2 SWAP1 PUSH2 0x35DD JUMP JUMPDEST PUSH2 0x1AA8 JUMP JUMPDEST STOP JUMPDEST CALLVALUE DUP1 ISZERO PUSH2 0x75E JUMPI PUSH0 DUP1 REVERT JUMPDEST POP PUSH2 0x779 PUSH1 0x4 DUP1 CALLDATASIZE SUB DUP2 ADD SWAP1 PUSH2 0x774 SWAP2 SWAP1 PUSH2 0x3608 JUMP JUMPDEST PUSH2 0x1B2E JUMP JUMPDEST PUSH1 0x40 MLOAD PUSH2 0x786 SWAP2 SWAP1 PUSH2 0x301F JUMP JUMPDEST PUSH1 0x40 MLOAD DUP1 SWAP2 SUB SWAP1 RETURN JUMPDEST PUSH2 0x797 PUSH2 0x1BBC JUMP JUMPDEST STOP JUMPDEST CALLVALUE DUP1 ISZERO PUSH2 0x7A4 JUMPI PUSH0 DUP1 REVERT JUMPDEST POP PUSH2 0x7BF PUSH1 0x4 DUP1 CALLDATASIZE SUB DUP2 ADD SWAP1 PUSH2 0x7BA SWAP2 SWAP1 PUSH2 0x330A JUMP JUMPDEST PUSH2 0x1C52 JUMP JUMPDEST STOP JUMPDEST CALLVALUE DUP1 ISZERO PUSH2 0x7CC JUMPI PUSH0 DUP1 REVERT JUMPDEST POP PUSH2 0x7D5 PUSH2 0x1D48 JUMP JUMPDEST PUSH1 0x40 MLOAD PUSH2 0x7E2 SWAP2 SWAP1 PUSH2 0x3050 JUMP JUMPDEST PUSH1 0x40 MLOAD DUP1 SWAP2 SUB SWAP1 RETURN JUMPDEST PUSH0 PUSH32 0x80AC58CD00000000000000000000000000000000000000000000000000000000 PUSH28 0xFFFFFFFFFFFFFFFFFFFFFFFFFFFFFFFFFFFFFFFFFFFFFFFFFFFFFFFF NOT AND DUP3 PUSH28 0xFFFFFFFFFFFFFFFFFFFFFFFFFFFFFFFFFFFFFFFFFFFFFFFFFFFFFFFF NOT AND EQ DUP1 PUSH2 0x8B5 JUMPI POP PUSH32 0x5B5E139F00000000000000000000000000000000000000000000000000000000 PUSH28 0xFFFFFFFFFFFFFFFFFFFFFFFFFFFFFFFFFFFFFFFFFFFFFFFFFFFFFFFF NOT AND DUP3 PUSH28 0xFFFFFFFFFFFFFFFFFFFFFFFFFFFFFFFFFFFFFFFFFFFFFFFFFFFFFFFF NOT AND EQ JUMPDEST DUP1 PUSH2 0x91D JUMPI POP PUSH32 0x780E9D6300000000000000000000000000000000000000000000000000000000 PUSH28 0xFFFFFFFFFFFFFFFFFFFFFFFFFFFFFFFFFFFFFFFFFFFFFFFFFFFFFFFF NOT AND DUP3 PUSH28 0xFFFFFFFFFFFFFFFFFFFFFFFFFFFFFFFFFFFFFFFFFFFFFFFFFFFFFFFF NOT AND EQ JUMPDEST DUP1 PUSH2 0x92D JUMPI POP PUSH2 0x92C DUP3 PUSH2 0x1D4E JUMP JUMPDEST JUMPDEST SWAP1 POP SWAP2 SWAP1 POP JUMP JUMPDEST PUSH1 0x10 SLOAD DUP2 JUMP JUMPDEST PUSH1 0x60 PUSH1 0x2 DUP1 SLOAD PUSH2 0x949 SWAP1 PUSH2 0x3673 JUMP JUMPDEST DUP1 PUSH1 0x1F ADD PUSH1 0x20 DUP1 SWAP2 DIV MUL PUSH1 0x20 ADD PUSH1 0x40 MLOAD SWAP1 DUP2 ADD PUSH1 0x40 MSTORE DUP1 SWAP3 SWAP2 SWAP1 DUP2 DUP2 MSTORE PUSH1 0x20 ADD DUP3 DUP1 SLOAD PUSH2 0x975 SWAP1 PUSH2 0x3673 JUMP JUMPDEST DUP1 ISZERO PUSH2 0x9C0 JUMPI DUP1 PUSH1 0x1F LT PUSH2 0x997 JUMPI PUSH2 0x100 DUP1 DUP4 SLOAD DIV MUL DUP4 MSTORE SWAP2 PUSH1 0x20 ADD SWAP2 PUSH2 0x9C0 JUMP JUMPDEST DUP3 ADD SWAP2 SWAP1 PUSH0 MSTORE PUSH1 0x20 PUSH0 KECCAK256 SWAP1 JUMPDEST DUP2 SLOAD DUP2 MSTORE SWAP1 PUSH1 0x1 ADD SWAP1 PUSH1 0x20 ADD DUP1 DUP4 GT PUSH2 0x9A3 JUMPI DUP3 SWAP1 SUB PUSH1 0x1F AND DUP3 ADD SWAP2 JUMPDEST POP POP POP POP POP SWAP1 POP SWAP1 JUMP JUMPDEST PUSH0 PUSH2 0x9D4 DUP3 PUSH2 0x1DB7 JUMP JUMPDEST PUSH2 0xA13 JUMPI PUSH1 0x40 MLOAD PUSH32 0x8C379A000000000000000000000000000000000000000000000000000000000 DUP2 MSTORE PUSH1 0x4 ADD PUSH2 0xA0A SWAP1 PUSH2 0x3713 JUMP JUMPDEST PUSH1 0x40 MLOAD DUP1 SWAP2 SUB SWAP1 REVERT JUMPDEST PUSH1 0x6 PUSH0 DUP4 DUP2 MSTORE PUSH1 0x20 ADD SWAP1 DUP2 MSTORE PUSH1 0x20 ADD PUSH0 KECCAK256 PUSH0 SWAP1 SLOAD SWAP1 PUSH2 0x100 EXP SWAP1 DIV PUSH20 0xFFFFFFFFFFFFFFFFFFFFFFFFFFFFFFFFFFFFFFFF AND SWAP1 POP SWAP2 SWAP1 POP JUMP JUMPDEST PUSH0 PUSH2 0xA55 DUP3 PUSH2 0x1110 JUMP JUMPDEST SWAP1 POP DUP1 PUSH20 0xFFFFFFFFFFFFFFFFFFFFFFFFFFFFFFFFFFFFFFFF AND DUP4 PUSH20 0xFFFFFFFFFFFFFFFFFFFFFFFFFFFFFFFFFFFFFFFF AND SUB PUSH2 0xAC5 JUMPI PUSH1 0x40 MLOAD PUSH32 0x8C379A000000000000000000000000000000000000000000000000000000000 DUP2 MSTORE PUSH1 0x4 ADD PUSH2 0xABC SWAP1 PUSH2 0x37A1 JUMP JUMPDEST PUSH1 0x40 MLOAD DUP1 SWAP2 SUB SWAP1 REVERT JUMPDEST DUP1 PUSH20 0xFFFFFFFFFFFFFFFFFFFFFFFFFFFFFFFFFFFFFFFF AND PUSH2 0xAE4 PUSH2 0x1DC4 JUMP JUMPDEST PUSH20 0xFFFFFFFFFFFFFFFFFFFFFFFFFFFFFFFFFFFFFFFF AND EQ DUP1 PUSH2 0xB13 JUMPI POP PUSH2 0xB12 DUP2 PUSH2 0xB0D PUSH2 0x1DC4 JUMP JUMPDEST PUSH2 0x1B2E JUMP JUMPDEST JUMPDEST PUSH2 0xB52 JUMPI PUSH1 0x40 MLOAD PUSH32 0x8C379A000000000000000000000000000000000000000000000000000000000 DUP2 MSTORE PUSH1 0x4 ADD PUSH2 0xB49 SWAP1 PUSH2 0x382F JUMP JUMPDEST PUSH1 0x40 MLOAD DUP1 SWAP2 SUB SWAP1 REVERT JUMPDEST PUSH2 0xB5D DUP4 DUP4 DUP4 PUSH2 0x1DCB JUMP JUMPDEST POP POP POP JUMP JUMPDEST PUSH0 PUSH1 0x1 SLOAD SWAP1 POP SWAP1 JUMP JUMPDEST PUSH1 0x2 PUSH1 0x9 SLOAD SUB PUSH2 0xBB0 JUMPI PUSH1 0x40 MLOAD PUSH32 0x8C379A000000000000000000000000000000000000000000000000000000000 DUP2 MSTORE PUSH1 0x4 ADD PUSH2 0xBA7 SWAP1 PUSH2 0x3897 JUMP JUMPDEST PUSH1 0x40 MLOAD DUP1 SWAP2 SUB SWAP1 REVERT JUMPDEST PUSH1 0x2 PUSH1 0x9 DUP2 SWAP1 SSTORE POP PUSH0 PUSH1 0xF PUSH0 CALLER PUSH20 0xFFFFFFFFFFFFFFFFFFFFFFFFFFFFFFFFFFFFFFFF AND PUSH20 0xFFFFFFFFFFFFFFFFFFFFFFFFFFFFFFFFFFFFFFFF AND DUP2 MSTORE PUSH1 0x20 ADD SWAP1 DUP2 MSTORE PUSH1 0x20 ADD PUSH0 KECCAK256 SWAP1 POP DUP1 PUSH1 0x1 ADD SLOAD TIMESTAMP LT ISZERO PUSH2 0xC3F JUMPI PUSH1 0x40 MLOAD PUSH32 0x8C379A000000000000000000000000000000000000000000000000000000000 DUP2 MSTORE PUSH1 0x4 ADD PUSH2 0xC36 SWAP1 PUSH2 0x38FF JUMP JUMPDEST PUSH1 0x40 MLOAD DUP1 SWAP2 SUB SWAP1 REVERT JUMPDEST PUSH0 DUP2 PUSH0 ADD SLOAD GT PUSH2 0xC84 JUMPI PUSH1 0x40 MLOAD PUSH32 0x8C379A000000000000000000000000000000000000000000000000000000000 DUP2 MSTORE PUSH1 0x4 ADD PUSH2 0xC7B SWAP1 PUSH2 0x3967 JUMP JUMPDEST PUSH1 0x40 MLOAD DUP1 SWAP2 SUB SWAP1 REVERT JUMPDEST PUSH0 DUP2 PUSH0 ADD SLOAD SWAP1 POP PUSH1 0x10 SLOAD DUP2 GT ISZERO PUSH2 0xCD0 JUMPI PUSH1 0x40 MLOAD PUSH32 0x8C379A000000000000000000000000000000000000000000000000000000000 DUP2 MSTORE PUSH1 0x4 ADD PUSH2 0xCC7 SWAP1 PUSH2 0x39CF JUMP JUMPDEST PUSH1 0x40 MLOAD DUP1 SWAP2 SUB SWAP1 REVERT JUMPDEST PUSH0 DUP3 PUSH0 ADD DUP2 SWAP1 SSTORE POP DUP1 PUSH1 0x10 PUSH0 DUP3 DUP3 SLOAD PUSH2 0xCE9 SWAP2 SWAP1 PUSH2 0x3A1A JUMP JUMPDEST SWAP3 POP POP DUP2 SWAP1 SSTORE POP CALLER PUSH20 0xFFFFFFFFFFFFFFFFFFFFFFFFFFFFFFFFFFFFFFFF AND PUSH2 0x8FC DUP3 SWAP1 DUP2 ISZERO MUL SWAP1 PUSH1 0x40 MLOAD PUSH0 PUSH1 0x40 MLOAD DUP1 DUP4 SUB DUP2 DUP6 DUP9 DUP9 CALL SWAP4 POP POP POP POP ISZERO DUP1 ISZERO PUSH2 0xD33 JUMPI RETURNDATASIZE PUSH0 DUP1 RETURNDATACOPY RETURNDATASIZE PUSH0 REVERT JUMPDEST POP POP POP PUSH1 0x1 PUSH1 0x9 DUP2 SWAP1 SSTORE POP JUMP JUMPDEST PUSH2 0xD4B DUP4 DUP4 DUP4 PUSH2 0x1E7A JUMP JUMPDEST POP POP POP JUMP JUMPDEST PUSH0 PUSH2 0xD5A DUP4 PUSH2 0x1124 JUMP JUMPDEST DUP3 LT PUSH2 0xD9B JUMPI PUSH1 0x40 MLOAD PUSH32 0x8C379A000000000000000000000000000000000000000000000000000000000 DUP2 MSTORE PUSH1 0x4 ADD PUSH2 0xD92 SWAP1 PUSH2 0x3ABD JUMP JUMPDEST PUSH1 0x40 MLOAD DUP1 SWAP2 SUB SWAP1 REVERT JUMPDEST PUSH0 PUSH2 0xDA4 PUSH2 0xB62 JUMP JUMPDEST SWAP1 POP PUSH0 DUP1 PUSH0 JUMPDEST DUP4 DUP2 LT ISZERO PUSH2 0xEF7 JUMPI PUSH0 PUSH1 0x4 PUSH0 DUP4 DUP2 MSTORE PUSH1 0x20 ADD SWAP1 DUP2 MSTORE PUSH1 0x20 ADD PUSH0 KECCAK256 PUSH1 0x40 MLOAD DUP1 PUSH1 0x40 ADD PUSH1 0x40 MSTORE SWAP1 DUP2 PUSH0 DUP3 ADD PUSH0 SWAP1 SLOAD SWAP1 PUSH2 0x100 EXP SWAP1 DIV PUSH20 0xFFFFFFFFFFFFFFFFFFFFFFFFFFFFFFFFFFFFFFFF AND PUSH20 0xFFFFFFFFFFFFFFFFFFFFFFFFFFFFFFFFFFFFFFFF AND PUSH20 0xFFFFFFFFFFFFFFFFFFFFFFFFFFFFFFFFFFFFFFFF AND DUP2 MSTORE PUSH1 0x20 ADD PUSH0 DUP3 ADD PUSH1 0x14 SWAP1 SLOAD SWAP1 PUSH2 0x100 EXP SWAP1 DIV PUSH8 0xFFFFFFFFFFFFFFFF AND PUSH8 0xFFFFFFFFFFFFFFFF AND PUSH8 0xFFFFFFFFFFFFFFFF AND DUP2 MSTORE POP POP SWAP1 POP PUSH0 PUSH20 0xFFFFFFFFFFFFFFFFFFFFFFFFFFFFFFFFFFFFFFFF AND DUP2 PUSH0 ADD MLOAD PUSH20 0xFFFFFFFFFFFFFFFFFFFFFFFFFFFFFFFFFFFFFFFF AND EQ PUSH2 0xE93 JUMPI DUP1 PUSH0 ADD MLOAD SWAP3 POP JUMPDEST DUP8 PUSH20 0xFFFFFFFFFFFFFFFFFFFFFFFFFFFFFFFFFFFFFFFF AND DUP4 PUSH20 0xFFFFFFFFFFFFFFFFFFFFFFFFFFFFFFFFFFFFFFFF AND SUB PUSH2 0xEE9 JUMPI DUP7 DUP5 SUB PUSH2 0xEDA JUMPI DUP2 SWAP6 POP POP POP POP POP POP PUSH2 0xF33 JUMP JUMPDEST DUP4 DUP1 PUSH2 0xEE5 SWAP1 PUSH2 0x3ADB JUMP JUMPDEST SWAP5 POP POP JUMPDEST POP DUP1 DUP1 PUSH1 0x1 ADD SWAP2 POP POP PUSH2 0xDAA JUMP JUMPDEST POP PUSH1 0x40 MLOAD PUSH32 0x8C379A000000000000000000000000000000000000000000000000000000000 DUP2 MSTORE PUSH1 0x4 ADD PUSH2 0xF2A SWAP1 PUSH2 0x3B92 JUMP JUMPDEST PUSH1 0x40 MLOAD DUP1 SWAP2 SUB SWAP1 REVERT JUMPDEST SWAP3 SWAP2 POP POP JUMP JUMPDEST PUSH1 0xA PUSH0 SWAP1 SLOAD SWAP1 PUSH2 0x100 EXP SWAP1 DIV PUSH1 0xFF AND DUP2 JUMP JUMPDEST PUSH2 0xF53 PUSH2 0x1DC4 JUMP JUMPDEST PUSH20 0xFFFFFFFFFFFFFFFFFFFFFFFFFFFFFFFFFFFFFFFF AND PUSH2 0xF71 PUSH2 0x1301 JUMP JUMPDEST PUSH20 0xFFFFFFFFFFFFFFFFFFFFFFFFFFFFFFFFFFFFFFFF AND EQ PUSH2 0xFC7 JUMPI PUSH1 0x40 MLOAD PUSH32 0x8C379A000000000000000000000000000000000000000000000000000000000 DUP2 MSTORE PUSH1 0x4 ADD PUSH2 0xFBE SWAP1 PUSH2 0x3BFA JUMP JUMPDEST PUSH1 0x40 MLOAD DUP1 SWAP2 SUB SWAP1 REVERT JUMPDEST CALLER PUSH20 0xFFFFFFFFFFFFFFFFFFFFFFFFFFFFFFFFFFFFFFFF AND PUSH2 0x8FC SELFBALANCE SWAP1 DUP2 ISZERO MUL SWAP1 PUSH1 0x40 MLOAD PUSH0 PUSH1 0x40 MLOAD DUP1 DUP4 SUB DUP2 DUP6 DUP9 DUP9 CALL SWAP4 POP POP POP POP ISZERO DUP1 ISZERO PUSH2 0x100A JUMPI RETURNDATASIZE PUSH0 DUP1 RETURNDATACOPY RETURNDATASIZE PUSH0 REVERT JUMPDEST POP JUMP JUMPDEST PUSH2 0x1027 DUP4 DUP4 DUP4 PUSH1 0x40 MLOAD DUP1 PUSH1 0x20 ADD PUSH1 0x40 MSTORE DUP1 PUSH0 DUP2 MSTORE POP PUSH2 0x199C JUMP JUMPDEST POP POP POP JUMP JUMPDEST PUSH0 PUSH2 0x1035 PUSH2 0xB62 JUMP JUMPDEST DUP3 LT PUSH2 0x1076 JUMPI PUSH1 0x40 MLOAD PUSH32 0x8C379A000000000000000000000000000000000000000000000000000000000 DUP2 MSTORE PUSH1 0x4 ADD PUSH2 0x106D SWAP1 PUSH2 0x3C88 JUMP JUMPDEST PUSH1 0x40 MLOAD DUP1 SWAP2 SUB SWAP1 REVERT JUMPDEST DUP2 SWAP1 POP SWAP2 SWAP1 POP JUMP JUMPDEST PUSH2 0x1086 PUSH2 0x1DC4 JUMP JUMPDEST PUSH20 0xFFFFFFFFFFFFFFFFFFFFFFFFFFFFFFFFFFFFFFFF AND PUSH2 0x10A4 PUSH2 0x1301 JUMP JUMPDEST PUSH20 0xFFFFFFFFFFFFFFFFFFFFFFFFFFFFFFFFFFFFFFFF AND EQ PUSH2 0x10FA JUMPI PUSH1 0x40 MLOAD PUSH32 0x8C379A000000000000000000000000000000000000000000000000000000000 DUP2 MSTORE PUSH1 0x4 ADD PUSH2 0x10F1 SWAP1 PUSH2 0x3BFA JUMP JUMPDEST PUSH1 0x40 MLOAD DUP1 SWAP2 SUB SWAP1 REVERT JUMPDEST DUP2 DUP2 PUSH1 0xE SWAP2 DUP3 PUSH2 0x110B SWAP3 SWAP2 SWAP1 PUSH2 0x3E4D JUMP JUMPDEST POP POP POP JUMP JUMPDEST PUSH0 PUSH2 0x111A DUP3 PUSH2 0x240E JUMP JUMPDEST PUSH0 ADD MLOAD SWAP1 POP SWAP2 SWAP1 POP JUMP JUMPDEST PUSH0 DUP1 PUSH20 0xFFFFFFFFFFFFFFFFFFFFFFFFFFFFFFFFFFFFFFFF AND DUP3 PUSH20 0xFFFFFFFFFFFFFFFFFFFFFFFFFFFFFFFFFFFFFFFF AND SUB PUSH2 0x1193 JUMPI PUSH1 0x40 MLOAD PUSH32 0x8C379A000000000000000000000000000000000000000000000000000000000 DUP2 MSTORE PUSH1 0x4 ADD PUSH2 0x118A SWAP1 PUSH2 0x3F8A JUMP JUMPDEST PUSH1 0x40 MLOAD DUP1 SWAP2 SUB SWAP1 REVERT JUMPDEST PUSH1 0x5 PUSH0 DUP4 PUSH20 0xFFFFFFFFFFFFFFFFFFFFFFFFFFFFFFFFFFFFFFFF AND PUSH20 0xFFFFFFFFFFFFFFFFFFFFFFFFFFFFFFFFFFFFFFFF AND DUP2 MSTORE PUSH1 0x20 ADD SWAP1 DUP2 MSTORE PUSH1 0x20 ADD PUSH0 KECCAK256 PUSH0 ADD PUSH0 SWAP1 SLOAD SWAP1 PUSH2 0x100 EXP SWAP1 DIV PUSH16 0xFFFFFFFFFFFFFFFFFFFFFFFFFFFFFFFF AND PUSH16 0xFFFFFFFFFFFFFFFFFFFFFFFFFFFFFFFF AND SWAP1 POP SWAP2 SWAP1 POP JUMP JUMPDEST PUSH2 0x120F PUSH2 0x1DC4 JUMP JUMPDEST PUSH20 0xFFFFFFFFFFFFFFFFFFFFFFFFFFFFFFFFFFFFFFFF AND PUSH2 0x122D PUSH2 0x1301 JUMP JUMPDEST PUSH20 0xFFFFFFFFFFFFFFFFFFFFFFFFFFFFFFFFFFFFFFFF AND EQ PUSH2 0x1283 JUMPI PUSH1 0x40 MLOAD PUSH32 0x8C379A000000000000000000000000000000000000000000000000000000000 DUP2 MSTORE PUSH1 0x4 ADD PUSH2 0x127A SWAP1 PUSH2 0x3BFA JUMP JUMPDEST PUSH1 0x40 MLOAD DUP1 SWAP2 SUB SWAP1 REVERT JUMPDEST PUSH2 0x128C PUSH0 PUSH2 0x2607 JUMP JUMPDEST JUMP JUMPDEST PUSH0 DUP1 PUSH0 PUSH1 0xF PUSH0 DUP6 PUSH20 0xFFFFFFFFFFFFFFFFFFFFFFFFFFFFFFFFFFFFFFFF AND PUSH20 0xFFFFFFFFFFFFFFFFFFFFFFFFFFFFFFFFFFFFFFFF AND DUP2 MSTORE PUSH1 0x20 ADD SWAP1 DUP2 MSTORE PUSH1 0x20 ADD PUSH0 KECCAK256 PUSH1 0x40 MLOAD DUP1 PUSH1 0x40 ADD PUSH1 0x40 MSTORE SWAP1 DUP2 PUSH0 DUP3 ADD SLOAD DUP2 MSTORE PUSH1 0x20 ADD PUSH1 0x1 DUP3 ADD SLOAD DUP2 MSTORE POP POP SWAP1 POP DUP1 PUSH0 ADD MLOAD DUP2 PUSH1 0x20 ADD MLOAD SWAP3 POP SWAP3 POP POP SWAP2 POP SWAP2 JUMP JUMPDEST PUSH0 DUP1 PUSH0 SWAP1 SLOAD SWAP1 PUSH2 0x100 EXP SWAP1 DIV PUSH20 0xFFFFFFFFFFFFFFFFFFFFFFFFFFFFFFFFFFFFFFFF AND SWAP1 POP SWAP1 JUMP JUMPDEST PUSH1 0xF PUSH1 0x20 MSTORE DUP1 PUSH0 MSTORE PUSH1 0x40 PUSH0 KECCAK256 PUSH0 SWAP2 POP SWAP1 POP DUP1 PUSH0 ADD SLOAD SWAP1 DUP1 PUSH1 0x1 ADD SLOAD SWAP1 POP DUP3 JUMP JUMPDEST PUSH2 0x1350 PUSH2 0x1DC4 JUMP JUMPDEST PUSH20 0xFFFFFFFFFFFFFFFFFFFFFFFFFFFFFFFFFFFFFFFF AND PUSH2 0x136E PUSH2 0x1301 JUMP JUMPDEST PUSH20 0xFFFFFFFFFFFFFFFFFFFFFFFFFFFFFFFFFFFFFFFF AND EQ PUSH2 0x13C4 JUMPI PUSH1 0x40 MLOAD PUSH32 0x8C379A000000000000000000000000000000000000000000000000000000000 DUP2 MSTORE PUSH1 0x4 ADD PUSH2 0x13BB SWAP1 PUSH2 0x3BFA JUMP JUMPDEST PUSH1 0x40 MLOAD DUP1 SWAP2 SUB SWAP1 REVERT JUMPDEST DUP1 PUSH1 0xD DUP2 SWAP1 SSTORE POP POP JUMP JUMPDEST CALLER PUSH20 0xFFFFFFFFFFFFFFFFFFFFFFFFFFFFFFFFFFFFFFFF AND ORIGIN PUSH20 0xFFFFFFFFFFFFFFFFFFFFFFFFFFFFFFFFFFFFFFFF AND EQ PUSH2 0x143C JUMPI PUSH1 0x40 MLOAD PUSH32 0x8C379A000000000000000000000000000000000000000000000000000000000 DUP2 MSTORE PUSH1 0x4 ADD PUSH2 0x1433 SWAP1 PUSH2 0x3FF2 JUMP JUMPDEST PUSH1 0x40 MLOAD DUP1 SWAP2 SUB SWAP1 REVERT JUMPDEST PUSH1 0xA PUSH0 SWAP1 SLOAD SWAP1 PUSH2 0x100 EXP SWAP1 DIV PUSH1 0xFF AND PUSH2 0x148A JUMPI PUSH1 0x40 MLOAD PUSH32 0x8C379A000000000000000000000000000000000000000000000000000000000 DUP2 MSTORE PUSH1 0x4 ADD PUSH2 0x1481 SWAP1 PUSH2 0x405A JUMP JUMPDEST PUSH1 0x40 MLOAD DUP1 SWAP2 SUB SWAP1 REVERT JUMPDEST PUSH0 DUP3 GT PUSH2 0x14CC JUMPI PUSH1 0x40 MLOAD PUSH32 0x8C379A000000000000000000000000000000000000000000000000000000000 DUP2 MSTORE PUSH1 0x4 ADD PUSH2 0x14C3 SWAP1 PUSH2 0x40C2 JUMP JUMPDEST PUSH1 0x40 MLOAD DUP1 SWAP2 SUB SWAP1 REVERT JUMPDEST PUSH1 0xB SLOAD DUP3 GT ISZERO PUSH2 0x1511 JUMPI PUSH1 0x40 MLOAD PUSH32 0x8C379A000000000000000000000000000000000000000000000000000000000 DUP2 MSTORE PUSH1 0x4 ADD PUSH2 0x1508 SWAP1 PUSH2 0x412A JUMP JUMPDEST PUSH1 0x40 MLOAD DUP1 SWAP2 SUB SWAP1 REVERT JUMPDEST PUSH1 0xC SLOAD DUP3 PUSH2 0x151D PUSH2 0xB62 JUMP JUMPDEST PUSH2 0x1527 SWAP2 SWAP1 PUSH2 0x4148 JUMP JUMPDEST GT ISZERO PUSH2 0x1568 JUMPI PUSH1 0x40 MLOAD PUSH32 0x8C379A000000000000000000000000000000000000000000000000000000000 DUP2 MSTORE PUSH1 0x4 ADD PUSH2 0x155F SWAP1 PUSH2 0x41EB JUMP JUMPDEST PUSH1 0x40 MLOAD DUP1 SWAP2 SUB SWAP1 REVERT JUMPDEST DUP2 PUSH1 0xD SLOAD PUSH2 0x1576 SWAP2 SWAP1 PUSH2 0x4209 JUMP JUMPDEST CALLVALUE LT ISZERO DUP1 PUSH2 0x15B6 JUMPI POP PUSH2 0x1587 PUSH2 0x1301 JUMP JUMPDEST PUSH20 0xFFFFFFFFFFFFFFFFFFFFFFFFFFFFFFFFFFFFFFFF AND CALLER PUSH20 0xFFFFFFFFFFFFFFFFFFFFFFFFFFFFFFFFFFFFFFFF AND EQ JUMPDEST PUSH2 0x15F5 JUMPI PUSH1 0x40 MLOAD PUSH32 0x8C379A000000000000000000000000000000000000000000000000000000000 DUP2 MSTORE PUSH1 0x4 ADD PUSH2 0x15EC SWAP1 PUSH2 0x4294 JUMP JUMPDEST PUSH1 0x40 MLOAD DUP1 SWAP2 SUB SWAP1 REVERT JUMPDEST PUSH0 CALLVALUE SWAP1 POP PUSH0 PUSH1 0x64 PUSH1 0xF DUP4 PUSH2 0x1609 SWAP2 SWAP1 PUSH2 0x4209 JUMP JUMPDEST PUSH2 0x1613 SWAP2 SWAP1 PUSH2 0x42DF JUMP JUMPDEST SWAP1 POP DUP1 PUSH1 0xF PUSH0 DUP6 PUSH20 0xFFFFFFFFFFFFFFFFFFFFFFFFFFFFFFFFFFFFFFFF AND PUSH20 0xFFFFFFFFFFFFFFFFFFFFFFFFFFFFFFFFFFFFFFFF AND DUP2 MSTORE PUSH1 0x20 ADD SWAP1 DUP2 MSTORE PUSH1 0x20 ADD PUSH0 KECCAK256 PUSH0 ADD PUSH0 DUP3 DUP3 SLOAD PUSH2 0x1663 SWAP2 SWAP1 PUSH2 0x4148 JUMP JUMPDEST SWAP3 POP POP DUP2 SWAP1 SSTORE POP PUSH3 0x278D00 TIMESTAMP PUSH2 0x1679 SWAP2 SWAP1 PUSH2 0x4148 JUMP JUMPDEST PUSH1 0xF PUSH0 DUP6 PUSH20 0xFFFFFFFFFFFFFFFFFFFFFFFFFFFFFFFFFFFFFFFF AND PUSH20 0xFFFFFFFFFFFFFFFFFFFFFFFFFFFFFFFFFFFFFFFF AND DUP2 MSTORE PUSH1 0x20 ADD SWAP1 DUP2 MSTORE PUSH1 0x20 ADD PUSH0 KECCAK256 PUSH1 0x1 ADD DUP2 SWAP1 SSTORE POP DUP1 PUSH1 0x10 PUSH0 DUP3 DUP3 SLOAD PUSH2 0x16CE SWAP2 SWAP1 PUSH2 0x4148 JUMP JUMPDEST SWAP3 POP POP DUP2 SWAP1 SSTORE POP PUSH2 0x16DF DUP4 DUP6 PUSH2 0x26C8 JUMP JUMPDEST POP POP POP POP JUMP JUMPDEST PUSH1 0x60 PUSH1 0x3 DUP1 SLOAD PUSH2 0x16F4 SWAP1 PUSH2 0x3673 JUMP JUMPDEST DUP1 PUSH1 0x1F ADD PUSH1 0x20 DUP1 SWAP2 DIV MUL PUSH1 0x20 ADD PUSH1 0x40 MLOAD SWAP1 DUP2 ADD PUSH1 0x40 MSTORE DUP1 SWAP3 SWAP2 SWAP1 DUP2 DUP2 MSTORE PUSH1 0x20 ADD DUP3 DUP1 SLOAD PUSH2 0x1720 SWAP1 PUSH2 0x3673 JUMP JUMPDEST DUP1 ISZERO PUSH2 0x176B JUMPI DUP1 PUSH1 0x1F LT PUSH2 0x1742 JUMPI PUSH2 0x100 DUP1 DUP4 SLOAD DIV MUL DUP4 MSTORE SWAP2 PUSH1 0x20 ADD SWAP2 PUSH2 0x176B JUMP JUMPDEST DUP3 ADD SWAP2 SWAP1 PUSH0 MSTORE PUSH1 0x20 PUSH0 KECCAK256 SWAP1 JUMPDEST DUP2 SLOAD DUP2 MSTORE SWAP1 PUSH1 0x1 ADD SWAP1 PUSH1 0x20 ADD DUP1 DUP4 GT PUSH2 0x174E JUMPI DUP3 SWAP1 SUB PUSH1 0x1F AND DUP3 ADD SWAP2 JUMPDEST POP POP POP POP POP SWAP1 POP SWAP1 JUMP JUMPDEST PUSH1 0xD SLOAD DUP2 JUMP JUMPDEST PUSH2 0x1783 PUSH2 0x1DC4 JUMP JUMPDEST PUSH20 0xFFFFFFFFFFFFFFFFFFFFFFFFFFFFFFFFFFFFFFFF AND PUSH2 0x17A1 PUSH2 0x1301 JUMP JUMPDEST PUSH20 0xFFFFFFFFFFFFFFFFFFFFFFFFFFFFFFFFFFFFFFFF AND EQ PUSH2 0x17F7 JUMPI PUSH1 0x40 MLOAD PUSH32 0x8C379A000000000000000000000000000000000000000000000000000000000 DUP2 MSTORE PUSH1 0x4 ADD PUSH2 0x17EE SWAP1 PUSH2 0x3BFA JUMP JUMPDEST PUSH1 0x40 MLOAD DUP1 SWAP2 SUB SWAP1 REVERT JUMPDEST PUSH1 0xA PUSH0 SWAP1 SLOAD SWAP1 PUSH2 0x100 EXP SWAP1 DIV PUSH1 0xFF AND ISZERO PUSH1 0xA PUSH0 PUSH2 0x100 EXP DUP2 SLOAD DUP2 PUSH1 0xFF MUL NOT AND SWAP1 DUP4 ISZERO ISZERO MUL OR SWAP1 SSTORE POP JUMP JUMPDEST PUSH2 0x1829 PUSH2 0x1DC4 JUMP JUMPDEST PUSH20 0xFFFFFFFFFFFFFFFFFFFFFFFFFFFFFFFFFFFFFFFF AND DUP3 PUSH20 0xFFFFFFFFFFFFFFFFFFFFFFFFFFFFFFFFFFFFFFFF AND SUB PUSH2 0x1896 JUMPI PUSH1 0x40 MLOAD PUSH32 0x8C379A000000000000000000000000000000000000000000000000000000000 DUP2 MSTORE PUSH1 0x4 ADD PUSH2 0x188D SWAP1 PUSH2 0x4359 JUMP JUMPDEST PUSH1 0x40 MLOAD DUP1 SWAP2 SUB SWAP1 REVERT JUMPDEST DUP1 PUSH1 0x7 PUSH0 PUSH2 0x18A2 PUSH2 0x1DC4 JUMP JUMPDEST PUSH20 0xFFFFFFFFFFFFFFFFFFFFFFFFFFFFFFFFFFFFFFFF AND PUSH20 0xFFFFFFFFFFFFFFFFFFFFFFFFFFFFFFFFFFFFFFFF AND DUP2 MSTORE PUSH1 0x20 ADD SWAP1 DUP2 MSTORE PUSH1 0x20 ADD PUSH0 KECCAK256 PUSH0 DUP5 PUSH20 0xFFFFFFFFFFFFFFFFFFFFFFFFFFFFFFFFFFFFFFFF AND PUSH20 0xFFFFFFFFFFFFFFFFFFFFFFFFFFFFFFFFFFFFFFFF AND DUP2 MSTORE PUSH1 0x20 ADD SWAP1 DUP2 MSTORE PUSH1 0x20 ADD PUSH0 KECCAK256 PUSH0 PUSH2 0x100 EXP DUP2 SLOAD DUP2 PUSH1 0xFF MUL NOT AND SWAP1 DUP4 ISZERO ISZERO MUL OR SWAP1 SSTORE POP DUP2 PUSH20 0xFFFFFFFFFFFFFFFFFFFFFFFFFFFFFFFFFFFFFFFF AND PUSH2 0x194B PUSH2 0x1DC4 JUMP JUMPDEST PUSH20 0xFFFFFFFFFFFFFFFFFFFFFFFFFFFFFFFFFFFFFFFF AND PUSH32 0x17307EAB39AB6107E8899845AD3D59BD9653F200F220920489CA2B5937696C31 DUP4 PUSH1 0x40 MLOAD PUSH2 0x1990 SWAP2 SWAP1 PUSH2 0x301F JUMP JUMPDEST PUSH1 0x40 MLOAD DUP1 SWAP2 SUB SWAP1 LOG3 POP POP JUMP JUMPDEST PUSH2 0x19A7 DUP5 DUP5 DUP5 PUSH2 0x1E7A JUMP JUMPDEST PUSH2 0x19B3 DUP5 DUP5 DUP5 DUP5 PUSH2 0x26E5 JUMP JUMPDEST PUSH2 0x19F2 JUMPI PUSH1 0x40 MLOAD PUSH32 0x8C379A000000000000000000000000000000000000000000000000000000000 DUP2 MSTORE PUSH1 0x4 ADD PUSH2 0x19E9 SWAP1 PUSH2 0x43E7 JUMP JUMPDEST PUSH1 0x40 MLOAD DUP1 SWAP2 SUB SWAP1 REVERT JUMPDEST POP POP POP POP JUMP JUMPDEST PUSH1 0x60 PUSH2 0x1A03 DUP3 PUSH2 0x1DB7 JUMP JUMPDEST PUSH2 0x1A42 JUMPI PUSH1 0x40 MLOAD PUSH32 0x8C379A000000000000000000000000000000000000000000000000000000000 DUP2 MSTORE PUSH1 0x4 ADD PUSH2 0x1A39 SWAP1 PUSH2 0x4475 JUMP JUMPDEST PUSH1 0x40 MLOAD DUP1 SWAP2 SUB SWAP1 REVERT JUMPDEST PUSH0 PUSH2 0x1A4B PUSH2 0x2867 JUMP JUMPDEST SWAP1 POP PUSH0 DUP2 MLOAD GT PUSH2 0x1A69 JUMPI PUSH1 0x40 MLOAD DUP1 PUSH1 0x20 ADD PUSH1 0x40 MSTORE DUP1 PUSH0 DUP2 MSTORE POP PUSH2 0x1A94 JUMP JUMPDEST DUP1 PUSH2 0x1A73 DUP5 PUSH2 0x28F7 JUMP JUMPDEST PUSH1 0x40 MLOAD PUSH1 0x20 ADD PUSH2 0x1A84 SWAP3 SWAP2 SWAP1 PUSH2 0x44CD JUMP JUMPDEST PUSH1 0x40 MLOAD PUSH1 0x20 DUP2 DUP4 SUB SUB DUP2 MSTORE SWAP1 PUSH1 0x40 MSTORE JUMPDEST SWAP2 POP POP SWAP2 SWAP1 POP JUMP JUMPDEST PUSH1 0xC SLOAD DUP2 JUMP JUMPDEST PUSH1 0x8 SLOAD DUP2 JUMP JUMPDEST PUSH2 0x1AB0 PUSH2 0x1DC4 JUMP JUMPDEST PUSH20 0xFFFFFFFFFFFFFFFFFFFFFFFFFFFFFFFFFFFFFFFF AND PUSH2 0x1ACE PUSH2 0x1301 JUMP JUMPDEST PUSH20 0xFFFFFFFFFFFFFFFFFFFFFFFFFFFFFFFFFFFFFFFF AND EQ PUSH2 0x1B24 JUMPI PUSH1 0x40 MLOAD PUSH32 0x8C379A000000000000000000000000000000000000000000000000000000000 DUP2 MSTORE PUSH1 0x4 ADD PUSH2 0x1B1B SWAP1 PUSH2 0x3BFA JUMP JUMPDEST PUSH1 0x40 MLOAD DUP1 SWAP2 SUB SWAP1 REVERT JUMPDEST DUP1 PUSH1 0x11 DUP2 SWAP1 SSTORE POP POP JUMP JUMPDEST PUSH0 PUSH1 0x7 PUSH0 DUP5 PUSH20 0xFFFFFFFFFFFFFFFFFFFFFFFFFFFFFFFFFFFFFFFF AND PUSH20 0xFFFFFFFFFFFFFFFFFFFFFFFFFFFFFFFFFFFFFFFF AND DUP2 MSTORE PUSH1 0x20 ADD SWAP1 DUP2 MSTORE PUSH1 0x20 ADD PUSH0 KECCAK256 PUSH0 DUP4 PUSH20 0xFFFFFFFFFFFFFFFFFFFFFFFFFFFFFFFFFFFFFFFF AND PUSH20 0xFFFFFFFFFFFFFFFFFFFFFFFFFFFFFFFFFFFFFFFF AND DUP2 MSTORE PUSH1 0x20 ADD SWAP1 DUP2 MSTORE PUSH1 0x20 ADD PUSH0 KECCAK256 PUSH0 SWAP1 SLOAD SWAP1 PUSH2 0x100 EXP SWAP1 DIV PUSH1 0xFF AND SWAP1 POP SWAP3 SWAP2 POP POP JUMP JUMPDEST PUSH2 0x1BC4 PUSH2 0x1DC4 JUMP JUMPDEST PUSH20 0xFFFFFFFFFFFFFFFFFFFFFFFFFFFFFFFFFFFFFFFF AND PUSH2 0x1BE2 PUSH2 0x1301 JUMP JUMPDEST PUSH20 0xFFFFFFFFFFFFFFFFFFFFFFFFFFFFFFFFFFFFFFFF AND EQ PUSH2 0x1C38 JUMPI PUSH1 0x40 MLOAD PUSH32 0x8C379A000000000000000000000000000000000000000000000000000000000 DUP2 MSTORE PUSH1 0x4 ADD PUSH2 0x1C2F SWAP1 PUSH2 0x3BFA JUMP JUMPDEST PUSH1 0x40 MLOAD DUP1 SWAP2 SUB SWAP1 REVERT JUMPDEST CALLVALUE PUSH1 0x10 PUSH0 DUP3 DUP3 SLOAD PUSH2 0x1C49 SWAP2 SWAP1 PUSH2 0x4148 JUMP JUMPDEST SWAP3 POP POP DUP2 SWAP1 SSTORE POP JUMP JUMPDEST PUSH2 0x1C5A PUSH2 0x1DC4 JUMP JUMPDEST PUSH20 0xFFFFFFFFFFFFFFFFFFFFFFFFFFFFFFFFFFFFFFFF AND PUSH2 0x1C78 PUSH2 0x1301 JUMP JUMPDEST PUSH20 0xFFFFFFFFFFFFFFFFFFFFFFFFFFFFFFFFFFFFFFFF AND EQ PUSH2 0x1CCE JUMPI PUSH1 0x40 MLOAD PUSH32 0x8C379A000000000000000000000000000000000000000000000000000000000 DUP2 MSTORE PUSH1 0x4 ADD PUSH2 0x1CC5 SWAP1 PUSH2 0x3BFA JUMP JUMPDEST PUSH1 0x40 MLOAD DUP1 SWAP2 SUB SWAP1 REVERT JUMPDEST PUSH0 PUSH20 0xFFFFFFFFFFFFFFFFFFFFFFFFFFFFFFFFFFFFFFFF AND DUP2 PUSH20 0xFFFFFFFFFFFFFFFFFFFFFFFFFFFFFFFFFFFFFFFF AND SUB PUSH2 0x1D3C JUMPI PUSH1 0x40 MLOAD PUSH32 0x8C379A000000000000000000000000000000000000000000000000000000000 DUP2 MSTORE PUSH1 0x4 ADD PUSH2 0x1D33 SWAP1 PUSH2 0x4560 JUMP JUMPDEST PUSH1 0x40 MLOAD DUP1 SWAP2 SUB SWAP1 REVERT JUMPDEST PUSH2 0x1D45 DUP2 PUSH2 0x2607 JUMP JUMPDEST POP JUMP JUMPDEST PUSH1 0xB SLOAD DUP2 JUMP JUMPDEST PUSH0 PUSH32 0x1FFC9A700000000000000000000000000000000000000000000000000000000 PUSH28 0xFFFFFFFFFFFFFFFFFFFFFFFFFFFFFFFFFFFFFFFFFFFFFFFFFFFFFFFF NOT AND DUP3 PUSH28 0xFFFFFFFFFFFFFFFFFFFFFFFFFFFFFFFFFFFFFFFFFFFFFFFFFFFFFFFF NOT AND EQ SWAP1 POP SWAP2 SWAP1 POP JUMP JUMPDEST PUSH0 PUSH1 0x1 SLOAD DUP3 LT SWAP1 POP SWAP2 SWAP1 POP JUMP JUMPDEST PUSH0 CALLER SWAP1 POP SWAP1 JUMP JUMPDEST DUP3 PUSH1 0x6 PUSH0 DUP5 DUP2 MSTORE PUSH1 0x20 ADD SWAP1 DUP2 MSTORE PUSH1 0x20 ADD PUSH0 KECCAK256 PUSH0 PUSH2 0x100 EXP DUP2 SLOAD DUP2 PUSH20 0xFFFFFFFFFFFFFFFFFFFFFFFFFFFFFFFFFFFFFFFF MUL NOT AND SWAP1 DUP4 PUSH20 0xFFFFFFFFFFFFFFFFFFFFFFFFFFFFFFFFFFFFFFFF AND MUL OR SWAP1 SSTORE POP DUP2 DUP4 PUSH20 0xFFFFFFFFFFFFFFFFFFFFFFFFFFFFFFFFFFFFFFFF AND DUP3 PUSH20 0xFFFFFFFFFFFFFFFFFFFFFFFFFFFFFFFFFFFFFFFF AND PUSH32 0x8C5BE1E5EBEC7D5BD14F71427D1E84F3DD0314C0F7B2291E5B200AC8C7C3B925 PUSH1 0x40 MLOAD PUSH1 0x40 MLOAD DUP1 SWAP2 SUB SWAP1 LOG4 POP POP POP JUMP JUMPDEST PUSH0 PUSH2 0x1E84 DUP3 PUSH2 0x240E JUMP JUMPDEST SWAP1 POP PUSH0 DUP2 PUSH0 ADD MLOAD PUSH20 0xFFFFFFFFFFFFFFFFFFFFFFFFFFFFFFFFFFFFFFFF AND PUSH2 0x1EA9 PUSH2 0x1DC4 JUMP JUMPDEST PUSH20 0xFFFFFFFFFFFFFFFFFFFFFFFFFFFFFFFFFFFFFFFF AND EQ DUP1 PUSH2 0x1F05 JUMPI POP PUSH2 0x1ECE PUSH2 0x1DC4 JUMP JUMPDEST PUSH20 0xFFFFFFFFFFFFFFFFFFFFFFFFFFFFFFFFFFFFFFFF AND PUSH2 0x1EED DUP5 PUSH2 0x9CA JUMP JUMPDEST PUSH20 0xFFFFFFFFFFFFFFFFFFFFFFFFFFFFFFFFFFFFFFFF AND EQ JUMPDEST DUP1 PUSH2 0x1F20 JUMPI POP PUSH2 0x1F1F DUP3 PUSH0 ADD MLOAD PUSH2 0x1F1A PUSH2 0x1DC4 JUMP JUMPDEST PUSH2 0x1B2E JUMP JUMPDEST JUMPDEST SWAP1 POP DUP1 PUSH2 0x1F62 JUMPI PUSH1 0x40 MLOAD PUSH32 0x8C379A000000000000000000000000000000000000000000000000000000000 DUP2 MSTORE PUSH1 0x4 ADD PUSH2 0x1F59 SWAP1 PUSH2 0x45EE JUMP JUMPDEST PUSH1 0x40 MLOAD DUP1 SWAP2 SUB SWAP1 REVERT JUMPDEST DUP5 PUSH20 0xFFFFFFFFFFFFFFFFFFFFFFFFFFFFFFFFFFFFFFFF AND DUP3 PUSH0 ADD MLOAD PUSH20 0xFFFFFFFFFFFFFFFFFFFFFFFFFFFFFFFFFFFFFFFF AND EQ PUSH2 0x1FD3 JUMPI PUSH1 0x40 MLOAD PUSH32 0x8C379A000000000000000000000000000000000000000000000000000000000 DUP2 MSTORE PUSH1 0x4 ADD PUSH2 0x1FCA SWAP1 PUSH2 0x467C JUMP JUMPDEST PUSH1 0x40 MLOAD DUP1 SWAP2 SUB SWAP1 REVERT JUMPDEST PUSH0 PUSH20 0xFFFFFFFFFFFFFFFFFFFFFFFFFFFFFFFFFFFFFFFF AND DUP5 PUSH20 0xFFFFFFFFFFFFFFFFFFFFFFFFFFFFFFFFFFFFFFFF AND SUB PUSH2 0x2041 JUMPI PUSH1 0x40 MLOAD PUSH32 0x8C379A000000000000000000000000000000000000000000000000000000000 DUP2 MSTORE PUSH1 0x4 ADD PUSH2 0x2038 SWAP1 PUSH2 0x470A JUMP JUMPDEST PUSH1 0x40 MLOAD DUP1 SWAP2 SUB SWAP1 REVERT JUMPDEST PUSH2 0x204E DUP6 DUP6 DUP6 PUSH1 0x1 PUSH2 0x2A50 JUMP JUMPDEST PUSH2 0x205C PUSH0 DUP5 DUP5 PUSH0 ADD MLOAD PUSH2 0x1DCB JUMP JUMPDEST PUSH1 0x1 PUSH1 0x5 PUSH0 DUP8 PUSH20 0xFFFFFFFFFFFFFFFFFFFFFFFFFFFFFFFFFFFFFFFF AND PUSH20 0xFFFFFFFFFFFFFFFFFFFFFFFFFFFFFFFFFFFFFFFF AND DUP2 MSTORE PUSH1 0x20 ADD SWAP1 DUP2 MSTORE PUSH1 0x20 ADD PUSH0 KECCAK256 PUSH0 ADD PUSH0 DUP3 DUP3 DUP3 SWAP1 SLOAD SWAP1 PUSH2 0x100 EXP SWAP1 DIV PUSH16 0xFFFFFFFFFFFFFFFFFFFFFFFFFFFFFFFF AND PUSH2 0x20C6 SWAP2 SWAP1 PUSH2 0x4743 JUMP JUMPDEST SWAP3 POP PUSH2 0x100 EXP DUP2 SLOAD DUP2 PUSH16 0xFFFFFFFFFFFFFFFFFFFFFFFFFFFFFFFF MUL NOT AND SWAP1 DUP4 PUSH16 0xFFFFFFFFFFFFFFFFFFFFFFFFFFFFFFFF AND MUL OR SWAP1 SSTORE POP PUSH1 0x1 PUSH1 0x5 PUSH0 DUP7 PUSH20 0xFFFFFFFFFFFFFFFFFFFFFFFFFFFFFFFFFFFFFFFF AND PUSH20 0xFFFFFFFFFFFFFFFFFFFFFFFFFFFFFFFFFFFFFFFF AND DUP2 MSTORE PUSH1 0x20 ADD SWAP1 DUP2 MSTORE PUSH1 0x20 ADD PUSH0 KECCAK256 PUSH0 ADD PUSH0 DUP3 DUP3 DUP3 SWAP1 SLOAD SWAP1 PUSH2 0x100 EXP SWAP1 DIV PUSH16 0xFFFFFFFFFFFFFFFFFFFFFFFFFFFFFFFF AND PUSH2 0x2166 SWAP2 SWAP1 PUSH2 0x4786 JUMP JUMPDEST SWAP3 POP PUSH2 0x100 EXP DUP2 SLOAD DUP2 PUSH16 0xFFFFFFFFFFFFFFFFFFFFFFFFFFFFFFFF MUL NOT AND SWAP1 DUP4 PUSH16 0xFFFFFFFFFFFFFFFFFFFFFFFFFFFFFFFF AND MUL OR SWAP1 SSTORE POP PUSH1 0x40 MLOAD DUP1 PUSH1 0x40 ADD PUSH1 0x40 MSTORE DUP1 DUP6 PUSH20 0xFFFFFFFFFFFFFFFFFFFFFFFFFFFFFFFFFFFFFFFF AND DUP2 MSTORE PUSH1 0x20 ADD TIMESTAMP PUSH8 0xFFFFFFFFFFFFFFFF AND DUP2 MSTORE POP PUSH1 0x4 PUSH0 DUP6 DUP2 MSTORE PUSH1 0x20 ADD SWAP1 DUP2 MSTORE PUSH1 0x20 ADD PUSH0 KECCAK256 PUSH0 DUP3 ADD MLOAD DUP2 PUSH0 ADD PUSH0 PUSH2 0x100 EXP DUP2 SLOAD DUP2 PUSH20 0xFFFFFFFFFFFFFFFFFFFFFFFFFFFFFFFFFFFFFFFF MUL NOT AND SWAP1 DUP4 PUSH20 0xFFFFFFFFFFFFFFFFFFFFFFFFFFFFFFFFFFFFFFFF AND MUL OR SWAP1 SSTORE POP PUSH1 0x20 DUP3 ADD MLOAD DUP2 PUSH0 ADD PUSH1 0x14 PUSH2 0x100 EXP DUP2 SLOAD DUP2 PUSH8 0xFFFFFFFFFFFFFFFF MUL NOT AND SWAP1 DUP4 PUSH8 0xFFFFFFFFFFFFFFFF AND MUL OR SWAP1 SSTORE POP SWAP1 POP POP PUSH0 PUSH1 0x1 DUP5 PUSH2 0x2265 SWAP2 SWAP1 PUSH2 0x4148 JUMP JUMPDEST SWAP1 POP PUSH0 PUSH20 0xFFFFFFFFFFFFFFFFFFFFFFFFFFFFFFFFFFFFFFFF AND PUSH1 0x4 PUSH0 DUP4 DUP2 MSTORE PUSH1 0x20 ADD SWAP1 DUP2 MSTORE PUSH1 0x20 ADD PUSH0 KECCAK256 PUSH0 ADD PUSH0 SWAP1 SLOAD SWAP1 PUSH2 0x100 EXP SWAP1 DIV PUSH20 0xFFFFFFFFFFFFFFFFFFFFFFFFFFFFFFFFFFFFFFFF AND PUSH20 0xFFFFFFFFFFFFFFFFFFFFFFFFFFFFFFFFFFFFFFFF AND SUB PUSH2 0x239E JUMPI PUSH2 0x22D5 DUP2 PUSH2 0x1DB7 JUMP JUMPDEST ISZERO PUSH2 0x239D JUMPI PUSH1 0x40 MLOAD DUP1 PUSH1 0x40 ADD PUSH1 0x40 MSTORE DUP1 DUP5 PUSH0 ADD MLOAD PUSH20 0xFFFFFFFFFFFFFFFFFFFFFFFFFFFFFFFFFFFFFFFF AND DUP2 MSTORE PUSH1 0x20 ADD DUP5 PUSH1 0x20 ADD MLOAD PUSH8 0xFFFFFFFFFFFFFFFF AND DUP2 MSTORE POP PUSH1 0x4 PUSH0 DUP4 DUP2 MSTORE PUSH1 0x20 ADD SWAP1 DUP2 MSTORE PUSH1 0x20 ADD PUSH0 KECCAK256 PUSH0 DUP3 ADD MLOAD DUP2 PUSH0 ADD PUSH0 PUSH2 0x100 EXP DUP2 SLOAD DUP2 PUSH20 0xFFFFFFFFFFFFFFFFFFFFFFFFFFFFFFFFFFFFFFFF MUL NOT AND SWAP1 DUP4 PUSH20 0xFFFFFFFFFFFFFFFFFFFFFFFFFFFFFFFFFFFFFFFF AND MUL OR SWAP1 SSTORE POP PUSH1 0x20 DUP3 ADD MLOAD DUP2 PUSH0 ADD PUSH1 0x14 PUSH2 0x100 EXP DUP2 SLOAD DUP2 PUSH8 0xFFFFFFFFFFFFFFFF MUL NOT AND SWAP1 DUP4 PUSH8 0xFFFFFFFFFFFFFFFF AND MUL OR SWAP1 SSTORE POP SWAP1 POP POP JUMPDEST JUMPDEST DUP4 DUP6 PUSH20 0xFFFFFFFFFFFFFFFFFFFFFFFFFFFFFFFFFFFFFFFF AND DUP8 PUSH20 0xFFFFFFFFFFFFFFFFFFFFFFFFFFFFFFFFFFFFFFFF AND PUSH32 0xDDF252AD1BE2C89B69C2B068FC378DAA952BA7F163C4A11628F55A4DF523B3EF PUSH1 0x40 MLOAD PUSH1 0x40 MLOAD DUP1 SWAP2 SUB SWAP1 LOG4 PUSH2 0x2406 DUP7 DUP7 DUP7 PUSH1 0x1 PUSH2 0x2A56 JUMP JUMPDEST POP POP POP POP POP POP JUMP JUMPDEST PUSH2 0x2416 PUSH2 0x2F3C JUMP JUMPDEST PUSH2 0x241F DUP3 PUSH2 0x1DB7 JUMP JUMPDEST PUSH2 0x245E JUMPI PUSH1 0x40 MLOAD PUSH32 0x8C379A000000000000000000000000000000000000000000000000000000000 DUP2 MSTORE PUSH1 0x4 ADD PUSH2 0x2455 SWAP1 PUSH2 0x4839 JUMP JUMPDEST PUSH1 0x40 MLOAD DUP1 SWAP2 SUB SWAP1 REVERT JUMPDEST PUSH0 PUSH32 0x0 DUP4 LT PUSH2 0x24C1 JUMPI PUSH1 0x1 PUSH32 0x0 DUP5 PUSH2 0x24B4 SWAP2 SWAP1 PUSH2 0x3A1A JUMP JUMPDEST PUSH2 0x24BE SWAP2 SWAP1 PUSH2 0x4148 JUMP JUMPDEST SWAP1 POP JUMPDEST PUSH0 DUP4 SWAP1 POP JUMPDEST DUP2 DUP2 LT PUSH2 0x25C6 JUMPI PUSH0 PUSH1 0x4 PUSH0 DUP4 DUP2 MSTORE PUSH1 0x20 ADD SWAP1 DUP2 MSTORE PUSH1 0x20 ADD PUSH0 KECCAK256 PUSH1 0x40 MLOAD DUP1 PUSH1 0x40 ADD PUSH1 0x40 MSTORE SWAP1 DUP2 PUSH0 DUP3 ADD PUSH0 SWAP1 SLOAD SWAP1 PUSH2 0x100 EXP SWAP1 DIV PUSH20 0xFFFFFFFFFFFFFFFFFFFFFFFFFFFFFFFFFFFFFFFF AND PUSH20 0xFFFFFFFFFFFFFFFFFFFFFFFFFFFFFFFFFFFFFFFF AND PUSH20 0xFFFFFFFFFFFFFFFFFFFFFFFFFFFFFFFFFFFFFFFF AND DUP2 MSTORE PUSH1 0x20 ADD PUSH0 DUP3 ADD PUSH1 0x14 SWAP1 SLOAD SWAP1 PUSH2 0x100 EXP SWAP1 DIV PUSH8 0xFFFFFFFFFFFFFFFF AND PUSH8 0xFFFFFFFFFFFFFFFF AND PUSH8 0xFFFFFFFFFFFFFFFF AND DUP2 MSTORE POP POP SWAP1 POP PUSH0 PUSH20 0xFFFFFFFFFFFFFFFFFFFFFFFFFFFFFFFFFFFFFFFF AND DUP2 PUSH0 ADD MLOAD PUSH20 0xFFFFFFFFFFFFFFFFFFFFFFFFFFFFFFFFFFFFFFFF AND EQ PUSH2 0x25B2 JUMPI DUP1 SWAP4 POP POP POP POP PUSH2 0x2602 JUMP JUMPDEST POP DUP1 DUP1 PUSH2 0x25BE SWAP1 PUSH2 0x4857 JUMP JUMPDEST SWAP2 POP POP PUSH2 0x24C6 JUMP JUMPDEST POP PUSH1 0x40 MLOAD PUSH32 0x8C379A000000000000000000000000000000000000000000000000000000000 DUP2 MSTORE PUSH1 0x4 ADD PUSH2 0x25F9 SWAP1 PUSH2 0x48EE JUMP JUMPDEST PUSH1 0x40 MLOAD DUP1 SWAP2 SUB SWAP1 REVERT JUMPDEST SWAP2 SWAP1 POP JUMP JUMPDEST PUSH0 DUP1 PUSH0 SWAP1 SLOAD SWAP1 PUSH2 0x100 EXP SWAP1 DIV PUSH20 0xFFFFFFFFFFFFFFFFFFFFFFFFFFFFFFFFFFFFFFFF AND SWAP1 POP DUP2 PUSH0 DUP1 PUSH2 0x100 EXP DUP2 SLOAD DUP2 PUSH20 0xFFFFFFFFFFFFFFFFFFFFFFFFFFFFFFFFFFFFFFFF MUL NOT AND SWAP1 DUP4 PUSH20 0xFFFFFFFFFFFFFFFFFFFFFFFFFFFFFFFFFFFFFFFF AND MUL OR SWAP1 SSTORE POP DUP2 PUSH20 0xFFFFFFFFFFFFFFFFFFFFFFFFFFFFFFFFFFFFFFFF AND DUP2 PUSH20 0xFFFFFFFFFFFFFFFFFFFFFFFFFFFFFFFFFFFFFFFF AND PUSH32 0x8BE0079C531659141344CD1FD0A4F28419497F9722A3DAAFE3B4186F6B6457E0 PUSH1 0x40 MLOAD PUSH1 0x40 MLOAD DUP1 SWAP2 SUB SWAP1 LOG3 POP POP JUMP JUMPDEST PUSH2 0x26E1 DUP3 DUP3 PUSH1 0x40 MLOAD DUP1 PUSH1 0x20 ADD PUSH1 0x40 MSTORE DUP1 PUSH0 DUP2 MSTORE POP PUSH2 0x2A5C JUMP JUMPDEST POP POP JUMP JUMPDEST PUSH0 PUSH2 0x2705 DUP5 PUSH20 0xFFFFFFFFFFFFFFFFFFFFFFFFFFFFFFFFFFFFFFFF AND PUSH2 0x2F1A JUMP JUMPDEST ISZERO PUSH2 0x285A JUMPI DUP4 PUSH20 0xFFFFFFFFFFFFFFFFFFFFFFFFFFFFFFFFFFFFFFFF AND PUSH4 0x150B7A02 PUSH2 0x272E PUSH2 0x1DC4 JUMP JUMPDEST DUP8 DUP7 DUP7 PUSH1 0x40 MLOAD DUP6 PUSH4 0xFFFFFFFF AND PUSH1 0xE0 SHL DUP2 MSTORE PUSH1 0x4 ADD PUSH2 0x2750 SWAP5 SWAP4 SWAP3 SWAP2 SWAP1 PUSH2 0x495E JUMP JUMPDEST PUSH1 0x20 PUSH1 0x40 MLOAD DUP1 DUP4 SUB DUP2 PUSH0 DUP8 GAS CALL SWAP3 POP POP POP DUP1 ISZERO PUSH2 0x278B JUMPI POP PUSH1 0x40 MLOAD RETURNDATASIZE PUSH1 0x1F NOT PUSH1 0x1F DUP3 ADD AND DUP3 ADD DUP1 PUSH1 0x40 MSTORE POP DUP2 ADD SWAP1 PUSH2 0x2788 SWAP2 SWAP1 PUSH2 0x49BC JUMP JUMPDEST PUSH1 0x1 JUMPDEST PUSH2 0x280A JUMPI RETURNDATASIZE DUP1 PUSH0 DUP2 EQ PUSH2 0x27B9 JUMPI PUSH1 0x40 MLOAD SWAP2 POP PUSH1 0x1F NOT PUSH1 0x3F RETURNDATASIZE ADD AND DUP3 ADD PUSH1 0x40 MSTORE RETURNDATASIZE DUP3 MSTORE RETURNDATASIZE PUSH0 PUSH1 0x20 DUP5 ADD RETURNDATACOPY PUSH2 0x27BE JUMP JUMPDEST PUSH1 0x60 SWAP2 POP JUMPDEST POP PUSH0 DUP2 MLOAD SUB PUSH2 0x2802 JUMPI PUSH1 0x40 MLOAD PUSH32 0x8C379A000000000000000000000000000000000000000000000000000000000 DUP2 MSTORE PUSH1 0x4 ADD PUSH2 0x27F9 SWAP1 PUSH2 0x43E7 JUMP JUMPDEST PUSH1 0x40 MLOAD DUP1 SWAP2 SUB SWAP1 REVERT JUMPDEST DUP1 MLOAD DUP2 PUSH1 0x20 ADD REVERT JUMPDEST PUSH4 0x150B7A02 PUSH1 0xE0 SHL PUSH28 0xFFFFFFFFFFFFFFFFFFFFFFFFFFFFFFFFFFFFFFFFFFFFFFFFFFFFFFFF NOT AND DUP2 PUSH28 0xFFFFFFFFFFFFFFFFFFFFFFFFFFFFFFFFFFFFFFFFFFFFFFFFFFFFFFFF NOT AND EQ SWAP2 POP POP PUSH2 0x285F JUMP JUMPDEST PUSH1 0x1 SWAP1 POP JUMPDEST SWAP5 SWAP4 POP POP POP POP JUMP JUMPDEST PUSH1 0x60 PUSH1 0xE DUP1 SLOAD PUSH2 0x2876 SWAP1 PUSH2 0x3673 JUMP JUMPDEST DUP1 PUSH1 0x1F ADD PUSH1 0x20 DUP1 SWAP2 DIV MUL PUSH1 0x20 ADD PUSH1 0x40 MLOAD SWAP1 DUP2 ADD PUSH1 0x40 MSTORE DUP1 SWAP3 SWAP2 SWAP1 DUP2 DUP2 MSTORE PUSH1 0x20 ADD DUP3 DUP1 SLOAD PUSH2 0x28A2 SWAP1 PUSH2 0x3673 JUMP JUMPDEST DUP1 ISZERO PUSH2 0x28ED JUMPI DUP1 PUSH1 0x1F LT PUSH2 0x28C4 JUMPI PUSH2 0x100 DUP1 DUP4 SLOAD DIV MUL DUP4 MSTORE SWAP2 PUSH1 0x20 ADD SWAP2 PUSH2 0x28ED JUMP JUMPDEST DUP3 ADD SWAP2 SWAP1 PUSH0 MSTORE PUSH1 0x20 PUSH0 KECCAK256 SWAP1 JUMPDEST DUP2 SLOAD DUP2 MSTORE SWAP1 PUSH1 0x1 ADD SWAP1 PUSH1 0x20 ADD DUP1 DUP4 GT PUSH2 0x28D0 JUMPI DUP3 SWAP1 SUB PUSH1 0x1F AND DUP3 ADD SWAP2 JUMPDEST POP POP POP POP POP SWAP1 POP SWAP1 JUMP JUMPDEST PUSH1 0x60 PUSH0 DUP3 SUB PUSH2 0x293D JUMPI PUSH1 0x40 MLOAD DUP1 PUSH1 0x40 ADD PUSH1 0x40 MSTORE DUP1 PUSH1 0x1 DUP2 MSTORE PUSH1 0x20 ADD PUSH32 0x3000000000000000000000000000000000000000000000000000000000000000 DUP2 MSTORE POP SWAP1 POP PUSH2 0x2A4B JUMP JUMPDEST PUSH0 DUP3 SWAP1 POP PUSH0 JUMPDEST PUSH0 DUP3 EQ PUSH2 0x296C JUMPI DUP1 DUP1 PUSH2 0x2955 SWAP1 PUSH2 0x3ADB JUMP JUMPDEST SWAP2 POP POP PUSH1 0xA DUP3 PUSH2 0x2965 SWAP2 SWAP1 PUSH2 0x42DF JUMP JUMPDEST SWAP2 POP PUSH2 0x2943 JUMP JUMPDEST PUSH0 DUP2 PUSH8 0xFFFFFFFFFFFFFFFF DUP2 GT ISZERO PUSH2 0x2987 JUMPI PUSH2 0x2986 PUSH2 0x3406 JUMP JUMPDEST JUMPDEST PUSH1 0x40 MLOAD SWAP1 DUP1 DUP3 MSTORE DUP1 PUSH1 0x1F ADD PUSH1 0x1F NOT AND PUSH1 0x20 ADD DUP3 ADD PUSH1 0x40 MSTORE DUP1 ISZERO PUSH2 0x29B9 JUMPI DUP2 PUSH1 0x20 ADD PUSH1 0x1 DUP3 MUL DUP1 CALLDATASIZE DUP4 CALLDATACOPY DUP1 DUP3 ADD SWAP2 POP POP SWAP1 POP JUMPDEST POP SWAP1 POP JUMPDEST PUSH0 DUP6 EQ PUSH2 0x2A44 JUMPI PUSH1 0x1 DUP3 PUSH2 0x29D1 SWAP2 SWAP1 PUSH2 0x3A1A JUMP JUMPDEST SWAP2 POP PUSH1 0xA DUP6 PUSH2 0x29E0 SWAP2 SWAP1 PUSH2 0x49E7 JUMP JUMPDEST PUSH1 0x30 PUSH2 0x29EC SWAP2 SWAP1 PUSH2 0x4148 JUMP JUMPDEST PUSH1 0xF8 SHL DUP2 DUP4 DUP2 MLOAD DUP2 LT PUSH2 0x2A02 JUMPI PUSH2 0x2A01 PUSH2 0x4A17 JUMP JUMPDEST JUMPDEST PUSH1 0x20 ADD ADD SWAP1 PUSH31 0xFFFFFFFFFFFFFFFFFFFFFFFFFFFFFFFFFFFFFFFFFFFFFFFFFFFFFFFFFFFFFF NOT AND SWAP1 DUP2 PUSH0 BYTE SWAP1 MSTORE8 POP PUSH1 0xA DUP6 PUSH2 0x2A3D SWAP2 SWAP1 PUSH2 0x42DF JUMP JUMPDEST SWAP5 POP PUSH2 0x29BD JUMP JUMPDEST DUP1 SWAP4 POP POP POP POP JUMPDEST SWAP2 SWAP1 POP JUMP JUMPDEST POP POP POP POP JUMP JUMPDEST POP POP POP POP JUMP JUMPDEST PUSH0 PUSH1 0x1 SLOAD SWAP1 POP PUSH0 PUSH20 0xFFFFFFFFFFFFFFFFFFFFFFFFFFFFFFFFFFFFFFFF AND DUP5 PUSH20 0xFFFFFFFFFFFFFFFFFFFFFFFFFFFFFFFFFFFFFFFF AND SUB PUSH2 0x2AD0 JUMPI PUSH1 0x40 MLOAD PUSH32 0x8C379A000000000000000000000000000000000000000000000000000000000 DUP2 MSTORE PUSH1 0x4 ADD PUSH2 0x2AC7 SWAP1 PUSH2 0x4AB4 JUMP JUMPDEST PUSH1 0x40 MLOAD DUP1 SWAP2 SUB SWAP1 REVERT JUMPDEST PUSH2 0x2AD9 DUP2 PUSH2 0x1DB7 JUMP JUMPDEST ISZERO PUSH2 0x2B19 JUMPI PUSH1 0x40 MLOAD PUSH32 0x8C379A000000000000000000000000000000000000000000000000000000000 DUP2 MSTORE PUSH1 0x4 ADD PUSH2 0x2B10 SWAP1 PUSH2 0x4B1C JUMP JUMPDEST PUSH1 0x40 MLOAD DUP1 SWAP2 SUB SWAP1 REVERT JUMPDEST PUSH32 0x0 DUP4 GT ISZERO PUSH2 0x2B7C JUMPI PUSH1 0x40 MLOAD PUSH32 0x8C379A000000000000000000000000000000000000000000000000000000000 DUP2 MSTORE PUSH1 0x4 ADD PUSH2 0x2B73 SWAP1 PUSH2 0x4BAA JUMP JUMPDEST PUSH1 0x40 MLOAD DUP1 SWAP2 SUB SWAP1 REVERT JUMPDEST PUSH2 0x2B88 PUSH0 DUP6 DUP4 DUP7 PUSH2 0x2A50 JUMP JUMPDEST PUSH0 PUSH1 0x5 PUSH0 DUP7 PUSH20 0xFFFFFFFFFFFFFFFFFFFFFFFFFFFFFFFFFFFFFFFF AND PUSH20 0xFFFFFFFFFFFFFFFFFFFFFFFFFFFFFFFFFFFFFFFF AND DUP2 MSTORE PUSH1 0x20 ADD SWAP1 DUP2 MSTORE PUSH1 0x20 ADD PUSH0 KECCAK256 PUSH1 0x40 MLOAD DUP1 PUSH1 0x40 ADD PUSH1 0x40 MSTORE SWAP1 DUP2 PUSH0 DUP3 ADD PUSH0 SWAP1 SLOAD SWAP1 PUSH2 0x100 EXP SWAP1 DIV PUSH16 0xFFFFFFFFFFFFFFFFFFFFFFFFFFFFFFFF AND PUSH16 0xFFFFFFFFFFFFFFFFFFFFFFFFFFFFFFFF AND PUSH16 0xFFFFFFFFFFFFFFFFFFFFFFFFFFFFFFFF AND DUP2 MSTORE PUSH1 0x20 ADD PUSH0 DUP3 ADD PUSH1 0x10 SWAP1 SLOAD SWAP1 PUSH2 0x100 EXP SWAP1 DIV PUSH16 0xFFFFFFFFFFFFFFFFFFFFFFFFFFFFFFFF AND PUSH16 0xFFFFFFFFFFFFFFFFFFFFFFFFFFFFFFFF AND PUSH16 0xFFFFFFFFFFFFFFFFFFFFFFFFFFFFFFFF AND DUP2 MSTORE POP POP SWAP1 POP PUSH1 0x40 MLOAD DUP1 PUSH1 0x40 ADD PUSH1 0x40 MSTORE DUP1 DUP6 DUP4 PUSH0 ADD MLOAD PUSH2 0x2C7E SWAP2 SWAP1 PUSH2 0x4786 JUMP JUMPDEST PUSH16 0xFFFFFFFFFFFFFFFFFFFFFFFFFFFFFFFF AND DUP2 MSTORE PUSH1 0x20 ADD DUP6 DUP4 PUSH1 0x20 ADD MLOAD PUSH2 0x2CA5 SWAP2 SWAP1 PUSH2 0x4786 JUMP JUMPDEST PUSH16 0xFFFFFFFFFFFFFFFFFFFFFFFFFFFFFFFF AND DUP2 MSTORE POP PUSH1 0x5 PUSH0 DUP8 PUSH20 0xFFFFFFFFFFFFFFFFFFFFFFFFFFFFFFFFFFFFFFFF AND PUSH20 0xFFFFFFFFFFFFFFFFFFFFFFFFFFFFFFFFFFFFFFFF AND DUP2 MSTORE PUSH1 0x20 ADD SWAP1 DUP2 MSTORE PUSH1 0x20 ADD PUSH0 KECCAK256 PUSH0 DUP3 ADD MLOAD DUP2 PUSH0 ADD PUSH0 PUSH2 0x100 EXP DUP2 SLOAD DUP2 PUSH16 0xFFFFFFFFFFFFFFFFFFFFFFFFFFFFFFFF MUL NOT AND SWAP1 DUP4 PUSH16 0xFFFFFFFFFFFFFFFFFFFFFFFFFFFFFFFF AND MUL OR SWAP1 SSTORE POP PUSH1 0x20 DUP3 ADD MLOAD DUP2 PUSH0 ADD PUSH1 0x10 PUSH2 0x100 EXP DUP2 SLOAD DUP2 PUSH16 0xFFFFFFFFFFFFFFFFFFFFFFFFFFFFFFFF MUL NOT AND SWAP1 DUP4 PUSH16 0xFFFFFFFFFFFFFFFFFFFFFFFFFFFFFFFF AND MUL OR SWAP1 SSTORE POP SWAP1 POP POP PUSH1 0x40 MLOAD DUP1 PUSH1 0x40 ADD PUSH1 0x40 MSTORE DUP1 DUP7 PUSH20 0xFFFFFFFFFFFFFFFFFFFFFFFFFFFFFFFFFFFFFFFF AND DUP2 MSTORE PUSH1 0x20 ADD TIMESTAMP PUSH8 0xFFFFFFFFFFFFFFFF AND DUP2 MSTORE POP PUSH1 0x4 PUSH0 DUP5 DUP2 MSTORE PUSH1 0x20 ADD SWAP1 DUP2 MSTORE PUSH1 0x20 ADD PUSH0 KECCAK256 PUSH0 DUP3 ADD MLOAD DUP2 PUSH0 ADD PUSH0 PUSH2 0x100 EXP DUP2 SLOAD DUP2 PUSH20 0xFFFFFFFFFFFFFFFFFFFFFFFFFFFFFFFFFFFFFFFF MUL NOT AND SWAP1 DUP4 PUSH20 0xFFFFFFFFFFFFFFFFFFFFFFFFFFFFFFFFFFFFFFFF AND MUL OR SWAP1 SSTORE POP PUSH1 0x20 DUP3 ADD MLOAD DUP2 PUSH0 ADD PUSH1 0x14 PUSH2 0x100 EXP DUP2 SLOAD DUP2 PUSH8 0xFFFFFFFFFFFFFFFF MUL NOT AND SWAP1 DUP4 PUSH8 0xFFFFFFFFFFFFFFFF AND MUL OR SWAP1 SSTORE POP SWAP1 POP POP PUSH0 DUP3 SWAP1 POP PUSH0 JUMPDEST DUP6 DUP2 LT ISZERO PUSH2 0x2EFE JUMPI DUP2 DUP8 PUSH20 0xFFFFFFFFFFFFFFFFFFFFFFFFFFFFFFFFFFFFFFFF AND PUSH0 PUSH20 0xFFFFFFFFFFFFFFFFFFFFFFFFFFFFFFFFFFFFFFFF AND PUSH32 0xDDF252AD1BE2C89B69C2B068FC378DAA952BA7F163C4A11628F55A4DF523B3EF PUSH1 0x40 MLOAD PUSH1 0x40 MLOAD DUP1 SWAP2 SUB SWAP1 LOG4 PUSH2 0x2EA4 PUSH0 DUP9 DUP5 DUP9 PUSH2 0x26E5 JUMP JUMPDEST PUSH2 0x2EE3 JUMPI PUSH1 0x40 MLOAD PUSH32 0x8C379A000000000000000000000000000000000000000000000000000000000 DUP2 MSTORE PUSH1 0x4 ADD PUSH2 0x2EDA SWAP1 PUSH2 0x43E7 JUMP JUMPDEST PUSH1 0x40 MLOAD DUP1 SWAP2 SUB SWAP1 REVERT JUMPDEST DUP2 DUP1 PUSH2 0x2EEE SWAP1 PUSH2 0x3ADB JUMP JUMPDEST SWAP3 POP POP DUP1 DUP1 PUSH1 0x1 ADD SWAP2 POP POP PUSH2 0x2E35 JUMP JUMPDEST POP DUP1 PUSH1 0x1 DUP2 SWAP1 SSTORE POP PUSH2 0x2F12 PUSH0 DUP8 DUP6 DUP9 PUSH2 0x2A56 JUMP JUMPDEST POP POP POP POP POP POP JUMP JUMPDEST PUSH0 DUP1 DUP3 PUSH20 0xFFFFFFFFFFFFFFFFFFFFFFFFFFFFFFFFFFFFFFFF AND EXTCODESIZE GT SWAP1 POP SWAP2 SWAP1 POP JUMP JUMPDEST PUSH1 0x40 MLOAD DUP1 PUSH1 0x40 ADD PUSH1 0x40 MSTORE DUP1 PUSH0 PUSH20 0xFFFFFFFFFFFFFFFFFFFFFFFFFFFFFFFFFFFFFFFF AND DUP2 MSTORE PUSH1 0x20 ADD PUSH0 PUSH8 0xFFFFFFFFFFFFFFFF AND DUP2 MSTORE POP SWAP1 JUMP JUMPDEST PUSH0 PUSH1 0x40 MLOAD SWAP1 POP SWAP1 JUMP JUMPDEST PUSH0 DUP1 REVERT JUMPDEST PUSH0 DUP1 REVERT JUMPDEST PUSH0 PUSH32 0xFFFFFFFF00000000000000000000000000000000000000000000000000000000 DUP3 AND SWAP1 POP SWAP2 SWAP1 POP JUMP JUMPDEST PUSH2 0x2FB9 DUP2 PUSH2 0x2F85 JUMP JUMPDEST DUP2 EQ PUSH2 0x2FC3 JUMPI PUSH0 DUP1 REVERT JUMPDEST POP JUMP JUMPDEST PUSH0 DUP2 CALLDATALOAD SWAP1 POP PUSH2 0x2FD4 DUP2 PUSH2 0x2FB0 JUMP JUMPDEST SWAP3 SWAP2 POP POP JUMP JUMPDEST PUSH0 PUSH1 0x20 DUP3 DUP5 SUB SLT ISZERO PUSH2 0x2FEF JUMPI PUSH2 0x2FEE PUSH2 0x2F7D JUMP JUMPDEST JUMPDEST PUSH0 PUSH2 0x2FFC DUP5 DUP3 DUP6 ADD PUSH2 0x2FC6 JUMP JUMPDEST SWAP2 POP POP SWAP3 SWAP2 POP POP JUMP JUMPDEST PUSH0 DUP2 ISZERO ISZERO SWAP1 POP SWAP2 SWAP1 POP JUMP JUMPDEST PUSH2 0x3019 DUP2 PUSH2 0x3005 JUMP JUMPDEST DUP3 MSTORE POP POP JUMP JUMPDEST PUSH0 PUSH1 0x20 DUP3 ADD SWAP1 POP PUSH2 0x3032 PUSH0 DUP4 ADD DUP5 PUSH2 0x3010 JUMP JUMPDEST SWAP3 SWAP2 POP POP JUMP JUMPDEST PUSH0 DUP2 SWAP1 POP SWAP2 SWAP1 POP JUMP JUMPDEST PUSH2 0x304A DUP2 PUSH2 0x3038 JUMP JUMPDEST DUP3 MSTORE POP POP JUMP JUMPDEST PUSH0 PUSH1 0x20 DUP3 ADD SWAP1 POP PUSH2 0x3063 PUSH0 DUP4 ADD DUP5 PUSH2 0x3041 JUMP JUMPDEST SWAP3 SWAP2 POP POP JUMP JUMPDEST PUSH0 DUP2 MLOAD SWAP1 POP SWAP2 SWAP1 POP JUMP JUMPDEST PUSH0 DUP3 DUP3 MSTORE PUSH1 0x20 DUP3 ADD SWAP1 POP SWAP3 SWAP2 POP POP JUMP JUMPDEST DUP3 DUP2 DUP4 MCOPY PUSH0 DUP4 DUP4 ADD MSTORE POP POP POP JUMP JUMPDEST PUSH0 PUSH1 0x1F NOT PUSH1 0x1F DUP4 ADD AND SWAP1 POP SWAP2 SWAP1 POP JUMP JUMPDEST PUSH0 PUSH2 0x30AB DUP3 PUSH2 0x3069 JUMP JUMPDEST PUSH2 0x30B5 DUP2 DUP6 PUSH2 0x3073 JUMP JUMPDEST SWAP4 POP PUSH2 0x30C5 DUP2 DUP6 PUSH1 0x20 DUP7 ADD PUSH2 0x3083 JUMP JUMPDEST PUSH2 0x30CE DUP2 PUSH2 0x3091 JUMP JUMPDEST DUP5 ADD SWAP2 POP POP SWAP3 SWAP2 POP POP JUMP JUMPDEST PUSH0 PUSH1 0x20 DUP3 ADD SWAP1 POP DUP2 DUP2 SUB PUSH0 DUP4 ADD MSTORE PUSH2 0x30F1 DUP2 DUP5 PUSH2 0x30A1 JUMP JUMPDEST SWAP1 POP SWAP3 SWAP2 POP POP JUMP JUMPDEST PUSH2 0x3102 DUP2 PUSH2 0x3038 JUMP JUMPDEST DUP2 EQ PUSH2 0x310C JUMPI PUSH0 DUP1 REVERT JUMPDEST POP JUMP JUMPDEST PUSH0 DUP2 CALLDATALOAD SWAP1 POP PUSH2 0x311D DUP2 PUSH2 0x30F9 JUMP JUMPDEST SWAP3 SWAP2 POP POP JUMP JUMPDEST PUSH0 PUSH1 0x20 DUP3 DUP5 SUB SLT ISZERO PUSH2 0x3138 JUMPI PUSH2 0x3137 PUSH2 0x2F7D JUMP JUMPDEST JUMPDEST PUSH0 PUSH2 0x3145 DUP5 DUP3 DUP6 ADD PUSH2 0x310F JUMP JUMPDEST SWAP2 POP POP SWAP3 SWAP2 POP POP JUMP JUMPDEST PUSH0 PUSH20 0xFFFFFFFFFFFFFFFFFFFFFFFFFFFFFFFFFFFFFFFF DUP3 AND SWAP1 POP SWAP2 SWAP1 POP JUMP JUMPDEST PUSH0 PUSH2 0x3177 DUP3 PUSH2 0x314E JUMP JUMPDEST SWAP1 POP SWAP2 SWAP1 POP JUMP JUMPDEST PUSH2 0x3187 DUP2 PUSH2 0x316D JUMP JUMPDEST DUP3 MSTORE POP POP JUMP JUMPDEST PUSH0 PUSH1 0x20 DUP3 ADD SWAP1 POP PUSH2 0x31A0 PUSH0 DUP4 ADD DUP5 PUSH2 0x317E JUMP JUMPDEST SWAP3 SWAP2 POP POP JUMP JUMPDEST PUSH2 0x31AF DUP2 PUSH2 0x316D JUMP JUMPDEST DUP2 EQ PUSH2 0x31B9 JUMPI PUSH0 DUP1 REVERT JUMPDEST POP JUMP JUMPDEST PUSH0 DUP2 CALLDATALOAD SWAP1 POP PUSH2 0x31CA DUP2 PUSH2 0x31A6 JUMP JUMPDEST SWAP3 SWAP2 POP POP JUMP JUMPDEST PUSH0 DUP1 PUSH1 0x40 DUP4 DUP6 SUB SLT ISZERO PUSH2 0x31E6 JUMPI PUSH2 0x31E5 PUSH2 0x2F7D JUMP JUMPDEST JUMPDEST PUSH0 PUSH2 0x31F3 DUP6 DUP3 DUP7 ADD PUSH2 0x31BC JUMP JUMPDEST SWAP3 POP POP PUSH1 0x20 PUSH2 0x3204 DUP6 DUP3 DUP7 ADD PUSH2 0x310F JUMP JUMPDEST SWAP2 POP POP SWAP3 POP SWAP3 SWAP1 POP JUMP JUMPDEST PUSH0 DUP1 PUSH0 PUSH1 0x60 DUP5 DUP7 SUB SLT ISZERO PUSH2 0x3225 JUMPI PUSH2 0x3224 PUSH2 0x2F7D JUMP JUMPDEST JUMPDEST PUSH0 PUSH2 0x3232 DUP7 DUP3 DUP8 ADD PUSH2 0x31BC JUMP JUMPDEST SWAP4 POP POP PUSH1 0x20 PUSH2 0x3243 DUP7 DUP3 DUP8 ADD PUSH2 0x31BC JUMP JUMPDEST SWAP3 POP POP PUSH1 0x40 PUSH2 0x3254 DUP7 DUP3 DUP8 ADD PUSH2 0x310F JUMP JUMPDEST SWAP2 POP POP SWAP3 POP SWAP3 POP SWAP3 JUMP JUMPDEST PUSH0 DUP1 REVERT JUMPDEST PUSH0 DUP1 REVERT JUMPDEST PUSH0 DUP1 REVERT JUMPDEST PUSH0 DUP1 DUP4 PUSH1 0x1F DUP5 ADD SLT PUSH2 0x327F JUMPI PUSH2 0x327E PUSH2 0x325E JUMP JUMPDEST JUMPDEST DUP3 CALLDATALOAD SWAP1 POP PUSH8 0xFFFFFFFFFFFFFFFF DUP2 GT ISZERO PUSH2 0x329C JUMPI PUSH2 0x329B PUSH2 0x3262 JUMP JUMPDEST JUMPDEST PUSH1 0x20 DUP4 ADD SWAP2 POP DUP4 PUSH1 0x1 DUP3 MUL DUP4 ADD GT ISZERO PUSH2 0x32B8 JUMPI PUSH2 0x32B7 PUSH2 0x3266 JUMP JUMPDEST JUMPDEST SWAP3 POP SWAP3 SWAP1 POP JUMP JUMPDEST PUSH0 DUP1 PUSH1 0x20 DUP4 DUP6 SUB SLT ISZERO PUSH2 0x32D5 JUMPI PUSH2 0x32D4 PUSH2 0x2F7D JUMP JUMPDEST JUMPDEST PUSH0 DUP4 ADD CALLDATALOAD PUSH8 0xFFFFFFFFFFFFFFFF DUP2 GT ISZERO PUSH2 0x32F2 JUMPI PUSH2 0x32F1 PUSH2 0x2F81 JUMP JUMPDEST JUMPDEST PUSH2 0x32FE DUP6 DUP3 DUP7 ADD PUSH2 0x326A JUMP JUMPDEST SWAP3 POP SWAP3 POP POP SWAP3 POP SWAP3 SWAP1 POP JUMP JUMPDEST PUSH0 PUSH1 0x20 DUP3 DUP5 SUB SLT ISZERO PUSH2 0x331F JUMPI PUSH2 0x331E PUSH2 0x2F7D JUMP JUMPDEST JUMPDEST PUSH0 PUSH2 0x332C DUP5 DUP3 DUP6 ADD PUSH2 0x31BC JUMP JUMPDEST SWAP2 POP POP SWAP3 SWAP2 POP POP JUMP JUMPDEST PUSH0 PUSH1 0x40 DUP3 ADD SWAP1 POP PUSH2 0x3348 PUSH0 DUP4 ADD DUP6 PUSH2 0x3041 JUMP JUMPDEST PUSH2 0x3355 PUSH1 0x20 DUP4 ADD DUP5 PUSH2 0x3041 JUMP JUMPDEST SWAP4 SWAP3 POP POP POP JUMP JUMPDEST PUSH0 DUP1 PUSH1 0x40 DUP4 DUP6 SUB SLT ISZERO PUSH2 0x3372 JUMPI PUSH2 0x3371 PUSH2 0x2F7D JUMP JUMPDEST JUMPDEST PUSH0 PUSH2 0x337F DUP6 DUP3 DUP7 ADD PUSH2 0x310F JUMP JUMPDEST SWAP3 POP POP PUSH1 0x20 PUSH2 0x3390 DUP6 DUP3 DUP7 ADD PUSH2 0x31BC JUMP JUMPDEST SWAP2 POP POP SWAP3 POP SWAP3 SWAP1 POP JUMP JUMPDEST PUSH2 0x33A3 DUP2 PUSH2 0x3005 JUMP JUMPDEST DUP2 EQ PUSH2 0x33AD JUMPI PUSH0 DUP1 REVERT JUMPDEST POP JUMP JUMPDEST PUSH0 DUP2 CALLDATALOAD SWAP1 POP PUSH2 0x33BE DUP2 PUSH2 0x339A JUMP JUMPDEST SWAP3 SWAP2 POP POP JUMP JUMPDEST PUSH0 DUP1 PUSH1 0x40 DUP4 DUP6 SUB SLT ISZERO PUSH2 0x33DA JUMPI PUSH2 0x33D9 PUSH2 0x2F7D JUMP JUMPDEST JUMPDEST PUSH0 PUSH2 0x33E7 DUP6 DUP3 DUP7 ADD PUSH2 0x31BC JUMP JUMPDEST SWAP3 POP POP PUSH1 0x20 PUSH2 0x33F8 DUP6 DUP3 DUP7 ADD PUSH2 0x33B0 JUMP JUMPDEST SWAP2 POP POP SWAP3 POP SWAP3 SWAP1 POP JUMP JUMPDEST PUSH0 DUP1 REVERT JUMPDEST PUSH32 0x4E487B7100000000000000000000000000000000000000000000000000000000 PUSH0 MSTORE PUSH1 0x41 PUSH1 0x4 MSTORE PUSH1 0x24 PUSH0 REVERT JUMPDEST PUSH2 0x343C DUP3 PUSH2 0x3091 JUMP JUMPDEST DUP2 ADD DUP2 DUP2 LT PUSH8 0xFFFFFFFFFFFFFFFF DUP3 GT OR ISZERO PUSH2 0x345B JUMPI PUSH2 0x345A PUSH2 0x3406 JUMP JUMPDEST JUMPDEST DUP1 PUSH1 0x40 MSTORE POP POP POP JUMP JUMPDEST PUSH0 PUSH2 0x346D PUSH2 0x2F74 JUMP JUMPDEST SWAP1 POP PUSH2 0x3479 DUP3 DUP3 PUSH2 0x3433 JUMP JUMPDEST SWAP2 SWAP1 POP JUMP JUMPDEST PUSH0 PUSH8 0xFFFFFFFFFFFFFFFF DUP3 GT ISZERO PUSH2 0x3498 JUMPI PUSH2 0x3497 PUSH2 0x3406 JUMP JUMPDEST JUMPDEST PUSH2 0x34A1 DUP3 PUSH2 0x3091 JUMP JUMPDEST SWAP1 POP PUSH1 0x20 DUP2 ADD SWAP1 POP SWAP2 SWAP1 POP JUMP JUMPDEST DUP3 DUP2 DUP4 CALLDATACOPY PUSH0 DUP4 DUP4 ADD MSTORE POP POP POP JUMP JUMPDEST PUSH0 PUSH2 0x34CE PUSH2 0x34C9 DUP5 PUSH2 0x347E JUMP JUMPDEST PUSH2 0x3464 JUMP JUMPDEST SWAP1 POP DUP3 DUP2 MSTORE PUSH1 0x20 DUP2 ADD DUP5 DUP5 DUP5 ADD GT ISZERO PUSH2 0x34EA JUMPI PUSH2 0x34E9 PUSH2 0x3402 JUMP JUMPDEST JUMPDEST PUSH2 0x34F5 DUP5 DUP3 DUP6 PUSH2 0x34AE JUMP JUMPDEST POP SWAP4 SWAP3 POP POP POP JUMP JUMPDEST PUSH0 DUP3 PUSH1 0x1F DUP4 ADD SLT PUSH2 0x3511 JUMPI PUSH2 0x3510 PUSH2 0x325E JUMP JUMPDEST JUMPDEST DUP2 CALLDATALOAD PUSH2 0x3521 DUP5 DUP3 PUSH1 0x20 DUP7 ADD PUSH2 0x34BC JUMP JUMPDEST SWAP2 POP POP SWAP3 SWAP2 POP POP JUMP JUMPDEST PUSH0 DUP1 PUSH0 DUP1 PUSH1 0x80 DUP6 DUP8 SUB SLT ISZERO PUSH2 0x3542 JUMPI PUSH2 0x3541 PUSH2 0x2F7D JUMP JUMPDEST JUMPDEST PUSH0 PUSH2 0x354F DUP8 DUP3 DUP9 ADD PUSH2 0x31BC JUMP JUMPDEST SWAP5 POP POP PUSH1 0x20 PUSH2 0x3560 DUP8 DUP3 DUP9 ADD PUSH2 0x31BC JUMP JUMPDEST SWAP4 POP POP PUSH1 0x40 PUSH2 0x3571 DUP8 DUP3 DUP9 ADD PUSH2 0x310F JUMP JUMPDEST SWAP3 POP POP PUSH1 0x60 DUP6 ADD CALLDATALOAD PUSH8 0xFFFFFFFFFFFFFFFF DUP2 GT ISZERO PUSH2 0x3592 JUMPI PUSH2 0x3591 PUSH2 0x2F81 JUMP JUMPDEST JUMPDEST PUSH2 0x359E DUP8 DUP3 DUP9 ADD PUSH2 0x34FD JUMP JUMPDEST SWAP2 POP POP SWAP3 SWAP6 SWAP2 SWAP5 POP SWAP3 POP JUMP JUMPDEST PUSH0 DUP2 SWAP1 POP SWAP2 SWAP1 POP JUMP JUMPDEST PUSH2 0x35BC DUP2 PUSH2 0x35AA JUMP JUMPDEST DUP2 EQ PUSH2 0x35C6 JUMPI PUSH0 DUP1 REVERT JUMPDEST POP JUMP JUMPDEST PUSH0 DUP2 CALLDATALOAD SWAP1 POP PUSH2 0x35D7 DUP2 PUSH2 0x35B3 JUMP JUMPDEST SWAP3 SWAP2 POP POP JUMP JUMPDEST PUSH0 PUSH1 0x20 DUP3 DUP5 SUB SLT ISZERO PUSH2 0x35F2 JUMPI PUSH2 0x35F1 PUSH2 0x2F7D JUMP JUMPDEST JUMPDEST PUSH0 PUSH2 0x35FF DUP5 DUP3 DUP6 ADD PUSH2 0x35C9 JUMP JUMPDEST SWAP2 POP POP SWAP3 SWAP2 POP POP JUMP JUMPDEST PUSH0 DUP1 PUSH1 0x40 DUP4 DUP6 SUB SLT ISZERO PUSH2 0x361E JUMPI PUSH2 0x361D PUSH2 0x2F7D JUMP JUMPDEST JUMPDEST PUSH0 PUSH2 0x362B DUP6 DUP3 DUP7 ADD PUSH2 0x31BC JUMP JUMPDEST SWAP3 POP POP PUSH1 0x20 PUSH2 0x363C DUP6 DUP3 DUP7 ADD PUSH2 0x31BC JUMP JUMPDEST SWAP2 POP POP SWAP3 POP SWAP3 SWAP1 POP JUMP JUMPDEST PUSH32 0x4E487B7100000000000000000000000000000000000000000000000000000000 PUSH0 MSTORE PUSH1 0x22 PUSH1 0x4 MSTORE PUSH1 0x24 PUSH0 REVERT JUMPDEST PUSH0 PUSH1 0x2 DUP3 DIV SWAP1 POP PUSH1 0x1 DUP3 AND DUP1 PUSH2 0x368A JUMPI PUSH1 0x7F DUP3 AND SWAP2 POP JUMPDEST PUSH1 0x20 DUP3 LT DUP2 SUB PUSH2 0x369D JUMPI PUSH2 0x369C PUSH2 0x3646 JUMP JUMPDEST JUMPDEST POP SWAP2 SWAP1 POP JUMP JUMPDEST PUSH32 0x455243373231413A20617070726F76656420717565727920666F72206E6F6E65 PUSH0 DUP3 ADD MSTORE PUSH32 0x78697374656E7420746F6B656E00000000000000000000000000000000000000 PUSH1 0x20 DUP3 ADD MSTORE POP JUMP JUMPDEST PUSH0 PUSH2 0x36FD PUSH1 0x2D DUP4 PUSH2 0x3073 JUMP JUMPDEST SWAP2 POP PUSH2 0x3708 DUP3 PUSH2 0x36A3 JUMP JUMPDEST PUSH1 0x40 DUP3 ADD SWAP1 POP SWAP2 SWAP1 POP JUMP JUMPDEST PUSH0 PUSH1 0x20 DUP3 ADD SWAP1 POP DUP2 DUP2 SUB PUSH0 DUP4 ADD MSTORE PUSH2 0x372A DUP2 PUSH2 0x36F1 JUMP JUMPDEST SWAP1 POP SWAP2 SWAP1 POP JUMP JUMPDEST PUSH32 0x455243373231413A20617070726F76616C20746F2063757272656E74206F776E PUSH0 DUP3 ADD MSTORE PUSH32 0x6572000000000000000000000000000000000000000000000000000000000000 PUSH1 0x20 DUP3 ADD MSTORE POP JUMP JUMPDEST PUSH0 PUSH2 0x378B PUSH1 0x22 DUP4 PUSH2 0x3073 JUMP JUMPDEST SWAP2 POP PUSH2 0x3796 DUP3 PUSH2 0x3731 JUMP JUMPDEST PUSH1 0x40 DUP3 ADD SWAP1 POP SWAP2 SWAP1 POP JUMP JUMPDEST PUSH0 PUSH1 0x20 DUP3 ADD SWAP1 POP DUP2 DUP2 SUB PUSH0 DUP4 ADD MSTORE PUSH2 0x37B8 DUP2 PUSH2 0x377F JUMP JUMPDEST SWAP1 POP SWAP2 SWAP1 POP JUMP JUMPDEST PUSH32 0x455243373231413A20617070726F76652063616C6C6572206973206E6F74206F PUSH0 DUP3 ADD MSTORE PUSH32 0x776E6572206E6F7220617070726F76656420666F7220616C6C00000000000000 PUSH1 0x20 DUP3 ADD MSTORE POP JUMP JUMPDEST PUSH0 PUSH2 0x3819 PUSH1 0x39 DUP4 PUSH2 0x3073 JUMP JUMPDEST SWAP2 POP PUSH2 0x3824 DUP3 PUSH2 0x37BF JUMP JUMPDEST PUSH1 0x40 DUP3 ADD SWAP1 POP SWAP2 SWAP1 POP JUMP JUMPDEST PUSH0 PUSH1 0x20 DUP3 ADD SWAP1 POP DUP2 DUP2 SUB PUSH0 DUP4 ADD MSTORE PUSH2 0x3846 DUP2 PUSH2 0x380D JUMP JUMPDEST SWAP1 POP SWAP2 SWAP1 POP JUMP JUMPDEST PUSH32 0x5265656E7472616E637947756172643A207265656E7472616E742063616C6C00 PUSH0 DUP3 ADD MSTORE POP JUMP JUMPDEST PUSH0 PUSH2 0x3881 PUSH1 0x1F DUP4 PUSH2 0x3073 JUMP JUMPDEST SWAP2 POP PUSH2 0x388C DUP3 PUSH2 0x384D JUMP JUMPDEST PUSH1 0x20 DUP3 ADD SWAP1 POP SWAP2 SWAP1 POP JUMP JUMPDEST PUSH0 PUSH1 0x20 DUP3 ADD SWAP1 POP DUP2 DUP2 SUB PUSH0 DUP4 ADD MSTORE PUSH2 0x38AE DUP2 PUSH2 0x3875 JUMP JUMPDEST SWAP1 POP SWAP2 SWAP1 POP JUMP JUMPDEST PUSH32 0x496E636F6D65206973207374696C6C206C6F636B656400000000000000000000 PUSH0 DUP3 ADD MSTORE POP JUMP JUMPDEST PUSH0 PUSH2 0x38E9 PUSH1 0x16 DUP4 PUSH2 0x3073 JUMP JUMPDEST SWAP2 POP PUSH2 0x38F4 DUP3 PUSH2 0x38B5 JUMP JUMPDEST PUSH1 0x20 DUP3 ADD SWAP1 POP SWAP2 SWAP1 POP JUMP JUMPDEST PUSH0 PUSH1 0x20 DUP3 ADD SWAP1 POP DUP2 DUP2 SUB PUSH0 DUP4 ADD MSTORE PUSH2 0x3916 DUP2 PUSH2 0x38DD JUMP JUMPDEST SWAP1 POP SWAP2 SWAP1 POP JUMP JUMPDEST PUSH32 0x4E6F20696E636F6D6520746F2077697468647261770000000000000000000000 PUSH0 DUP3 ADD MSTORE POP JUMP JUMPDEST PUSH0 PUSH2 0x3951 PUSH1 0x15 DUP4 PUSH2 0x3073 JUMP JUMPDEST SWAP2 POP PUSH2 0x395C DUP3 PUSH2 0x391D JUMP JUMPDEST PUSH1 0x20 DUP3 ADD SWAP1 POP SWAP2 SWAP1 POP JUMP JUMPDEST PUSH0 PUSH1 0x20 DUP3 ADD SWAP1 POP DUP2 DUP2 SUB PUSH0 DUP4 ADD MSTORE PUSH2 0x397E DUP2 PUSH2 0x3945 JUMP JUMPDEST SWAP1 POP SWAP2 SWAP1 POP JUMP JUMPDEST PUSH32 0x496E73756666696369656E74207265776172647320706F6F6C00000000000000 PUSH0 DUP3 ADD MSTORE POP JUMP JUMPDEST PUSH0 PUSH2 0x39B9 PUSH1 0x19 DUP4 PUSH2 0x3073 JUMP JUMPDEST SWAP2 POP PUSH2 0x39C4 DUP3 PUSH2 0x3985 JUMP JUMPDEST PUSH1 0x20 DUP3 ADD SWAP1 POP SWAP2 SWAP1 POP JUMP JUMPDEST PUSH0 PUSH1 0x20 DUP3 ADD SWAP1 POP DUP2 DUP2 SUB PUSH0 DUP4 ADD MSTORE PUSH2 0x39E6 DUP2 PUSH2 0x39AD JUMP JUMPDEST SWAP1 POP SWAP2 SWAP1 POP JUMP JUMPDEST PUSH32 0x4E487B7100000000000000000000000000000000000000000000000000000000 PUSH0 MSTORE PUSH1 0x11 PUSH1 0x4 MSTORE PUSH1 0x24 PUSH0 REVERT JUMPDEST PUSH0 PUSH2 0x3A24 DUP3 PUSH2 0x3038 JUMP JUMPDEST SWAP2 POP PUSH2 0x3A2F DUP4 PUSH2 0x3038 JUMP JUMPDEST SWAP3 POP DUP3 DUP3 SUB SWAP1 POP DUP2 DUP2 GT ISZERO PUSH2 0x3A47 JUMPI PUSH2 0x3A46 PUSH2 0x39ED JUMP JUMPDEST JUMPDEST SWAP3 SWAP2 POP POP JUMP JUMPDEST PUSH32 0x455243373231413A206F776E657220696E646578206F7574206F6620626F756E PUSH0 DUP3 ADD MSTORE PUSH32 0x6473000000000000000000000000000000000000000000000000000000000000 PUSH1 0x20 DUP3 ADD MSTORE POP JUMP JUMPDEST PUSH0 PUSH2 0x3AA7 PUSH1 0x22 DUP4 PUSH2 0x3073 JUMP JUMPDEST SWAP2 POP PUSH2 0x3AB2 DUP3 PUSH2 0x3A4D JUMP JUMPDEST PUSH1 0x40 DUP3 ADD SWAP1 POP SWAP2 SWAP1 POP JUMP JUMPDEST PUSH0 PUSH1 0x20 DUP3 ADD SWAP1 POP DUP2 DUP2 SUB PUSH0 DUP4 ADD MSTORE PUSH2 0x3AD4 DUP2 PUSH2 0x3A9B JUMP JUMPDEST SWAP1 POP SWAP2 SWAP1 POP JUMP JUMPDEST PUSH0 PUSH2 0x3AE5 DUP3 PUSH2 0x3038 JUMP JUMPDEST SWAP2 POP PUSH32 0xFFFFFFFFFFFFFFFFFFFFFFFFFFFFFFFFFFFFFFFFFFFFFFFFFFFFFFFFFFFFFFFF DUP3 SUB PUSH2 0x3B17 JUMPI PUSH2 0x3B16 PUSH2 0x39ED JUMP JUMPDEST JUMPDEST PUSH1 0x1 DUP3 ADD SWAP1 POP SWAP2 SWAP1 POP JUMP JUMPDEST PUSH32 0x455243373231413A20756E61626C6520746F2067657420746F6B656E206F6620 PUSH0 DUP3 ADD MSTORE PUSH32 0x6F776E657220627920696E646578000000000000000000000000000000000000 PUSH1 0x20 DUP3 ADD MSTORE POP JUMP JUMPDEST PUSH0 PUSH2 0x3B7C PUSH1 0x2E DUP4 PUSH2 0x3073 JUMP JUMPDEST SWAP2 POP PUSH2 0x3B87 DUP3 PUSH2 0x3B22 JUMP JUMPDEST PUSH1 0x40 DUP3 ADD SWAP1 POP SWAP2 SWAP1 POP JUMP JUMPDEST PUSH0 PUSH1 0x20 DUP3 ADD SWAP1 POP DUP2 DUP2 SUB PUSH0 DUP4 ADD MSTORE PUSH2 0x3BA9 DUP2 PUSH2 0x3B70 JUMP JUMPDEST SWAP1 POP SWAP2 SWAP1 POP JUMP JUMPDEST PUSH32 0x4F776E61626C653A2063616C6C6572206973206E6F7420746865206F776E6572 PUSH0 DUP3 ADD MSTORE POP JUMP JUMPDEST PUSH0 PUSH2 0x3BE4 PUSH1 0x20 DUP4 PUSH2 0x3073 JUMP JUMPDEST SWAP2 POP PUSH2 0x3BEF DUP3 PUSH2 0x3BB0 JUMP JUMPDEST PUSH1 0x20 DUP3 ADD SWAP1 POP SWAP2 SWAP1 POP JUMP JUMPDEST PUSH0 PUSH1 0x20 DUP3 ADD SWAP1 POP DUP2 DUP2 SUB PUSH0 DUP4 ADD MSTORE PUSH2 0x3C11 DUP2 PUSH2 0x3BD8 JUMP JUMPDEST SWAP1 POP SWAP2 SWAP1 POP JUMP JUMPDEST PUSH32 0x455243373231413A20676C6F62616C20696E646578206F7574206F6620626F75 PUSH0 DUP3 ADD MSTORE PUSH32 0x6E64730000000000000000000000000000000000000000000000000000000000 PUSH1 0x20 DUP3 ADD MSTORE POP JUMP JUMPDEST PUSH0 PUSH2 0x3C72 PUSH1 0x23 DUP4 PUSH2 0x3073 JUMP JUMPDEST SWAP2 POP PUSH2 0x3C7D DUP3 PUSH2 0x3C18 JUMP JUMPDEST PUSH1 0x40 DUP3 ADD SWAP1 POP SWAP2 SWAP1 POP JUMP JUMPDEST PUSH0 PUSH1 0x20 DUP3 ADD SWAP1 POP DUP2 DUP2 SUB PUSH0 DUP4 ADD MSTORE PUSH2 0x3C9F DUP2 PUSH2 0x3C66 JUMP JUMPDEST SWAP1 POP SWAP2 SWAP1 POP JUMP JUMPDEST PUSH0 DUP3 SWAP1 POP SWAP3 SWAP2 POP POP JUMP JUMPDEST PUSH0 DUP2 SWAP1 POP DUP2 PUSH0 MSTORE PUSH1 0x20 PUSH0 KECCAK256 SWAP1 POP SWAP2 SWAP1 POP JUMP JUMPDEST PUSH0 PUSH1 0x20 PUSH1 0x1F DUP4 ADD DIV SWAP1 POP SWAP2 SWAP1 POP JUMP JUMPDEST PUSH0 DUP3 DUP3 SHL SWAP1 POP SWAP3 SWAP2 POP POP JUMP JUMPDEST PUSH0 PUSH1 0x8 DUP4 MUL PUSH2 0x3D0C PUSH32 0xFFFFFFFFFFFFFFFFFFFFFFFFFFFFFFFFFFFFFFFFFFFFFFFFFFFFFFFFFFFFFFFF DUP3 PUSH2 0x3CD1 JUMP JUMPDEST PUSH2 0x3D16 DUP7 DUP4 PUSH2 0x3CD1 JUMP JUMPDEST SWAP6 POP DUP1 NOT DUP5 AND SWAP4 POP DUP1 DUP7 AND DUP5 OR SWAP3 POP POP POP SWAP4 SWAP3 POP POP POP JUMP JUMPDEST PUSH0 DUP2 SWAP1 POP SWAP2 SWAP1 POP JUMP JUMPDEST PUSH0 PUSH2 0x3D51 PUSH2 0x3D4C PUSH2 0x3D47 DUP5 PUSH2 0x3038 JUMP JUMPDEST PUSH2 0x3D2E JUMP JUMPDEST PUSH2 0x3038 JUMP JUMPDEST SWAP1 POP SWAP2 SWAP1 POP JUMP JUMPDEST PUSH0 DUP2 SWAP1 POP SWAP2 SWAP1 POP JUMP JUMPDEST PUSH2 0x3D6A DUP4 PUSH2 0x3D37 JUMP JUMPDEST PUSH2 0x3D7E PUSH2 0x3D76 DUP3 PUSH2 0x3D58 JUMP JUMPDEST DUP5 DUP5 SLOAD PUSH2 0x3CDD JUMP JUMPDEST DUP3 SSTORE POP POP POP POP JUMP JUMPDEST PUSH0 SWAP1 JUMP JUMPDEST PUSH2 0x3D92 PUSH2 0x3D86 JUMP JUMPDEST PUSH2 0x3D9D DUP2 DUP5 DUP5 PUSH2 0x3D61 JUMP JUMPDEST POP POP POP JUMP JUMPDEST JUMPDEST DUP2 DUP2 LT ISZERO PUSH2 0x3DC0 JUMPI PUSH2 0x3DB5 PUSH0 DUP3 PUSH2 0x3D8A JUMP JUMPDEST PUSH1 0x1 DUP2 ADD SWAP1 POP PUSH2 0x3DA3 JUMP JUMPDEST POP POP JUMP JUMPDEST PUSH1 0x1F DUP3 GT ISZERO PUSH2 0x3E05 JUMPI PUSH2 0x3DD6 DUP2 PUSH2 0x3CB0 JUMP JUMPDEST PUSH2 0x3DDF DUP5 PUSH2 0x3CC2 JUMP JUMPDEST DUP2 ADD PUSH1 0x20 DUP6 LT ISZERO PUSH2 0x3DEE JUMPI DUP2 SWAP1 POP JUMPDEST PUSH2 0x3E02 PUSH2 0x3DFA DUP6 PUSH2 0x3CC2 JUMP JUMPDEST DUP4 ADD DUP3 PUSH2 0x3DA2 JUMP JUMPDEST POP POP JUMPDEST POP POP POP JUMP JUMPDEST PUSH0 DUP3 DUP3 SHR SWAP1 POP SWAP3 SWAP2 POP POP JUMP JUMPDEST PUSH0 PUSH2 0x3E25 PUSH0 NOT DUP5 PUSH1 0x8 MUL PUSH2 0x3E0A JUMP JUMPDEST NOT DUP1 DUP4 AND SWAP2 POP POP SWAP3 SWAP2 POP POP JUMP JUMPDEST PUSH0 PUSH2 0x3E3D DUP4 DUP4 PUSH2 0x3E16 JUMP JUMPDEST SWAP2 POP DUP3 PUSH1 0x2 MUL DUP3 OR SWAP1 POP SWAP3 SWAP2 POP POP JUMP JUMPDEST PUSH2 0x3E57 DUP4 DUP4 PUSH2 0x3CA6 JUMP JUMPDEST PUSH8 0xFFFFFFFFFFFFFFFF DUP2 GT ISZERO PUSH2 0x3E70 JUMPI PUSH2 0x3E6F PUSH2 0x3406 JUMP JUMPDEST JUMPDEST PUSH2 0x3E7A DUP3 SLOAD PUSH2 0x3673 JUMP JUMPDEST PUSH2 0x3E85 DUP3 DUP3 DUP6 PUSH2 0x3DC4 JUMP JUMPDEST PUSH0 PUSH1 0x1F DUP4 GT PUSH1 0x1 DUP2 EQ PUSH2 0x3EB2 JUMPI PUSH0 DUP5 ISZERO PUSH2 0x3EA0 JUMPI DUP3 DUP8 ADD CALLDATALOAD SWAP1 POP JUMPDEST PUSH2 0x3EAA DUP6 DUP3 PUSH2 0x3E32 JUMP JUMPDEST DUP7 SSTORE POP PUSH2 0x3F11 JUMP JUMPDEST PUSH1 0x1F NOT DUP5 AND PUSH2 0x3EC0 DUP7 PUSH2 0x3CB0 JUMP JUMPDEST PUSH0 JUMPDEST DUP3 DUP2 LT ISZERO PUSH2 0x3EE7 JUMPI DUP5 DUP10 ADD CALLDATALOAD DUP3 SSTORE PUSH1 0x1 DUP3 ADD SWAP2 POP PUSH1 0x20 DUP6 ADD SWAP5 POP PUSH1 0x20 DUP2 ADD SWAP1 POP PUSH2 0x3EC2 JUMP JUMPDEST DUP7 DUP4 LT ISZERO PUSH2 0x3F04 JUMPI DUP5 DUP10 ADD CALLDATALOAD PUSH2 0x3F00 PUSH1 0x1F DUP10 AND DUP3 PUSH2 0x3E16 JUMP JUMPDEST DUP4 SSTORE POP JUMPDEST PUSH1 0x1 PUSH1 0x2 DUP9 MUL ADD DUP9 SSTORE POP POP POP JUMPDEST POP POP POP POP POP POP POP JUMP JUMPDEST PUSH32 0x455243373231413A2062616C616E636520717565727920666F7220746865207A PUSH0 DUP3 ADD MSTORE PUSH32 0x65726F2061646472657373000000000000000000000000000000000000000000 PUSH1 0x20 DUP3 ADD MSTORE POP JUMP JUMPDEST PUSH0 PUSH2 0x3F74 PUSH1 0x2B DUP4 PUSH2 0x3073 JUMP JUMPDEST SWAP2 POP PUSH2 0x3F7F DUP3 PUSH2 0x3F1A JUMP JUMPDEST PUSH1 0x40 DUP3 ADD SWAP1 POP SWAP2 SWAP1 POP JUMP JUMPDEST PUSH0 PUSH1 0x20 DUP3 ADD SWAP1 POP DUP2 DUP2 SUB PUSH0 DUP4 ADD MSTORE PUSH2 0x3FA1 DUP2 PUSH2 0x3F68 JUMP JUMPDEST SWAP1 POP SWAP2 SWAP1 POP JUMP JUMPDEST PUSH32 0x5468652063616C6C657220697320616E6F7468657220636F6E74726163740000 PUSH0 DUP3 ADD MSTORE POP JUMP JUMPDEST PUSH0 PUSH2 0x3FDC PUSH1 0x1E DUP4 PUSH2 0x3073 JUMP JUMPDEST SWAP2 POP PUSH2 0x3FE7 DUP3 PUSH2 0x3FA8 JUMP JUMPDEST PUSH1 0x20 DUP3 ADD SWAP1 POP SWAP2 SWAP1 POP JUMP JUMPDEST PUSH0 PUSH1 0x20 DUP3 ADD SWAP1 POP DUP2 DUP2 SUB PUSH0 DUP4 ADD MSTORE PUSH2 0x4009 DUP2 PUSH2 0x3FD0 JUMP JUMPDEST SWAP1 POP SWAP2 SWAP1 POP JUMP JUMPDEST PUSH32 0x53414C455F4841535F4E4F545F535441525445445F5945540000000000000000 PUSH0 DUP3 ADD MSTORE POP JUMP JUMPDEST PUSH0 PUSH2 0x4044 PUSH1 0x18 DUP4 PUSH2 0x3073 JUMP JUMPDEST SWAP2 POP PUSH2 0x404F DUP3 PUSH2 0x4010 JUMP JUMPDEST PUSH1 0x20 DUP3 ADD SWAP1 POP SWAP2 SWAP1 POP JUMP JUMPDEST PUSH0 PUSH1 0x20 DUP3 ADD SWAP1 POP DUP2 DUP2 SUB PUSH0 DUP4 ADD MSTORE PUSH2 0x4071 DUP2 PUSH2 0x4038 JUMP JUMPDEST SWAP1 POP SWAP2 SWAP1 POP JUMP JUMPDEST PUSH32 0x494E56414C49445F5155414E5449545900000000000000000000000000000000 PUSH0 DUP3 ADD MSTORE POP JUMP JUMPDEST PUSH0 PUSH2 0x40AC PUSH1 0x10 DUP4 PUSH2 0x3073 JUMP JUMPDEST SWAP2 POP PUSH2 0x40B7 DUP3 PUSH2 0x4078 JUMP JUMPDEST PUSH1 0x20 DUP3 ADD SWAP1 POP SWAP2 SWAP1 POP JUMP JUMPDEST PUSH0 PUSH1 0x20 DUP3 ADD SWAP1 POP DUP2 DUP2 SUB PUSH0 DUP4 ADD MSTORE PUSH2 0x40D9 DUP2 PUSH2 0x40A0 JUMP JUMPDEST SWAP1 POP SWAP2 SWAP1 POP JUMP JUMPDEST PUSH32 0x43414E4E4F545F4D494E545F544841545F4D414E590000000000000000000000 PUSH0 DUP3 ADD MSTORE POP JUMP JUMPDEST PUSH0 PUSH2 0x4114 PUSH1 0x15 DUP4 PUSH2 0x3073 JUMP JUMPDEST SWAP2 POP PUSH2 0x411F DUP3 PUSH2 0x40E0 JUMP JUMPDEST PUSH1 0x20 DUP3 ADD SWAP1 POP SWAP2 SWAP1 POP JUMP JUMPDEST PUSH0 PUSH1 0x20 DUP3 ADD SWAP1 POP DUP2 DUP2 SUB PUSH0 DUP4 ADD MSTORE PUSH2 0x4141 DUP2 PUSH2 0x4108 JUMP JUMPDEST SWAP1 POP SWAP2 SWAP1 POP JUMP JUMPDEST PUSH0 PUSH2 0x4152 DUP3 PUSH2 0x3038 JUMP JUMPDEST SWAP2 POP PUSH2 0x415D DUP4 PUSH2 0x3038 JUMP JUMPDEST SWAP3 POP DUP3 DUP3 ADD SWAP1 POP DUP1 DUP3 GT ISZERO PUSH2 0x4175 JUMPI PUSH2 0x4174 PUSH2 0x39ED JUMP JUMPDEST JUMPDEST SWAP3 SWAP2 POP POP JUMP JUMPDEST PUSH32 0x4E4F545F454E4F5547485F535550504C595F544F5F4D494E545F444553495245 PUSH0 DUP3 ADD MSTORE PUSH32 0x445F414D4F554E54000000000000000000000000000000000000000000000000 PUSH1 0x20 DUP3 ADD MSTORE POP JUMP JUMPDEST PUSH0 PUSH2 0x41D5 PUSH1 0x28 DUP4 PUSH2 0x3073 JUMP JUMPDEST SWAP2 POP PUSH2 0x41E0 DUP3 PUSH2 0x417B JUMP JUMPDEST PUSH1 0x40 DUP3 ADD SWAP1 POP SWAP2 SWAP1 POP JUMP JUMPDEST PUSH0 PUSH1 0x20 DUP3 ADD SWAP1 POP DUP2 DUP2 SUB PUSH0 DUP4 ADD MSTORE PUSH2 0x4202 DUP2 PUSH2 0x41C9 JUMP JUMPDEST SWAP1 POP SWAP2 SWAP1 POP JUMP JUMPDEST PUSH0 PUSH2 0x4213 DUP3 PUSH2 0x3038 JUMP JUMPDEST SWAP2 POP PUSH2 0x421E DUP4 PUSH2 0x3038 JUMP JUMPDEST SWAP3 POP DUP3 DUP3 MUL PUSH2 0x422C DUP2 PUSH2 0x3038 JUMP JUMPDEST SWAP2 POP DUP3 DUP3 DIV DUP5 EQ DUP4 ISZERO OR PUSH2 0x4243 JUMPI PUSH2 0x4242 PUSH2 0x39ED JUMP JUMPDEST JUMPDEST POP SWAP3 SWAP2 POP POP JUMP JUMPDEST PUSH32 0x56616C75652062656C6F77207072696365000000000000000000000000000000 PUSH0 DUP3 ADD MSTORE POP JUMP JUMPDEST PUSH0 PUSH2 0x427E PUSH1 0x11 DUP4 PUSH2 0x3073 JUMP JUMPDEST SWAP2 POP PUSH2 0x4289 DUP3 PUSH2 0x424A JUMP JUMPDEST PUSH1 0x20 DUP3 ADD SWAP1 POP SWAP2 SWAP1 POP JUMP JUMPDEST PUSH0 PUSH1 0x20 DUP3 ADD SWAP1 POP DUP2 DUP2 SUB PUSH0 DUP4 ADD MSTORE PUSH2 0x42AB DUP2 PUSH2 0x4272 JUMP JUMPDEST SWAP1 POP SWAP2 SWAP1 POP JUMP JUMPDEST PUSH32 0x4E487B7100000000000000000000000000000000000000000000000000000000 PUSH0 MSTORE PUSH1 0x12 PUSH1 0x4 MSTORE PUSH1 0x24 PUSH0 REVERT JUMPDEST PUSH0 PUSH2 0x42E9 DUP3 PUSH2 0x3038 JUMP JUMPDEST SWAP2 POP PUSH2 0x42F4 DUP4 PUSH2 0x3038 JUMP JUMPDEST SWAP3 POP DUP3 PUSH2 0x4304 JUMPI PUSH2 0x4303 PUSH2 0x42B2 JUMP JUMPDEST JUMPDEST DUP3 DUP3 DIV SWAP1 POP SWAP3 SWAP2 POP POP JUMP JUMPDEST PUSH32 0x455243373231413A20617070726F766520746F2063616C6C6572000000000000 PUSH0 DUP3 ADD MSTORE POP JUMP JUMPDEST PUSH0 PUSH2 0x4343 PUSH1 0x1A DUP4 PUSH2 0x3073 JUMP JUMPDEST SWAP2 POP PUSH2 0x434E DUP3 PUSH2 0x430F JUMP JUMPDEST PUSH1 0x20 DUP3 ADD SWAP1 POP SWAP2 SWAP1 POP JUMP JUMPDEST PUSH0 PUSH1 0x20 DUP3 ADD SWAP1 POP DUP2 DUP2 SUB PUSH0 DUP4 ADD MSTORE PUSH2 0x4370 DUP2 PUSH2 0x4337 JUMP JUMPDEST SWAP1 POP SWAP2 SWAP1 POP JUMP JUMPDEST PUSH32 0x455243373231413A207472616E7366657220746F206E6F6E2045524337323152 PUSH0 DUP3 ADD MSTORE PUSH32 0x6563656976657220696D706C656D656E74657200000000000000000000000000 PUSH1 0x20 DUP3 ADD MSTORE POP JUMP JUMPDEST PUSH0 PUSH2 0x43D1 PUSH1 0x33 DUP4 PUSH2 0x3073 JUMP JUMPDEST SWAP2 POP PUSH2 0x43DC DUP3 PUSH2 0x4377 JUMP JUMPDEST PUSH1 0x40 DUP3 ADD SWAP1 POP SWAP2 SWAP1 POP JUMP JUMPDEST PUSH0 PUSH1 0x20 DUP3 ADD SWAP1 POP DUP2 DUP2 SUB PUSH0 DUP4 ADD MSTORE PUSH2 0x43FE DUP2 PUSH2 0x43C5 JUMP JUMPDEST SWAP1 POP SWAP2 SWAP1 POP JUMP JUMPDEST PUSH32 0x4552433732314D657461646174613A2055524920717565727920666F72206E6F PUSH0 DUP3 ADD MSTORE PUSH32 0x6E6578697374656E7420746F6B656E0000000000000000000000000000000000 PUSH1 0x20 DUP3 ADD MSTORE POP JUMP JUMPDEST PUSH0 PUSH2 0x445F PUSH1 0x2F DUP4 PUSH2 0x3073 JUMP JUMPDEST SWAP2 POP PUSH2 0x446A DUP3 PUSH2 0x4405 JUMP JUMPDEST PUSH1 0x40 DUP3 ADD SWAP1 POP SWAP2 SWAP1 POP JUMP JUMPDEST PUSH0 PUSH1 0x20 DUP3 ADD SWAP1 POP DUP2 DUP2 SUB PUSH0 DUP4 ADD MSTORE PUSH2 0x448C DUP2 PUSH2 0x4453 JUMP JUMPDEST SWAP1 POP SWAP2 SWAP1 POP JUMP JUMPDEST PUSH0 DUP2 SWAP1 POP SWAP3 SWAP2 POP POP JUMP JUMPDEST PUSH0 PUSH2 0x44A7 DUP3 PUSH2 0x3069 JUMP JUMPDEST PUSH2 0x44B1 DUP2 DUP6 PUSH2 0x4493 JUMP JUMPDEST SWAP4 POP PUSH2 0x44C1 DUP2 DUP6 PUSH1 0x20 DUP7 ADD PUSH2 0x3083 JUMP JUMPDEST DUP1 DUP5 ADD SWAP2 POP POP SWAP3 SWAP2 POP POP JUMP JUMPDEST PUSH0 PUSH2 0x44D8 DUP3 DUP6 PUSH2 0x449D JUMP JUMPDEST SWAP2 POP PUSH2 0x44E4 DUP3 DUP5 PUSH2 0x449D JUMP JUMPDEST SWAP2 POP DUP2 SWAP1 POP SWAP4 SWAP3 POP POP POP JUMP JUMPDEST PUSH32 0x4F776E61626C653A206E6577206F776E657220697320746865207A65726F2061 PUSH0 DUP3 ADD MSTORE PUSH32 0x6464726573730000000000000000000000000000000000000000000000000000 PUSH1 0x20 DUP3 ADD MSTORE POP JUMP JUMPDEST PUSH0 PUSH2 0x454A PUSH1 0x26 DUP4 PUSH2 0x3073 JUMP JUMPDEST SWAP2 POP PUSH2 0x4555 DUP3 PUSH2 0x44F0 JUMP JUMPDEST PUSH1 0x40 DUP3 ADD SWAP1 POP SWAP2 SWAP1 POP JUMP JUMPDEST PUSH0 PUSH1 0x20 DUP3 ADD SWAP1 POP DUP2 DUP2 SUB PUSH0 DUP4 ADD MSTORE PUSH2 0x4577 DUP2 PUSH2 0x453E JUMP JUMPDEST SWAP1 POP SWAP2 SWAP1 POP JUMP JUMPDEST PUSH32 0x455243373231413A207472616E736665722063616C6C6572206973206E6F7420 PUSH0 DUP3 ADD MSTORE PUSH32 0x6F776E6572206E6F7220617070726F7665640000000000000000000000000000 PUSH1 0x20 DUP3 ADD MSTORE POP JUMP JUMPDEST PUSH0 PUSH2 0x45D8 PUSH1 0x32 DUP4 PUSH2 0x3073 JUMP JUMPDEST SWAP2 POP PUSH2 0x45E3 DUP3 PUSH2 0x457E JUMP JUMPDEST PUSH1 0x40 DUP3 ADD SWAP1 POP SWAP2 SWAP1 POP JUMP JUMPDEST PUSH0 PUSH1 0x20 DUP3 ADD SWAP1 POP DUP2 DUP2 SUB PUSH0 DUP4 ADD MSTORE PUSH2 0x4605 DUP2 PUSH2 0x45CC JUMP JUMPDEST SWAP1 POP SWAP2 SWAP1 POP JUMP JUMPDEST PUSH32 0x455243373231413A207472616E736665722066726F6D20696E636F7272656374 PUSH0 DUP3 ADD MSTORE PUSH32 0x206F776E65720000000000000000000000000000000000000000000000000000 PUSH1 0x20 DUP3 ADD MSTORE POP JUMP JUMPDEST PUSH0 PUSH2 0x4666 PUSH1 0x26 DUP4 PUSH2 0x3073 JUMP JUMPDEST SWAP2 POP PUSH2 0x4671 DUP3 PUSH2 0x460C JUMP JUMPDEST PUSH1 0x40 DUP3 ADD SWAP1 POP SWAP2 SWAP1 POP JUMP JUMPDEST PUSH0 PUSH1 0x20 DUP3 ADD SWAP1 POP DUP2 DUP2 SUB PUSH0 DUP4 ADD MSTORE PUSH2 0x4693 DUP2 PUSH2 0x465A JUMP JUMPDEST SWAP1 POP SWAP2 SWAP1 POP JUMP JUMPDEST PUSH32 0x455243373231413A207472616E7366657220746F20746865207A65726F206164 PUSH0 DUP3 ADD MSTORE PUSH32 0x6472657373000000000000000000000000000000000000000000000000000000 PUSH1 0x20 DUP3 ADD MSTORE POP JUMP JUMPDEST PUSH0 PUSH2 0x46F4 PUSH1 0x25 DUP4 PUSH2 0x3073 JUMP JUMPDEST SWAP2 POP PUSH2 0x46FF DUP3 PUSH2 0x469A JUMP JUMPDEST PUSH1 0x40 DUP3 ADD SWAP1 POP SWAP2 SWAP1 POP JUMP JUMPDEST PUSH0 PUSH1 0x20 DUP3 ADD SWAP1 POP DUP2 DUP2 SUB PUSH0 DUP4 ADD MSTORE PUSH2 0x4721 DUP2 PUSH2 0x46E8 JUMP JUMPDEST SWAP1 POP SWAP2 SWAP1 POP JUMP JUMPDEST PUSH0 PUSH16 0xFFFFFFFFFFFFFFFFFFFFFFFFFFFFFFFF DUP3 AND SWAP1 POP SWAP2 SWAP1 POP JUMP JUMPDEST PUSH0 PUSH2 0x474D DUP3 PUSH2 0x4728 JUMP JUMPDEST SWAP2 POP PUSH2 0x4758 DUP4 PUSH2 0x4728 JUMP JUMPDEST SWAP3 POP DUP3 DUP3 SUB SWAP1 POP PUSH16 0xFFFFFFFFFFFFFFFFFFFFFFFFFFFFFFFF DUP2 GT ISZERO PUSH2 0x4780 JUMPI PUSH2 0x477F PUSH2 0x39ED JUMP JUMPDEST JUMPDEST SWAP3 SWAP2 POP POP JUMP JUMPDEST PUSH0 PUSH2 0x4790 DUP3 PUSH2 0x4728 JUMP JUMPDEST SWAP2 POP PUSH2 0x479B DUP4 PUSH2 0x4728 JUMP JUMPDEST SWAP3 POP DUP3 DUP3 ADD SWAP1 POP PUSH16 0xFFFFFFFFFFFFFFFFFFFFFFFFFFFFFFFF DUP2 GT ISZERO PUSH2 0x47C3 JUMPI PUSH2 0x47C2 PUSH2 0x39ED JUMP JUMPDEST JUMPDEST SWAP3 SWAP2 POP POP JUMP JUMPDEST PUSH32 0x455243373231413A206F776E657220717565727920666F72206E6F6E65786973 PUSH0 DUP3 ADD MSTORE PUSH32 0x74656E7420746F6B656E00000000000000000000000000000000000000000000 PUSH1 0x20 DUP3 ADD MSTORE POP JUMP JUMPDEST PUSH0 PUSH2 0x4823 PUSH1 0x2A DUP4 PUSH2 0x3073 JUMP JUMPDEST SWAP2 POP PUSH2 0x482E DUP3 PUSH2 0x47C9 JUMP JUMPDEST PUSH1 0x40 DUP3 ADD SWAP1 POP SWAP2 SWAP1 POP JUMP JUMPDEST PUSH0 PUSH1 0x20 DUP3 ADD SWAP1 POP DUP2 DUP2 SUB PUSH0 DUP4 ADD MSTORE PUSH2 0x4850 DUP2 PUSH2 0x4817 JUMP JUMPDEST SWAP1 POP SWAP2 SWAP1 POP JUMP JUMPDEST PUSH0 PUSH2 0x4861 DUP3 PUSH2 0x3038 JUMP JUMPDEST SWAP2 POP PUSH0 DUP3 SUB PUSH2 0x4873 JUMPI PUSH2 0x4872 PUSH2 0x39ED JUMP JUMPDEST JUMPDEST PUSH1 0x1 DUP3 SUB SWAP1 POP SWAP2 SWAP1 POP JUMP JUMPDEST PUSH32 0x455243373231413A20756E61626C6520746F2064657465726D696E6520746865 PUSH0 DUP3 ADD MSTORE PUSH32 0x206F776E6572206F6620746F6B656E0000000000000000000000000000000000 PUSH1 0x20 DUP3 ADD MSTORE POP JUMP JUMPDEST PUSH0 PUSH2 0x48D8 PUSH1 0x2F DUP4 PUSH2 0x3073 JUMP JUMPDEST SWAP2 POP PUSH2 0x48E3 DUP3 PUSH2 0x487E JUMP JUMPDEST PUSH1 0x40 DUP3 ADD SWAP1 POP SWAP2 SWAP1 POP JUMP JUMPDEST PUSH0 PUSH1 0x20 DUP3 ADD SWAP1 POP DUP2 DUP2 SUB PUSH0 DUP4 ADD MSTORE PUSH2 0x4905 DUP2 PUSH2 0x48CC JUMP JUMPDEST SWAP1 POP SWAP2 SWAP1 POP JUMP JUMPDEST PUSH0 DUP2 MLOAD SWAP1 POP SWAP2 SWAP1 POP JUMP JUMPDEST PUSH0 DUP3 DUP3 MSTORE PUSH1 0x20 DUP3 ADD SWAP1 POP SWAP3 SWAP2 POP POP JUMP JUMPDEST PUSH0 PUSH2 0x4930 DUP3 PUSH2 0x490C JUMP JUMPDEST PUSH2 0x493A DUP2 DUP6 PUSH2 0x4916 JUMP JUMPDEST SWAP4 POP PUSH2 0x494A DUP2 DUP6 PUSH1 0x20 DUP7 ADD PUSH2 0x3083 JUMP JUMPDEST PUSH2 0x4953 DUP2 PUSH2 0x3091 JUMP JUMPDEST DUP5 ADD SWAP2 POP POP SWAP3 SWAP2 POP POP JUMP JUMPDEST PUSH0 PUSH1 0x80 DUP3 ADD SWAP1 POP PUSH2 0x4971 PUSH0 DUP4 ADD DUP8 PUSH2 0x317E JUMP JUMPDEST PUSH2 0x497E PUSH1 0x20 DUP4 ADD DUP7 PUSH2 0x317E JUMP JUMPDEST PUSH2 0x498B PUSH1 0x40 DUP4 ADD DUP6 PUSH2 0x3041 JUMP JUMPDEST DUP2 DUP2 SUB PUSH1 0x60 DUP4 ADD MSTORE PUSH2 0x499D DUP2 DUP5 PUSH2 0x4926 JUMP JUMPDEST SWAP1 POP SWAP6 SWAP5 POP POP POP POP POP JUMP JUMPDEST PUSH0 DUP2 MLOAD SWAP1 POP PUSH2 0x49B6 DUP2 PUSH2 0x2FB0 JUMP JUMPDEST SWAP3 SWAP2 POP POP JUMP JUMPDEST PUSH0 PUSH1 0x20 DUP3 DUP5 SUB SLT ISZERO PUSH2 0x49D1 JUMPI PUSH2 0x49D0 PUSH2 0x2F7D JUMP JUMPDEST JUMPDEST PUSH0 PUSH2 0x49DE DUP5 DUP3 DUP6 ADD PUSH2 0x49A8 JUMP JUMPDEST SWAP2 POP POP SWAP3 SWAP2 POP POP JUMP JUMPDEST PUSH0 PUSH2 0x49F1 DUP3 PUSH2 0x3038 JUMP JUMPDEST SWAP2 POP PUSH2 0x49FC DUP4 PUSH2 0x3038 JUMP JUMPDEST SWAP3 POP DUP3 PUSH2 0x4A0C JUMPI PUSH2 0x4A0B PUSH2 0x42B2 JUMP JUMPDEST JUMPDEST DUP3 DUP3 MOD SWAP1 POP SWAP3 SWAP2 POP POP JUMP JUMPDEST PUSH32 0x4E487B7100000000000000000000000000000000000000000000000000000000 PUSH0 MSTORE PUSH1 0x32 PUSH1 0x4 MSTORE PUSH1 0x24 PUSH0 REVERT JUMPDEST PUSH32 0x455243373231413A206D696E7420746F20746865207A65726F20616464726573 PUSH0 DUP3 ADD MSTORE PUSH32 0x7300000000000000000000000000000000000000000000000000000000000000 PUSH1 0x20 DUP3 ADD MSTORE POP JUMP JUMPDEST PUSH0 PUSH2 0x4A9E PUSH1 0x21 DUP4 PUSH2 0x3073 JUMP JUMPDEST SWAP2 POP PUSH2 0x4AA9 DUP3 PUSH2 0x4A44 JUMP JUMPDEST PUSH1 0x40 DUP3 ADD SWAP1 POP SWAP2 SWAP1 POP JUMP JUMPDEST PUSH0 PUSH1 0x20 DUP3 ADD SWAP1 POP DUP2 DUP2 SUB PUSH0 DUP4 ADD MSTORE PUSH2 0x4ACB DUP2 PUSH2 0x4A92 JUMP JUMPDEST SWAP1 POP SWAP2 SWAP1 POP JUMP JUMPDEST PUSH32 0x455243373231413A20746F6B656E20616C7265616479206D696E746564000000 PUSH0 DUP3 ADD MSTORE POP JUMP JUMPDEST PUSH0 PUSH2 0x4B06 PUSH1 0x1D DUP4 PUSH2 0x3073 JUMP JUMPDEST SWAP2 POP PUSH2 0x4B11 DUP3 PUSH2 0x4AD2 JUMP JUMPDEST PUSH1 0x20 DUP3 ADD SWAP1 POP SWAP2 SWAP1 POP JUMP JUMPDEST PUSH0 PUSH1 0x20 DUP3 ADD SWAP1 POP DUP2 DUP2 SUB PUSH0 DUP4 ADD MSTORE PUSH2 0x4B33 DUP2 PUSH2 0x4AFA JUMP JUMPDEST SWAP1 POP SWAP2 SWAP1 POP JUMP JUMPDEST PUSH32 0x455243373231413A207175616E7469747920746F206D696E7420746F6F206869 PUSH0 DUP3 ADD MSTORE PUSH32 0x6768000000000000000000000000000000000000000000000000000000000000 PUSH1 0x20 DUP3 ADD MSTORE POP JUMP JUMPDEST PUSH0 PUSH2 0x4B94 PUSH1 0x22 DUP4 PUSH2 0x3073 JUMP JUMPDEST SWAP2 POP PUSH2 0x4B9F DUP3 PUSH2 0x4B3A JUMP JUMPDEST PUSH1 0x40 DUP3 ADD SWAP1 POP SWAP2 SWAP1 POP JUMP JUMPDEST PUSH0 PUSH1 0x20 DUP3 ADD SWAP1 POP DUP2 DUP2 SUB PUSH0 DUP4 ADD MSTORE PUSH2 0x4BC1 DUP2 PUSH2 0x4B88 JUMP JUMPDEST SWAP1 POP SWAP2 SWAP1 POP JUMP INVALID LOG2 PUSH5 0x6970667358 0x22 SLT KECCAK256 NUMBER 0xD7 SIGNEXTEND ISZERO SWAP9 MSTORE8 NUMBER PUSH16 0x954D00438A06DAFC5EE8D2DFBE3088D4 OR PUSH28 0xF0AAE3528DF764736F6C634300081A00330000000000000000000000 "
		},
		"gasEstimates": {
			"creation": {
				"codeDepositCost": "3890800",
				"executionCost": "infinite",
				"totalCost": "infinite"
			},
			"external": {
				"addRewardsPool()": "infinite",
				"approve(address,uint256)": "infinite",
				"balanceOf(address)": "3021",
				"flipPublicSaleState()": "28895",
				"getApproved(uint256)": "5130",
				"getUserIncome(address)": "infinite",
				"income(address)": "infinite",
				"isApprovedForAll(address,address)": "infinite",
				"maxPerTx()": "2557",
				"maxToken()": "2514",
				"mint(uint256,address)": "infinite",
				"name()": "infinite",
				"nextOwnerToExplicitlySet()": "2536",
				"owner()": "2583",
				"ownerOf(uint256)": "infinite",
				"price()": "2514",
				"publicSale()": "2534",
				"renounceOwnership()": "30499",
				"rewardsPool()": "2494",
				"safeTransferFrom(address,address,uint256)": "infinite",
				"safeTransferFrom(address,address,uint256,bytes)": "infinite",
				"setApprovalForAll(address,bool)": "infinite",
				"setBaseURI(string)": "infinite",
				"setPrice(uint256)": "24864",
				"setRoot(bytes32)": "24796",
				"supportsInterface(bytes4)": "856",
				"symbol()": "infinite",
				"tokenByIndex(uint256)": "infinite",
				"tokenOfOwnerByIndex(address,uint256)": "infinite",
				"tokenURI(uint256)": "infinite",
				"totalSupply()": "2500",
				"transferFrom(address,address,uint256)": "infinite",
				"transferOwnership(address)": "30817",
				"withdraw()": "infinite",
				"withdrawIncome()": "infinite"
			},
			"internal": {
				"_baseURI()": "infinite"
			}
		},
		"methodIdentifiers": {
			"addRewardsPool()": "ef95a530",
			"approve(address,uint256)": "095ea7b3",
			"balanceOf(address)": "70a08231",
			"flipPublicSaleState()": "a10866ef",
			"getApproved(uint256)": "081812fc",
			"getUserIncome(address)": "7f081b16",
			"income(address)": "8ea1eacc",
			"isApprovedForAll(address,address)": "e985e9c5",
			"maxPerTx()": "f968adbe",
			"maxToken()": "ca69e323",
			"mint(uint256,address)": "94bf804d",
			"name()": "06fdde03",
			"nextOwnerToExplicitlySet()": "d7224ba0",
			"owner()": "8da5cb5b",
			"ownerOf(uint256)": "6352211e",
			"price()": "a035b1fe",
			"publicSale()": "33bc1c5c",
			"renounceOwnership()": "715018a6",
			"rewardsPool()": "0359fea9",
			"safeTransferFrom(address,address,uint256)": "42842e0e",
			"safeTransferFrom(address,address,uint256,bytes)": "b88d4fde",
			"setApprovalForAll(address,bool)": "a22cb465",
			"setBaseURI(string)": "55f804b3",
			"setPrice(uint256)": "91b7f5ed",
			"setRoot(bytes32)": "dab5f340",
			"supportsInterface(bytes4)": "01ffc9a7",
			"symbol()": "95d89b41",
			"tokenByIndex(uint256)": "4f6ccce7",
			"tokenOfOwnerByIndex(address,uint256)": "2f745c59",
			"tokenURI(uint256)": "c87b56dd",
			"totalSupply()": "18160ddd",
			"transferFrom(address,address,uint256)": "23b872dd",
			"transferOwnership(address)": "f2fde38b",
			"withdraw()": "3ccfd60b",
			"withdrawIncome()": "1a0fa8c3"
		}
	},
	"abi": [
		{
			"inputs": [
				{
					"internalType": "string",
					"name": "_NAME",
					"type": "string"
				},
				{
					"internalType": "string",
					"name": "_SYMBOL",
					"type": "string"
				},
				{
					"internalType": "string",
					"name": "baseTokenURI",
					"type": "string"
				}
			],
			"stateMutability": "nonpayable",
			"type": "constructor"
		},
		{
			"anonymous": false,
			"inputs": [
				{
					"indexed": true,
					"internalType": "address",
					"name": "owner",
					"type": "address"
				},
				{
					"indexed": true,
					"internalType": "address",
					"name": "approved",
					"type": "address"
				},
				{
					"indexed": true,
					"internalType": "uint256",
					"name": "tokenId",
					"type": "uint256"
				}
			],
			"name": "Approval",
			"type": "event"
		},
		{
			"anonymous": false,
			"inputs": [
				{
					"indexed": true,
					"internalType": "address",
					"name": "owner",
					"type": "address"
				},
				{
					"indexed": true,
					"internalType": "address",
					"name": "operator",
					"type": "address"
				},
				{
					"indexed": false,
					"internalType": "bool",
					"name": "approved",
					"type": "bool"
				}
			],
			"name": "ApprovalForAll",
			"type": "event"
		},
		{
			"anonymous": false,
			"inputs": [
				{
					"indexed": true,
					"internalType": "address",
					"name": "previousOwner",
					"type": "address"
				},
				{
					"indexed": true,
					"internalType": "address",
					"name": "newOwner",
					"type": "address"
				}
			],
			"name": "OwnershipTransferred",
			"type": "event"
		},
		{
			"anonymous": false,
			"inputs": [
				{
					"indexed": true,
					"internalType": "address",
					"name": "from",
					"type": "address"
				},
				{
					"indexed": true,
					"internalType": "address",
					"name": "to",
					"type": "address"
				},
				{
					"indexed": true,
					"internalType": "uint256",
					"name": "tokenId",
					"type": "uint256"
				}
			],
			"name": "Transfer",
			"type": "event"
		},
		{
			"inputs": [],
			"name": "addRewardsPool",
			"outputs": [],
			"stateMutability": "payable",
			"type": "function"
		},
		{
			"inputs": [
				{
					"internalType": "address",
					"name": "to",
					"type": "address"
				},
				{
					"internalType": "uint256",
					"name": "tokenId",
					"type": "uint256"
				}
			],
			"name": "approve",
			"outputs": [],
			"stateMutability": "nonpayable",
			"type": "function"
		},
		{
			"inputs": [
				{
					"internalType": "address",
					"name": "owner",
					"type": "address"
				}
			],
			"name": "balanceOf",
			"outputs": [
				{
					"internalType": "uint256",
					"name": "",
					"type": "uint256"
				}
			],
			"stateMutability": "view",
			"type": "function"
		},
		{
			"inputs": [],
			"name": "flipPublicSaleState",
			"outputs": [],
			"stateMutability": "nonpayable",
			"type": "function"
		},
		{
			"inputs": [
				{
					"internalType": "uint256",
					"name": "tokenId",
					"type": "uint256"
				}
			],
			"name": "getApproved",
			"outputs": [
				{
					"internalType": "address",
					"name": "",
					"type": "address"
				}
			],
			"stateMutability": "view",
			"type": "function"
		},
		{
			"inputs": [
				{
					"internalType": "address",
					"name": "user",
					"type": "address"
				}
			],
			"name": "getUserIncome",
			"outputs": [
				{
					"internalType": "uint256",
					"name": "availableIncome",
					"type": "uint256"
				},
				{
					"internalType": "uint256",
					"name": "unlockTimestamp",
					"type": "uint256"
				}
			],
			"stateMutability": "view",
			"type": "function"
		},
		{
			"inputs": [
				{
					"internalType": "address",
					"name": "",
					"type": "address"
				}
			],
			"name": "income",
			"outputs": [
				{
					"internalType": "uint256",
					"name": "amount",
					"type": "uint256"
				},
				{
					"internalType": "uint256",
					"name": "unlockTimestamp",
					"type": "uint256"
				}
			],
			"stateMutability": "view",
			"type": "function"
		},
		{
			"inputs": [
				{
					"internalType": "address",
					"name": "owner",
					"type": "address"
				},
				{
					"internalType": "address",
					"name": "operator",
					"type": "address"
				}
			],
			"name": "isApprovedForAll",
			"outputs": [
				{
					"internalType": "bool",
					"name": "",
					"type": "bool"
				}
			],
			"stateMutability": "view",
			"type": "function"
		},
		{
			"inputs": [],
			"name": "maxPerTx",
			"outputs": [
				{
					"internalType": "uint256",
					"name": "",
					"type": "uint256"
				}
			],
			"stateMutability": "view",
			"type": "function"
		},
		{
			"inputs": [],
			"name": "maxToken",
			"outputs": [
				{
					"internalType": "uint256",
					"name": "",
					"type": "uint256"
				}
			],
			"stateMutability": "view",
			"type": "function"
		},
		{
			"inputs": [
				{
					"internalType": "uint256",
					"name": "quantity",
					"type": "uint256"
				},
				{
					"internalType": "address",
					"name": "_to",
					"type": "address"
				}
			],
			"name": "mint",
			"outputs": [],
			"stateMutability": "payable",
			"type": "function"
		},
		{
			"inputs": [],
			"name": "name",
			"outputs": [
				{
					"internalType": "string",
					"name": "",
					"type": "string"
				}
			],
			"stateMutability": "view",
			"type": "function"
		},
		{
			"inputs": [],
			"name": "nextOwnerToExplicitlySet",
			"outputs": [
				{
					"internalType": "uint256",
					"name": "",
					"type": "uint256"
				}
			],
			"stateMutability": "view",
			"type": "function"
		},
		{
			"inputs": [],
			"name": "owner",
			"outputs": [
				{
					"internalType": "address",
					"name": "",
					"type": "address"
				}
			],
			"stateMutability": "view",
			"type": "function"
		},
		{
			"inputs": [
				{
					"internalType": "uint256",
					"name": "tokenId",
					"type": "uint256"
				}
			],
			"name": "ownerOf",
			"outputs": [
				{
					"internalType": "address",
					"name": "",
					"type": "address"
				}
			],
			"stateMutability": "view",
			"type": "function"
		},
		{
			"inputs": [],
			"name": "price",
			"outputs": [
				{
					"internalType": "uint256",
					"name": "",
					"type": "uint256"
				}
			],
			"stateMutability": "view",
			"type": "function"
		},
		{
			"inputs": [],
			"name": "publicSale",
			"outputs": [
				{
					"internalType": "bool",
					"name": "",
					"type": "bool"
				}
			],
			"stateMutability": "view",
			"type": "function"
		},
		{
			"inputs": [],
			"name": "renounceOwnership",
			"outputs": [],
			"stateMutability": "nonpayable",
			"type": "function"
		},
		{
			"inputs": [],
			"name": "rewardsPool",
			"outputs": [
				{
					"internalType": "uint256",
					"name": "",
					"type": "uint256"
				}
			],
			"stateMutability": "view",
			"type": "function"
		},
		{
			"inputs": [
				{
					"internalType": "address",
					"name": "from",
					"type": "address"
				},
				{
					"internalType": "address",
					"name": "to",
					"type": "address"
				},
				{
					"internalType": "uint256",
					"name": "tokenId",
					"type": "uint256"
				}
			],
			"name": "safeTransferFrom",
			"outputs": [],
			"stateMutability": "nonpayable",
			"type": "function"
		},
		{
			"inputs": [
				{
					"internalType": "address",
					"name": "from",
					"type": "address"
				},
				{
					"internalType": "address",
					"name": "to",
					"type": "address"
				},
				{
					"internalType": "uint256",
					"name": "tokenId",
					"type": "uint256"
				},
				{
					"internalType": "bytes",
					"name": "_data",
					"type": "bytes"
				}
			],
			"name": "safeTransferFrom",
			"outputs": [],
			"stateMutability": "nonpayable",
			"type": "function"
		},
		{
			"inputs": [
				{
					"internalType": "address",
					"name": "operator",
					"type": "address"
				},
				{
					"internalType": "bool",
					"name": "approved",
					"type": "bool"
				}
			],
			"name": "setApprovalForAll",
			"outputs": [],
			"stateMutability": "nonpayable",
			"type": "function"
		},
		{
			"inputs": [
				{
					"internalType": "string",
					"name": "baseURI",
					"type": "string"
				}
			],
			"name": "setBaseURI",
			"outputs": [],
			"stateMutability": "nonpayable",
			"type": "function"
		},
		{
			"inputs": [
				{
					"internalType": "uint256",
					"name": "_PriceInWEI",
					"type": "uint256"
				}
			],
			"name": "setPrice",
			"outputs": [],
			"stateMutability": "nonpayable",
			"type": "function"
		},
		{
			"inputs": [
				{
					"internalType": "bytes32",
					"name": "_root",
					"type": "bytes32"
				}
			],
			"name": "setRoot",
			"outputs": [],
			"stateMutability": "nonpayable",
			"type": "function"
		},
		{
			"inputs": [
				{
					"internalType": "bytes4",
					"name": "interfaceId",
					"type": "bytes4"
				}
			],
			"name": "supportsInterface",
			"outputs": [
				{
					"internalType": "bool",
					"name": "",
					"type": "bool"
				}
			],
			"stateMutability": "view",
			"type": "function"
		},
		{
			"inputs": [],
			"name": "symbol",
			"outputs": [
				{
					"internalType": "string",
					"name": "",
					"type": "string"
				}
			],
			"stateMutability": "view",
			"type": "function"
		},
		{
			"inputs": [
				{
					"internalType": "uint256",
					"name": "index",
					"type": "uint256"
				}
			],
			"name": "tokenByIndex",
			"outputs": [
				{
					"internalType": "uint256",
					"name": "",
					"type": "uint256"
				}
			],
			"stateMutability": "view",
			"type": "function"
		},
		{
			"inputs": [
				{
					"internalType": "address",
					"name": "owner",
					"type": "address"
				},
				{
					"internalType": "uint256",
					"name": "index",
					"type": "uint256"
				}
			],
			"name": "tokenOfOwnerByIndex",
			"outputs": [
				{
					"internalType": "uint256",
					"name": "",
					"type": "uint256"
				}
			],
			"stateMutability": "view",
			"type": "function"
		},
		{
			"inputs": [
				{
					"internalType": "uint256",
					"name": "tokenId",
					"type": "uint256"
				}
			],
			"name": "tokenURI",
			"outputs": [
				{
					"internalType": "string",
					"name": "",
					"type": "string"
				}
			],
			"stateMutability": "view",
			"type": "function"
		},
		{
			"inputs": [],
			"name": "totalSupply",
			"outputs": [
				{
					"internalType": "uint256",
					"name": "",
					"type": "uint256"
				}
			],
			"stateMutability": "view",
			"type": "function"
		},
		{
			"inputs": [
				{
					"internalType": "address",
					"name": "from",
					"type": "address"
				},
				{
					"internalType": "address",
					"name": "to",
					"type": "address"
				},
				{
					"internalType": "uint256",
					"name": "tokenId",
					"type": "uint256"
				}
			],
			"name": "transferFrom",
			"outputs": [],
			"stateMutability": "nonpayable",
			"type": "function"
		},
		{
			"inputs": [
				{
					"internalType": "address",
					"name": "newOwner",
					"type": "address"
				}
			],
			"name": "transferOwnership",
			"outputs": [],
			"stateMutability": "nonpayable",
			"type": "function"
		},
		{
			"inputs": [],
			"name": "withdraw",
			"outputs": [],
			"stateMutability": "nonpayable",
			"type": "function"
		},
		{
			"inputs": [],
			"name": "withdrawIncome",
			"outputs": [],
			"stateMutability": "nonpayable",
			"type": "function"
		}
	]
}